{
  "_format": "hh-sol-artifact-1",
  "contractName": "Escrow",
  "sourceName": "contracts/Escrow.sol",
  "abi": [
    {
      "inputs": [
        {
          "internalType": "address",
          "name": "_inspector",
          "type": "address"
        }
      ],
      "stateMutability": "nonpayable",
      "type": "constructor"
    },
    {
      "anonymous": false,
      "inputs": [
        {
          "indexed": true,
          "internalType": "uint256",
          "name": "nftId",
          "type": "uint256"
        },
        {
          "indexed": true,
          "internalType": "address",
          "name": "buyer",
          "type": "address"
        },
        {
          "indexed": true,
          "internalType": "address",
          "name": "seller",
          "type": "address"
        }
      ],
      "name": "PurchaisedPropertySuccess",
      "type": "event"
    },
    {
      "anonymous": false,
      "inputs": [
        {
          "indexed": true,
          "internalType": "uint256",
          "name": "nftId",
          "type": "uint256"
        },
        {
          "indexed": true,
          "internalType": "address",
          "name": "tenant",
          "type": "address"
        },
        {
          "indexed": true,
          "internalType": "address",
          "name": "owner",
          "type": "address"
        },
        {
          "indexed": false,
          "internalType": "uint256",
          "name": "rent",
          "type": "uint256"
        }
      ],
      "name": "RentedPropertySuccess",
      "type": "event"
    },
    {
      "anonymous": false,
      "inputs": [
        {
          "indexed": true,
          "internalType": "uint256",
          "name": "nftId",
          "type": "uint256"
        },
        {
          "indexed": true,
          "internalType": "address",
          "name": "tenant",
          "type": "address"
        },
        {
          "indexed": false,
          "internalType": "uint256",
          "name": "rentPaid",
          "type": "uint256"
        }
      ],
      "name": "returnRentedProperty",
      "type": "event"
    },
    {
      "inputs": [],
      "name": "PTKcontract",
      "outputs": [
        {
          "internalType": "contract PropertyToken",
          "name": "",
          "type": "address"
        }
      ],
      "stateMutability": "view",
      "type": "function"
    },
    {
      "inputs": [
        {
          "internalType": "address",
          "name": "ptkcontract",
          "type": "address"
        }
      ],
      "name": "_initiatePropertyToken",
      "outputs": [],
      "stateMutability": "nonpayable",
      "type": "function"
    },
    {
      "inputs": [
        {
          "internalType": "uint256",
          "name": "",
          "type": "uint256"
        }
      ],
      "name": "activeTokensOnRent",
      "outputs": [
        {
          "internalType": "uint256",
          "name": "",
          "type": "uint256"
        }
      ],
      "stateMutability": "view",
      "type": "function"
    },
    {
      "inputs": [
        {
          "internalType": "uint256",
          "name": "nftId",
          "type": "uint256"
        }
      ],
      "name": "approveInspection",
      "outputs": [],
      "stateMutability": "nonpayable",
      "type": "function"
    },
    {
      "inputs": [
        {
          "internalType": "uint256",
          "name": "duration",
          "type": "uint256"
        }
      ],
      "name": "calculateRent",
      "outputs": [
        {
          "internalType": "uint256",
          "name": "",
          "type": "uint256"
        }
      ],
      "stateMutability": "view",
      "type": "function"
    },
    {
      "inputs": [
        {
          "internalType": "bytes",
          "name": "",
          "type": "bytes"
        }
      ],
      "name": "checkUpkeep",
      "outputs": [
        {
          "internalType": "bool",
          "name": "upkeepNeeded",
          "type": "bool"
        },
        {
          "internalType": "bytes",
          "name": "performData",
          "type": "bytes"
        }
      ],
      "stateMutability": "view",
      "type": "function"
    },
    {
      "inputs": [
        {
          "internalType": "uint256",
          "name": "nftId",
          "type": "uint256"
        }
      ],
      "name": "getInspectionStatus",
      "outputs": [
        {
          "internalType": "bool",
          "name": "",
          "type": "bool"
        }
      ],
      "stateMutability": "view",
      "type": "function"
    },
    {
      "inputs": [],
      "name": "getPropertyTokenAddress",
      "outputs": [
        {
          "internalType": "address",
          "name": "",
          "type": "address"
        }
      ],
      "stateMutability": "view",
      "type": "function"
    },
    {
      "inputs": [
        {
          "internalType": "uint256",
          "name": "nftId",
          "type": "uint256"
        }
      ],
      "name": "getReturnTime",
      "outputs": [
        {
          "internalType": "uint256",
          "name": "",
          "type": "uint256"
        }
      ],
      "stateMutability": "view",
      "type": "function"
    },
    {
      "inputs": [
        {
          "internalType": "uint256",
          "name": "nftId",
          "type": "uint256"
        }
      ],
      "name": "getSeller",
      "outputs": [
        {
          "internalType": "address",
          "name": "",
          "type": "address"
        }
      ],
      "stateMutability": "view",
      "type": "function"
    },
    {
      "inputs": [
        {
          "internalType": "uint256",
          "name": "nftId",
          "type": "uint256"
        }
      ],
      "name": "getTenant",
      "outputs": [
        {
          "internalType": "address",
          "name": "",
          "type": "address"
        }
      ],
      "stateMutability": "view",
      "type": "function"
    },
    {
      "inputs": [],
      "name": "getTotalSupply",
      "outputs": [
        {
          "internalType": "uint256",
          "name": "",
          "type": "uint256"
        }
      ],
      "stateMutability": "view",
      "type": "function"
    },
    {
      "inputs": [],
      "name": "inspector",
      "outputs": [
        {
          "internalType": "address",
          "name": "",
          "type": "address"
        }
      ],
      "stateMutability": "view",
      "type": "function"
    },
    {
      "inputs": [
        {
          "internalType": "uint256",
          "name": "_priceForRent",
          "type": "uint256"
        },
        {
          "internalType": "uint256",
          "name": "_priceForBuy",
          "type": "uint256"
        },
        {
          "internalType": "uint256",
          "name": "_escrowAmt",
          "type": "uint256"
        },
        {
          "internalType": "string",
          "name": "uri",
          "type": "string"
        }
      ],
      "name": "listProperty",
      "outputs": [],
      "stateMutability": "nonpayable",
      "type": "function"
    },
    {
      "inputs": [
        {
          "internalType": "address",
          "name": "",
          "type": "address"
        },
        {
          "internalType": "address",
          "name": "",
          "type": "address"
        },
        {
          "internalType": "uint256",
          "name": "",
          "type": "uint256"
        },
        {
          "internalType": "bytes",
          "name": "",
          "type": "bytes"
        }
      ],
      "name": "onERC721Received",
      "outputs": [
        {
          "internalType": "bytes4",
          "name": "",
          "type": "bytes4"
        }
      ],
      "stateMutability": "nonpayable",
      "type": "function"
    },
    {
      "inputs": [
        {
          "internalType": "bytes",
          "name": "performData",
          "type": "bytes"
        }
      ],
      "name": "performUpkeep",
      "outputs": [],
      "stateMutability": "nonpayable",
      "type": "function"
    },
    {
      "inputs": [
        {
          "internalType": "uint256",
          "name": "nftId",
          "type": "uint256"
        },
        {
          "internalType": "bool",
          "name": "rent",
          "type": "bool"
        },
        {
          "internalType": "uint256",
          "name": "duration",
          "type": "uint256"
        }
      ],
      "name": "processTransaction",
      "outputs": [],
      "stateMutability": "payable",
      "type": "function"
    }
  ],
  "bytecode": "0x60806040526001600255600260035560036004553480156200002057600080fd5b5060405162002dda38038062002dda8339818101604052810190620000469190620000f7565b806000806101000a81548173ffffffffffffffffffffffffffffffffffffffff021916908373ffffffffffffffffffffffffffffffffffffffff1602179055505062000129565b600080fd5b600073ffffffffffffffffffffffffffffffffffffffff82169050919050565b6000620000bf8262000092565b9050919050565b620000d181620000b2565b8114620000dd57600080fd5b50565b600081519050620000f181620000c6565b92915050565b60006020828403121562000110576200010f6200008d565b5b60006200012084828501620000e0565b91505092915050565b612ca180620001396000396000f3fe6080604052600436106100fe5760003560e01c80637b67e7c811610095578063d6a9de5111610064578063d6a9de5114610361578063ed2cee9e1461039e578063ede702ad146103c9578063f3d377c5146103f2578063f4809ed01461041b576100fe565b80637b67e7c8146102b25780638ede1817146102dd5780639a5830f31461031a578063c4e41b2214610336576100fe565b80634585e33b116100d15780634585e33b146101e557806355fd83e51461020e57806368c134ea1461024b5780636e04ff0d14610274576100fe565b8063150b7a02146101035780631b5452dd146101405780632f0152df1461017d5780633db436ee146101a8575b600080fd5b34801561010f57600080fd5b5061012a60048036038101906101259190611c49565b610458565b6040516101379190611d07565b60405180910390f35b34801561014c57600080fd5b5061016760048036038101906101629190611d22565b61046c565b6040516101749190611d5e565b60405180910390f35b34801561018957600080fd5b506101926104b6565b60405161019f9190611dd8565b60405180910390f35b3480156101b457600080fd5b506101cf60048036038101906101ca9190611d22565b6104dc565b6040516101dc9190611d5e565b60405180910390f35b3480156101f157600080fd5b5061020c60048036038101906102079190611e53565b610500565b005b34801561021a57600080fd5b5061023560048036038101906102309190611d22565b61055b565b6040516102429190611eaf565b60405180910390f35b34801561025757600080fd5b50610272600480360381019061026d9190611d22565b610598565b005b34801561028057600080fd5b5061029b60048036038101906102969190611e53565b610655565b6040516102a9929190611f64565b60405180910390f35b3480156102be57600080fd5b506102c7610883565b6040516102d49190611eaf565b60405180910390f35b3480156102e957600080fd5b5061030460048036038101906102ff9190611d22565b6108ad565b6040516103119190611d5e565b60405180910390f35b610334600480360381019061032f9190611fc0565b6108ca565b005b34801561034257600080fd5b5061034b610aed565b6040516103589190611d5e565b60405180910390f35b34801561036d57600080fd5b5061038860048036038101906103839190611d22565b610b85565b6040516103959190611eaf565b60405180910390f35b3480156103aa57600080fd5b506103b3610bc2565b6040516103c09190611eaf565b60405180910390f35b3480156103d557600080fd5b506103f060048036038101906103eb9190612013565b610be6565b005b3480156103fe57600080fd5b50610419600480360381019061041491906120e1565b610cb8565b005b34801561042757600080fd5b50610442600480360381019061043d9190611d22565b610ee9565b60405161044f9190612164565b60405180910390f35b600063150b7a0260e01b9050949350505050565b6000806000905060078310156104865760025490506104ad565b600783101580156104975750601e83105b156104a65760035490506104ac565b60045490505b5b80915050919050565b600160009054906101000a900473ffffffffffffffffffffffffffffffffffffffff1681565b600e81815481106104ec57600080fd5b906000526020600020016000915090505481565b600082828101906105119190612242565b905060005b8151811015610555576105428282815181106105355761053461228b565b5b6020026020010151610f13565b808061054d906122e9565b915050610516565b50505050565b60006006600083815260200190815260200160002060009054906101000a900473ffffffffffffffffffffffffffffffffffffffff169050919050565b60008054906101000a900473ffffffffffffffffffffffffffffffffffffffff1673ffffffffffffffffffffffffffffffffffffffff163373ffffffffffffffffffffffffffffffffffffffff1614610626576040517f08c379a000000000000000000000000000000000000000000000000000000000815260040161061d906123b4565b60405180910390fd5b6001600d600083815260200190815260200160002060006101000a81548160ff02191690831515021790555050565b600060606000600e8054905067ffffffffffffffff81111561067a57610679611b1e565b5b6040519080825280602002602001820160405280156106a85781602001602082028036833780820191505090505b5090506000805b600e805490508110156107aa576000600e82815481106106d2576106d161228b565b5b90600052602060002001549050600073ffffffffffffffffffffffffffffffffffffffff166006600083815260200190815260200160002060009054906101000a900473ffffffffffffffffffffffffffffffffffffffff1673ffffffffffffffffffffffffffffffffffffffff1614158015610762575060076000828152602001908152602001600020544210155b15610796578084848151811061077b5761077a61228b565b5b6020026020010181815250508280610792906122e9565b9350505b5080806107a2906122e9565b9150506106af565b5060008167ffffffffffffffff8111156107c7576107c6611b1e565b5b6040519080825280602002602001820160405280156107f55781602001602082028036833780820191505090505b50905060005b82811015610850578381815181106108165761081561228b565b5b60200260200101518282815181106108315761083061228b565b5b6020026020010181815250508080610848906122e9565b9150506107fb565b50600082119450806040516020016108689190612492565b60405160208183030381529060405293505050509250929050565b6000600160009054906101000a900473ffffffffffffffffffffffffffffffffffffffff16905090565b600060076000838152602001908152602001600020549050919050565b6005600084815260200190815260200160002060009054906101000a900460ff1661092a576040517f08c379a000000000000000000000000000000000000000000000000000000000815260040161092190612500565b60405180910390fd5b600073ffffffffffffffffffffffffffffffffffffffff166006600085815260200190815260200160002060009054906101000a900473ffffffffffffffffffffffffffffffffffffffff1673ffffffffffffffffffffffffffffffffffffffff16146109cc576040517f08c379a00000000000000000000000000000000000000000000000000000000081526004016109c39061256c565b60405180910390fd5b81610a3557600a600084815260200190815260200160002054341015610a27576040517f08c379a0000000000000000000000000000000000000000000000000000000008152600401610a1e906125fe565b60405180910390fd5b610a308361123c565b610ae8565b600b600084815260200190815260200160002054341015610a8b576040517f08c379a0000000000000000000000000000000000000000000000000000000008152600401610a82906125fe565b60405180910390fd5b336006600085815260200190815260200160002060006101000a81548173ffffffffffffffffffffffffffffffffffffffff021916908373ffffffffffffffffffffffffffffffffffffffff160217905550610ae783826115a6565b5b505050565b6000600160009054906101000a900473ffffffffffffffffffffffffffffffffffffffff1673ffffffffffffffffffffffffffffffffffffffff166318160ddd6040518163ffffffff1660e01b8152600401602060405180830381865afa158015610b5c573d6000803e3d6000fd5b505050506040513d601f19601f82011682018060405250810190610b809190612633565b905090565b60006009600083815260200190815260200160002060009054906101000a900473ffffffffffffffffffffffffffffffffffffffff169050919050565b60008054906101000a900473ffffffffffffffffffffffffffffffffffffffff1681565b60008054906101000a900473ffffffffffffffffffffffffffffffffffffffff1673ffffffffffffffffffffffffffffffffffffffff163373ffffffffffffffffffffffffffffffffffffffff1614610c74576040517f08c379a0000000000000000000000000000000000000000000000000000000008152600401610c6b906123b4565b60405180910390fd5b80600160006101000a81548173ffffffffffffffffffffffffffffffffffffffff021916908373ffffffffffffffffffffffffffffffffffffffff16021790555050565b60008411610cfb576040517f08c379a0000000000000000000000000000000000000000000000000000000008152600401610cf2906126ac565b60405180910390fd5b60008311610d3e576040517f08c379a0000000000000000000000000000000000000000000000000000000008152600401610d35906126ac565b60405180910390fd5b60008211610d81576040517f08c379a0000000000000000000000000000000000000000000000000000000008152600401610d78906126ac565b60405180910390fd5b600160009054906101000a900473ffffffffffffffffffffffffffffffffffffffff1673ffffffffffffffffffffffffffffffffffffffff1663d204c45e30836040518363ffffffff1660e01b8152600401610dde929190612710565b600060405180830381600087803b158015610df857600080fd5b505af1158015610e0c573d6000803e3d6000fd5b505050506000610e1a610aed565b905060016005600083815260200190815260200160002060006101000a81548160ff021916908315150217905550336009600083815260200190815260200160002060006101000a81548173ffffffffffffffffffffffffffffffffffffffff021916908373ffffffffffffffffffffffffffffffffffffffff16021790555084600b60008381526020019081526020016000208190555083600c60008381526020019081526020016000208190555082600a6000838152602001908152602001600020819055505050505050565b6000600d600083815260200190815260200160002060009054906101000a900460ff169050919050565b600073ffffffffffffffffffffffffffffffffffffffff166006600083815260200190815260200160002060009054906101000a900473ffffffffffffffffffffffffffffffffffffffff1673ffffffffffffffffffffffffffffffffffffffff1603610fb5576040517f08c379a0000000000000000000000000000000000000000000000000000000008152600401610fac9061278c565b60405180910390fd5b6000610fc08261055b565b90506000600860008373ffffffffffffffffffffffffffffffffffffffff1673ffffffffffffffffffffffffffffffffffffffff168152602001908152602001600020600084815260200190815260200160002054905060006110228261046c565b9050600160009054906101000a900473ffffffffffffffffffffffffffffffffffffffff1673ffffffffffffffffffffffffffffffffffffffff16634a3b59a630866040518363ffffffff1660e01b81526004016110819291906127ac565b600060405180830381600087803b15801561109b57600080fd5b505af11580156110af573d6000803e3d6000fd5b5050505060006006600086815260200190815260200160002060006101000a81548173ffffffffffffffffffffffffffffffffffffffff021916908373ffffffffffffffffffffffffffffffffffffffff1602179055506000600760008681526020019081526020016000208190555060005b600e805490508110156111e65784600e82815481106111445761114361228b565b5b9060005260206000200154036111d357600e6001600e8054905061116891906127d5565b815481106111795761117861228b565b5b9060005260206000200154600e82815481106111985761119761228b565b5b9060005260206000200181905550600e8054806111b8576111b7612809565b5b600190038181906000526020600020016000905590556111e6565b80806111de906122e9565b915050611122565b508273ffffffffffffffffffffffffffffffffffffffff16847fb171233e15fd0fbd738719b9c35c56ecc6964e8b9f1b3271be4375dea76497b78360405161122e9190611d5e565b60405180910390a350505050565b6000611246610aed565b90508082111561128b576040517f08c379a000000000000000000000000000000000000000000000000000000000815260040161128290612884565b60405180910390fd5b60011515600d600084815260200190815260200160002060009054906101000a900460ff161515146112f2576040517f08c379a00000000000000000000000000000000000000000000000000000000081526004016112e9906128f0565b60405180910390fd5b600c600083815260200190815260200160002054471015611348576040517f08c379a000000000000000000000000000000000000000000000000000000000815260040161133f9061295c565b60405180910390fd5b60006009600084815260200190815260200160002060009054906101000a900473ffffffffffffffffffffffffffffffffffffffff1690506000600a6000858152602001908152602001600020549050804710156113db576040517f08c379a00000000000000000000000000000000000000000000000000000000081526004016113d2906129ee565b60405180910390fd5b60006005600086815260200190815260200160002060006101000a81548160ff02191690831515021790555060008273ffffffffffffffffffffffffffffffffffffffff168260405161142d90612a65565b60006040518083038185875af1925050503d806000811461146a576040519150601f19603f3d011682016040523d82523d6000602084013e61146f565b606091505b50509050600160009054906101000a900473ffffffffffffffffffffffffffffffffffffffff1673ffffffffffffffffffffffffffffffffffffffff166323b872dd3033886040518463ffffffff1660e01b81526004016114d293929190612a7a565b600060405180830381600087803b1580156114ec57600080fd5b505af1158015611500573d6000803e3d6000fd5b5050505080611544576040517f08c379a000000000000000000000000000000000000000000000000000000000815260040161153b90612afd565b60405180910390fd5b8273ffffffffffffffffffffffffffffffffffffffff163373ffffffffffffffffffffffffffffffffffffffff16867f90740547fe504659050ab00e37233f21d2ccede62364499e2f3ae77ad4b8334360405160405180910390a45050505050565b60006115b0610aed565b9050808311156115f5576040517f08c379a00000000000000000000000000000000000000000000000000000000081526004016115ec90612884565b60405180910390fd5b3373ffffffffffffffffffffffffffffffffffffffff166006600085815260200190815260200160002060009054906101000a900473ffffffffffffffffffffffffffffffffffffffff1673ffffffffffffffffffffffffffffffffffffffff1614611696576040517f08c379a000000000000000000000000000000000000000000000000000000000815260040161168d90612b69565b60405180910390fd5b60011515600d600085815260200190815260200160002060009054906101000a900460ff161515146116fd576040517f08c379a00000000000000000000000000000000000000000000000000000000081526004016116f4906128f0565b60405180910390fd5b600b600084815260200190815260200160002054471015611753576040517f08c379a000000000000000000000000000000000000000000000000000000000815260040161174a9061295c565b60405180910390fd5b60006009600085815260200190815260200160002060009054906101000a900473ffffffffffffffffffffffffffffffffffffffff1690506000600b600086815260200190815260200160002054905060006117ae8561046c565b9050336006600088815260200190815260200160002060006101000a81548173ffffffffffffffffffffffffffffffffffffffff021916908373ffffffffffffffffffffffffffffffffffffffff16021790555062015180856118119190612b89565b4261181c9190612bcb565b600760008881526020019081526020016000208190555084600860003373ffffffffffffffffffffffffffffffffffffffff1673ffffffffffffffffffffffffffffffffffffffff16815260200190815260200160002060008881526020019081526020016000208190555060008373ffffffffffffffffffffffffffffffffffffffff16836040516118ae90612a65565b60006040518083038185875af1925050503d80600081146118eb576040519150601f19603f3d011682016040523d82523d6000602084013e6118f0565b606091505b50509050600160009054906101000a900473ffffffffffffffffffffffffffffffffffffffff1673ffffffffffffffffffffffffffffffffffffffff16631f74034b33896040518363ffffffff1660e01b81526004016119519291906127ac565b600060405180830381600087803b15801561196b57600080fd5b505af115801561197f573d6000803e3d6000fd5b50505050600e879080600181540180825580915050600190039060005260206000200160009091909190915055806119ec576040517f08c379a00000000000000000000000000000000000000000000000000000000081526004016119e390612c4b565b60405180910390fd5b8373ffffffffffffffffffffffffffffffffffffffff163373ffffffffffffffffffffffffffffffffffffffff16887fba1e338576e77d64b4e4efb5379bf64c4fbd5da6e1ab28045f24294bed01af6e85604051611a4a9190611d5e565b60405180910390a450505050505050565b6000604051905090565b600080fd5b600080fd5b600073ffffffffffffffffffffffffffffffffffffffff82169050919050565b6000611a9a82611a6f565b9050919050565b611aaa81611a8f565b8114611ab557600080fd5b50565b600081359050611ac781611aa1565b92915050565b6000819050919050565b611ae081611acd565b8114611aeb57600080fd5b50565b600081359050611afd81611ad7565b92915050565b600080fd5b600080fd5b6000601f19601f8301169050919050565b7f4e487b7100000000000000000000000000000000000000000000000000000000600052604160045260246000fd5b611b5682611b0d565b810181811067ffffffffffffffff82111715611b7557611b74611b1e565b5b80604052505050565b6000611b88611a5b565b9050611b948282611b4d565b919050565b600067ffffffffffffffff821115611bb457611bb3611b1e565b5b611bbd82611b0d565b9050602081019050919050565b82818337600083830152505050565b6000611bec611be784611b99565b611b7e565b905082815260208101848484011115611c0857611c07611b08565b5b611c13848285611bca565b509392505050565b600082601f830112611c3057611c2f611b03565b5b8135611c40848260208601611bd9565b91505092915050565b60008060008060808587031215611c6357611c62611a65565b5b6000611c7187828801611ab8565b9450506020611c8287828801611ab8565b9350506040611c9387828801611aee565b925050606085013567ffffffffffffffff811115611cb457611cb3611a6a565b5b611cc087828801611c1b565b91505092959194509250565b60007fffffffff0000000000000000000000000000000000000000000000000000000082169050919050565b611d0181611ccc565b82525050565b6000602082019050611d1c6000830184611cf8565b92915050565b600060208284031215611d3857611d37611a65565b5b6000611d4684828501611aee565b91505092915050565b611d5881611acd565b82525050565b6000602082019050611d736000830184611d4f565b92915050565b6000819050919050565b6000611d9e611d99611d9484611a6f565b611d79565b611a6f565b9050919050565b6000611db082611d83565b9050919050565b6000611dc282611da5565b9050919050565b611dd281611db7565b82525050565b6000602082019050611ded6000830184611dc9565b92915050565b600080fd5b600080fd5b60008083601f840112611e1357611e12611b03565b5b8235905067ffffffffffffffff811115611e3057611e2f611df3565b5b602083019150836001820283011115611e4c57611e4b611df8565b5b9250929050565b60008060208385031215611e6a57611e69611a65565b5b600083013567ffffffffffffffff811115611e8857611e87611a6a565b5b611e9485828601611dfd565b92509250509250929050565b611ea981611a8f565b82525050565b6000602082019050611ec46000830184611ea0565b92915050565b60008115159050919050565b611edf81611eca565b82525050565b600081519050919050565b600082825260208201905092915050565b60005b83811015611f1f578082015181840152602081019050611f04565b60008484015250505050565b6000611f3682611ee5565b611f408185611ef0565b9350611f50818560208601611f01565b611f5981611b0d565b840191505092915050565b6000604082019050611f796000830185611ed6565b8181036020830152611f8b8184611f2b565b90509392505050565b611f9d81611eca565b8114611fa857600080fd5b50565b600081359050611fba81611f94565b92915050565b600080600060608486031215611fd957611fd8611a65565b5b6000611fe786828701611aee565b9350506020611ff886828701611fab565b925050604061200986828701611aee565b9150509250925092565b60006020828403121561202957612028611a65565b5b600061203784828501611ab8565b91505092915050565b600067ffffffffffffffff82111561205b5761205a611b1e565b5b61206482611b0d565b9050602081019050919050565b600061208461207f84612040565b611b7e565b9050828152602081018484840111156120a05761209f611b08565b5b6120ab848285611bca565b509392505050565b600082601f8301126120c8576120c7611b03565b5b81356120d8848260208601612071565b91505092915050565b600080600080608085870312156120fb576120fa611a65565b5b600061210987828801611aee565b945050602061211a87828801611aee565b935050604061212b87828801611aee565b925050606085013567ffffffffffffffff81111561214c5761214b611a6a565b5b612158878288016120b3565b91505092959194509250565b60006020820190506121796000830184611ed6565b92915050565b600067ffffffffffffffff82111561219a57612199611b1e565b5b602082029050602081019050919050565b60006121be6121b98461217f565b611b7e565b905080838252602082019050602084028301858111156121e1576121e0611df8565b5b835b8181101561220a57806121f68882611aee565b8452602084019350506020810190506121e3565b5050509392505050565b600082601f83011261222957612228611b03565b5b81356122398482602086016121ab565b91505092915050565b60006020828403121561225857612257611a65565b5b600082013567ffffffffffffffff81111561227657612275611a6a565b5b61228284828501612214565b91505092915050565b7f4e487b7100000000000000000000000000000000000000000000000000000000600052603260045260246000fd5b7f4e487b7100000000000000000000000000000000000000000000000000000000600052601160045260246000fd5b60006122f482611acd565b91507fffffffffffffffffffffffffffffffffffffffffffffffffffffffffffffffff8203612326576123256122ba565b5b600182019050919050565b600082825260208201905092915050565b7f4f6e6c7920696e73706563746f722063616e2063616c6c20746869732066756e60008201527f6374696f6e000000000000000000000000000000000000000000000000000000602082015250565b600061239e602583612331565b91506123a982612342565b604082019050919050565b600060208201905081810360008301526123cd81612391565b9050919050565b600081519050919050565b600082825260208201905092915050565b6000819050602082019050919050565b61240981611acd565b82525050565b600061241b8383612400565b60208301905092915050565b6000602082019050919050565b600061243f826123d4565b61244981856123df565b9350612454836123f0565b8060005b8381101561248557815161246c888261240f565b975061247783612427565b925050600181019050612458565b5085935050505092915050565b600060208201905081810360008301526124ac8184612434565b905092915050565b7f50726f706572747920697320616c726561647920736f6c640000000000000000600082015250565b60006124ea601883612331565b91506124f5826124b4565b602082019050919050565b60006020820190508181036000830152612519816124dd565b9050919050565b7f50726f7065727479206973206f6e2052656e7400000000000000000000000000600082015250565b6000612556601383612331565b915061256182612520565b602082019050919050565b6000602082019050818103600083015261258581612549565b9050919050565b7f416d6f756e742073686f756c642062652067726561746572207468616e2f657160008201527f75616c20746f2020657363726f7720616d6f756e740000000000000000000000602082015250565b60006125e8603583612331565b91506125f38261258c565b604082019050919050565b60006020820190508181036000830152612617816125db565b9050919050565b60008151905061262d81611ad7565b92915050565b60006020828403121561264957612648611a65565b5b60006126578482850161261e565b91505092915050565b7f456e746572206120416d6f756e742067726561746572207468616e2030000000600082015250565b6000612696601d83612331565b91506126a182612660565b602082019050919050565b600060208201905081810360008301526126c581612689565b9050919050565b600081519050919050565b60006126e2826126cc565b6126ec8185612331565b93506126fc818560208601611f01565b61270581611b0d565b840191505092915050565b60006040820190506127256000830185611ea0565b818103602083015261273781846126d7565b90509392505050565b7f50726f7065727479206973206e6f74206f6e2072656e74000000000000000000600082015250565b6000612776601783612331565b915061278182612740565b602082019050919050565b600060208201905081810360008301526127a581612769565b9050919050565b60006040820190506127c16000830185611ea0565b6127ce6020830184611d4f565b9392505050565b60006127e082611acd565b91506127eb83611acd565b9250828203905081811115612803576128026122ba565b5b92915050565b7f4e487b7100000000000000000000000000000000000000000000000000000000600052603160045260246000fd5b7f50726f706572747920646f65736e277420657869737473000000000000000000600082015250565b600061286e601783612331565b915061287982612838565b602082019050919050565b6000602082019050818103600083015261289d81612861565b9050919050565b7f496e7370656374696f6e2049736e277420706173736564000000000000000000600082015250565b60006128da601783612331565b91506128e5826128a4565b602082019050919050565b60006020820190508181036000830152612909816128cd565b9050919050565b7f496e73756666696369656e742062616c616e6365000000000000000000000000600082015250565b6000612946601483612331565b915061295182612910565b602082019050919050565b6000602082019050818103600083015261297581612939565b9050919050565b7f496e73756666696369656e742062616c616e636520696e20657363726f77206360008201527f6f6e747261637400000000000000000000000000000000000000000000000000602082015250565b60006129d8602783612331565b91506129e38261297c565b604082019050919050565b60006020820190508181036000830152612a07816129cb565b9050919050565b600081905092915050565b7f416d6f756e74207472616e736665726564000000000000000000000000000000600082015250565b6000612a4f601183612a0e565b9150612a5a82612a19565b601182019050919050565b6000612a7082612a42565b9150819050919050565b6000606082019050612a8f6000830186611ea0565b612a9c6020830185611ea0565b612aa96040830184611d4f565b949350505050565b7f5472616e7366657220746f2073656c6c6572206661696c656400000000000000600082015250565b6000612ae7601983612331565b9150612af282612ab1565b602082019050919050565b60006020820190508181036000830152612b1681612ada565b9050919050565b7f4861766520746f206465706f736974204561726e657374206669727374000000600082015250565b6000612b53601d83612331565b9150612b5e82612b1d565b602082019050919050565b60006020820190508181036000830152612b8281612b46565b9050919050565b6000612b9482611acd565b9150612b9f83611acd565b9250828202612bad81611acd565b91508282048414831517612bc457612bc36122ba565b5b5092915050565b6000612bd682611acd565b9150612be183611acd565b9250828201905080821115612bf957612bf86122ba565b5b92915050565b7f5472616e736665722052656e7420746f206f776e6572206661696c6564000000600082015250565b6000612c35601d83612331565b9150612c4082612bff565b602082019050919050565b60006020820190508181036000830152612c6481612c28565b905091905056fea2646970667358221220bf6ff72927cae909a31f04c9cafb83c4c6ee1010972287fa060e23fc508b176564736f6c63430008140033",
  "linkReferences": {},
  "deployedLinkReferences": {}
}