{
  "_format": "hh-sol-artifact-1",
  "contractName": "PropertyToken",
  "sourceName": "contracts/ERC-721/PropertyToken.sol",
  "abi": [
    {
      "inputs": [
        {
          "internalType": "address",
          "name": "owner",
          "type": "address"
        }
      ],
      "stateMutability": "nonpayable",
      "type": "constructor"
    },
    {
      "inputs": [
        {
          "internalType": "address",
          "name": "sender",
          "type": "address"
        },
        {
          "internalType": "uint256",
          "name": "tokenId",
          "type": "uint256"
        },
        {
          "internalType": "address",
          "name": "owner",
          "type": "address"
        }
      ],
      "name": "ERC721IncorrectOwner",
      "type": "error"
    },
    {
      "inputs": [
        {
          "internalType": "address",
          "name": "operator",
          "type": "address"
        },
        {
          "internalType": "uint256",
          "name": "tokenId",
          "type": "uint256"
        }
      ],
      "name": "ERC721InsufficientApproval",
      "type": "error"
    },
    {
      "inputs": [
        {
          "internalType": "address",
          "name": "approver",
          "type": "address"
        }
      ],
      "name": "ERC721InvalidApprover",
      "type": "error"
    },
    {
      "inputs": [
        {
          "internalType": "address",
          "name": "operator",
          "type": "address"
        }
      ],
      "name": "ERC721InvalidOperator",
      "type": "error"
    },
    {
      "inputs": [
        {
          "internalType": "address",
          "name": "owner",
          "type": "address"
        }
      ],
      "name": "ERC721InvalidOwner",
      "type": "error"
    },
    {
      "inputs": [
        {
          "internalType": "address",
          "name": "receiver",
          "type": "address"
        }
      ],
      "name": "ERC721InvalidReceiver",
      "type": "error"
    },
    {
      "inputs": [
        {
          "internalType": "address",
          "name": "sender",
          "type": "address"
        }
      ],
      "name": "ERC721InvalidSender",
      "type": "error"
    },
    {
      "inputs": [
        {
          "internalType": "uint256",
          "name": "tokenId",
          "type": "uint256"
        }
      ],
      "name": "ERC721NonexistentToken",
      "type": "error"
    },
    {
      "inputs": [
        {
          "internalType": "address",
          "name": "owner",
          "type": "address"
        }
      ],
      "name": "OwnableInvalidOwner",
      "type": "error"
    },
    {
      "inputs": [
        {
          "internalType": "address",
          "name": "account",
          "type": "address"
        }
      ],
      "name": "OwnableUnauthorizedAccount",
      "type": "error"
    },
    {
      "anonymous": false,
      "inputs": [
        {
          "indexed": true,
          "internalType": "address",
          "name": "owner",
          "type": "address"
        },
        {
          "indexed": true,
          "internalType": "address",
          "name": "approved",
          "type": "address"
        },
        {
          "indexed": true,
          "internalType": "uint256",
          "name": "tokenId",
          "type": "uint256"
        }
      ],
      "name": "Approval",
      "type": "event"
    },
    {
      "anonymous": false,
      "inputs": [
        {
          "indexed": true,
          "internalType": "address",
          "name": "owner",
          "type": "address"
        },
        {
          "indexed": true,
          "internalType": "address",
          "name": "operator",
          "type": "address"
        },
        {
          "indexed": false,
          "internalType": "bool",
          "name": "approved",
          "type": "bool"
        }
      ],
      "name": "ApprovalForAll",
      "type": "event"
    },
    {
      "anonymous": false,
      "inputs": [
        {
          "indexed": false,
          "internalType": "uint256",
          "name": "_fromTokenId",
          "type": "uint256"
        },
        {
          "indexed": false,
          "internalType": "uint256",
          "name": "_toTokenId",
          "type": "uint256"
        }
      ],
      "name": "BatchMetadataUpdate",
      "type": "event"
    },
    {
      "anonymous": false,
      "inputs": [
        {
          "indexed": false,
          "internalType": "uint256",
          "name": "_tokenId",
          "type": "uint256"
        }
      ],
      "name": "MetadataUpdate",
      "type": "event"
    },
    {
      "anonymous": false,
      "inputs": [
        {
          "indexed": true,
          "internalType": "address",
          "name": "previousOwner",
          "type": "address"
        },
        {
          "indexed": true,
          "internalType": "address",
          "name": "newOwner",
          "type": "address"
        }
      ],
      "name": "OwnershipTransferred",
      "type": "event"
    },
    {
      "anonymous": false,
      "inputs": [
        {
          "indexed": true,
          "internalType": "address",
          "name": "from",
          "type": "address"
        },
        {
          "indexed": true,
          "internalType": "address",
          "name": "to",
          "type": "address"
        },
        {
          "indexed": true,
          "internalType": "uint256",
          "name": "tokenId",
          "type": "uint256"
        }
      ],
      "name": "Transfer",
      "type": "event"
    },
    {
      "inputs": [
        {
          "internalType": "address",
          "name": "to",
          "type": "address"
        },
        {
          "internalType": "uint256",
          "name": "tokenId",
          "type": "uint256"
        }
      ],
      "name": "approve",
      "outputs": [],
      "stateMutability": "nonpayable",
      "type": "function"
    },
    {
      "inputs": [
        {
          "internalType": "address",
          "name": "owner",
          "type": "address"
        }
      ],
      "name": "balanceOf",
      "outputs": [
        {
          "internalType": "uint256",
          "name": "",
          "type": "uint256"
        }
      ],
      "stateMutability": "view",
      "type": "function"
    },
    {
      "inputs": [
        {
          "internalType": "uint256",
          "name": "tokenId",
          "type": "uint256"
        }
      ],
      "name": "getApproved",
      "outputs": [
        {
          "internalType": "address",
          "name": "",
          "type": "address"
        }
      ],
      "stateMutability": "view",
      "type": "function"
    },
    {
      "inputs": [
        {
          "internalType": "address",
          "name": "to",
          "type": "address"
        },
        {
          "internalType": "uint256",
          "name": "tokenId",
          "type": "uint256"
        }
      ],
      "name": "giveRentBack",
      "outputs": [],
      "stateMutability": "nonpayable",
      "type": "function"
    },
    {
      "inputs": [
        {
          "internalType": "address",
          "name": "to",
          "type": "address"
        },
        {
          "internalType": "uint256",
          "name": "tokenId",
          "type": "uint256"
        }
      ],
      "name": "giveRentTo",
      "outputs": [],
      "stateMutability": "nonpayable",
      "type": "function"
    },
    {
      "inputs": [
        {
          "internalType": "address",
          "name": "owner",
          "type": "address"
        },
        {
          "internalType": "address",
          "name": "operator",
          "type": "address"
        }
      ],
      "name": "isApprovedForAll",
      "outputs": [
        {
          "internalType": "bool",
          "name": "",
          "type": "bool"
        }
      ],
      "stateMutability": "view",
      "type": "function"
    },
    {
      "inputs": [],
      "name": "name",
      "outputs": [
        {
          "internalType": "string",
          "name": "",
          "type": "string"
        }
      ],
      "stateMutability": "view",
      "type": "function"
    },
    {
      "inputs": [],
      "name": "owner",
      "outputs": [
        {
          "internalType": "address",
          "name": "",
          "type": "address"
        }
      ],
      "stateMutability": "view",
      "type": "function"
    },
    {
      "inputs": [
        {
          "internalType": "uint256",
          "name": "tokenId",
          "type": "uint256"
        }
      ],
      "name": "ownerOf",
      "outputs": [
        {
          "internalType": "address",
          "name": "",
          "type": "address"
        }
      ],
      "stateMutability": "view",
      "type": "function"
    },
    {
      "inputs": [],
      "name": "renounceOwnership",
      "outputs": [],
      "stateMutability": "nonpayable",
      "type": "function"
    },
    {
      "inputs": [
        {
          "internalType": "address",
          "name": "to",
          "type": "address"
        },
        {
          "internalType": "string",
          "name": "uri",
          "type": "string"
        }
      ],
      "name": "safeMint",
      "outputs": [],
      "stateMutability": "nonpayable",
      "type": "function"
    },
    {
      "inputs": [
        {
          "internalType": "address",
          "name": "from",
          "type": "address"
        },
        {
          "internalType": "address",
          "name": "to",
          "type": "address"
        },
        {
          "internalType": "uint256",
          "name": "tokenId",
          "type": "uint256"
        }
      ],
      "name": "safeTransferFrom",
      "outputs": [],
      "stateMutability": "nonpayable",
      "type": "function"
    },
    {
      "inputs": [
        {
          "internalType": "address",
          "name": "from",
          "type": "address"
        },
        {
          "internalType": "address",
          "name": "to",
          "type": "address"
        },
        {
          "internalType": "uint256",
          "name": "tokenId",
          "type": "uint256"
        },
        {
          "internalType": "bytes",
          "name": "data",
          "type": "bytes"
        }
      ],
      "name": "safeTransferFrom",
      "outputs": [],
      "stateMutability": "nonpayable",
      "type": "function"
    },
    {
      "inputs": [
        {
          "internalType": "address",
          "name": "operator",
          "type": "address"
        },
        {
          "internalType": "bool",
          "name": "approved",
          "type": "bool"
        }
      ],
      "name": "setApprovalForAll",
      "outputs": [],
      "stateMutability": "nonpayable",
      "type": "function"
    },
    {
      "inputs": [
        {
          "internalType": "bytes4",
          "name": "interfaceId",
          "type": "bytes4"
        }
      ],
      "name": "supportsInterface",
      "outputs": [
        {
          "internalType": "bool",
          "name": "",
          "type": "bool"
        }
      ],
      "stateMutability": "view",
      "type": "function"
    },
    {
      "inputs": [],
      "name": "symbol",
      "outputs": [
        {
          "internalType": "string",
          "name": "",
          "type": "string"
        }
      ],
      "stateMutability": "view",
      "type": "function"
    },
    {
      "inputs": [
        {
          "internalType": "uint256",
          "name": "tokenId",
          "type": "uint256"
        }
      ],
      "name": "tokenURI",
      "outputs": [
        {
          "internalType": "string",
          "name": "",
          "type": "string"
        }
      ],
      "stateMutability": "view",
      "type": "function"
    },
    {
      "inputs": [],
      "name": "totalSupply",
      "outputs": [
        {
          "internalType": "uint256",
          "name": "",
          "type": "uint256"
        }
      ],
      "stateMutability": "view",
      "type": "function"
    },
    {
      "inputs": [
        {
          "internalType": "address",
          "name": "from",
          "type": "address"
        },
        {
          "internalType": "address",
          "name": "to",
          "type": "address"
        },
        {
          "internalType": "uint256",
          "name": "tokenId",
          "type": "uint256"
        }
      ],
      "name": "transferFrom",
      "outputs": [],
      "stateMutability": "nonpayable",
      "type": "function"
    },
    {
      "inputs": [
        {
          "internalType": "address",
          "name": "to",
          "type": "address"
        },
        {
          "internalType": "uint256",
          "name": "tokenId",
          "type": "uint256"
        }
      ],
      "name": "transferFromOwner",
      "outputs": [],
      "stateMutability": "nonpayable",
      "type": "function"
    },
    {
      "inputs": [
        {
          "internalType": "address",
          "name": "newOwner",
          "type": "address"
        }
      ],
      "name": "transferOwnership",
      "outputs": [],
      "stateMutability": "nonpayable",
      "type": "function"
    },
    {
      "inputs": [
        {
          "internalType": "address",
          "name": "to",
          "type": "address"
        },
        {
          "internalType": "uint256",
          "name": "tokenId",
          "type": "uint256"
        }
      ],
      "name": "transferToOwner",
      "outputs": [],
      "stateMutability": "nonpayable",
      "type": "function"
    }
  ],
  "bytecode": "0x60806040523480156200001157600080fd5b5060405162003277380380620032778339818101604052810190620000379190620002cb565b806040518060400160405280600d81526020017f50726f7065727479546f6b656e000000000000000000000000000000000000008152506040518060400160405280600381526020017f50544b0000000000000000000000000000000000000000000000000000000000815250838260009081620000b6919062000577565b508160019081620000c8919062000577565b5080600260006101000a81548173ffffffffffffffffffffffffffffffffffffffff021916908373ffffffffffffffffffffffffffffffffffffffff160217905550505050600073ffffffffffffffffffffffffffffffffffffffff168173ffffffffffffffffffffffffffffffffffffffff1603620001825760006040517f1e4fbdf70000000000000000000000000000000000000000000000000000000081526004016200017991906200066f565b60405180910390fd5b62000193816200019b60201b60201c565b50506200068c565b6000600960009054906101000a900473ffffffffffffffffffffffffffffffffffffffff16905081600960006101000a81548173ffffffffffffffffffffffffffffffffffffffff021916908373ffffffffffffffffffffffffffffffffffffffff1602179055508173ffffffffffffffffffffffffffffffffffffffff168173ffffffffffffffffffffffffffffffffffffffff167f8be0079c531659141344cd1fd0a4f28419497f9722a3daafe3b4186f6b6457e060405160405180910390a35050565b600080fd5b600073ffffffffffffffffffffffffffffffffffffffff82169050919050565b6000620002938262000266565b9050919050565b620002a58162000286565b8114620002b157600080fd5b50565b600081519050620002c5816200029a565b92915050565b600060208284031215620002e457620002e362000261565b5b6000620002f484828501620002b4565b91505092915050565b600081519050919050565b7f4e487b7100000000000000000000000000000000000000000000000000000000600052604160045260246000fd5b7f4e487b7100000000000000000000000000000000000000000000000000000000600052602260045260246000fd5b600060028204905060018216806200037f57607f821691505b60208210810362000395576200039462000337565b5b50919050565b60008190508160005260206000209050919050565b60006020601f8301049050919050565b600082821b905092915050565b600060088302620003ff7fffffffffffffffffffffffffffffffffffffffffffffffffffffffffffffffff82620003c0565b6200040b8683620003c0565b95508019841693508086168417925050509392505050565b6000819050919050565b6000819050919050565b600062000458620004526200044c8462000423565b6200042d565b62000423565b9050919050565b6000819050919050565b620004748362000437565b6200048c62000483826200045f565b848454620003cd565b825550505050565b600090565b620004a362000494565b620004b081848462000469565b505050565b5b81811015620004d857620004cc60008262000499565b600181019050620004b6565b5050565b601f8211156200052757620004f1816200039b565b620004fc84620003b0565b810160208510156200050c578190505b620005246200051b85620003b0565b830182620004b5565b50505b505050565b600082821c905092915050565b60006200054c600019846008026200052c565b1980831691505092915050565b600062000567838362000539565b9150826002028217905092915050565b6200058282620002fd565b67ffffffffffffffff8111156200059e576200059d62000308565b5b620005aa825462000366565b620005b7828285620004dc565b600060209050601f831160018114620005ef5760008415620005da578287015190505b620005e6858262000559565b86555062000656565b601f198416620005ff866200039b565b60005b82811015620006295784890151825560018201915060208501945060208101905062000602565b8683101562000649578489015162000645601f89168262000539565b8355505b6001600288020188555050505b505050505050565b620006698162000286565b82525050565b60006020820190506200068660008301846200065e565b92915050565b612bdb806200069c6000396000f3fe608060405234801561001057600080fd5b50600436106101425760003560e01c806370a08231116100b8578063a22cb4651161007c578063a22cb4651461034d578063b88d4fde14610369578063c87b56dd14610385578063d204c45e146103b5578063e985e9c5146103d1578063f2fde38b1461040157610142565b806370a08231146102bb578063715018a6146102eb5780638568523a146102f55780638da5cb5b1461031157806395d89b411461032f57610142565b806318160ddd1161010a57806318160ddd146101fd5780631f74034b1461021b57806323b872dd1461023757806342842e0e146102535780634a3b59a61461026f5780636352211e1461028b57610142565b806301ffc9a71461014757806306fdde0314610177578063081812fc14610195578063095ea7b3146101c55780630f18ac07146101e1575b600080fd5b610161600480360381019061015c9190611fa1565b61041d565b60405161016e9190611fe9565b60405180910390f35b61017f61042f565b60405161018c9190612094565b60405180910390f35b6101af60048036038101906101aa91906120ec565b6104c1565b6040516101bc919061215a565b60405180910390f35b6101df60048036038101906101da91906121a1565b6104dd565b005b6101fb60048036038101906101f691906121a1565b6104f3565b005b610205610603565b60405161021291906121f0565b60405180910390f35b610235600480360381019061023091906121a1565b61060d565b005b610251600480360381019061024c919061220b565b610623565b005b61026d6004803603810190610268919061220b565b610725565b005b610289600480360381019061028491906121a1565b610745565b005b6102a560048036038101906102a091906120ec565b61075b565b6040516102b2919061215a565b60405180910390f35b6102d560048036038101906102d0919061225e565b61076d565b6040516102e291906121f0565b60405180910390f35b6102f3610827565b005b61030f600480360381019061030a91906121a1565b61083b565b005b61031961094b565b604051610326919061215a565b60405180910390f35b610337610975565b6040516103449190612094565b60405180910390f35b610367600480360381019061036291906122b7565b610a07565b005b610383600480360381019061037e919061242c565b610a1d565b005b61039f600480360381019061039a91906120ec565b610a3a565b6040516103ac9190612094565b60405180910390f35b6103cf60048036038101906103ca9190612550565b610a4c565b005b6103eb60048036038101906103e691906125ac565b610a86565b6040516103f89190611fe9565b60405180910390f35b61041b6004803603810190610416919061225e565b610b1a565b005b600061042882610ba0565b9050919050565b60606000805461043e9061261b565b80601f016020809104026020016040519081016040528092919081815260200182805461046a9061261b565b80156104b75780601f1061048c576101008083540402835291602001916104b7565b820191906000526020600020905b81548152906001019060200180831161049a57829003601f168201915b5050505050905090565b60006104cc82610c01565b506104d682610c89565b9050919050565b6104ef82826104ea610cc6565b610cce565b5050565b600260009054906101000a900473ffffffffffffffffffffffffffffffffffffffff1673ffffffffffffffffffffffffffffffffffffffff163373ffffffffffffffffffffffffffffffffffffffff1614610583576040517f08c379a000000000000000000000000000000000000000000000000000000000815260040161057a906126be565b60405180910390fd5b600073ffffffffffffffffffffffffffffffffffffffff168273ffffffffffffffffffffffffffffffffffffffff16036105f55760006040517f64a0ae920000000000000000000000000000000000000000000000000000000081526004016105ec919061215a565b60405180910390fd5b6105ff8282610ce0565b5050565b6000600a54905090565b610615610db9565b61061f82826104f3565b5050565b600073ffffffffffffffffffffffffffffffffffffffff168273ffffffffffffffffffffffffffffffffffffffff16036106955760006040517f64a0ae9200000000000000000000000000000000000000000000000000000000815260040161068c919061215a565b60405180910390fd5b60006106a983836106a4610cc6565b610e40565b90508373ffffffffffffffffffffffffffffffffffffffff168173ffffffffffffffffffffffffffffffffffffffff161461071f578382826040517f64283d7b000000000000000000000000000000000000000000000000000000008152600401610716939291906126de565b60405180910390fd5b50505050565b61074083838360405180602001604052806000815250610a1d565b505050565b61074d610db9565b610757828261083b565b5050565b600061076682610c01565b9050919050565b60008073ffffffffffffffffffffffffffffffffffffffff168273ffffffffffffffffffffffffffffffffffffffff16036107e05760006040517f89c62b640000000000000000000000000000000000000000000000000000000081526004016107d7919061215a565b60405180910390fd5b600560008373ffffffffffffffffffffffffffffffffffffffff1673ffffffffffffffffffffffffffffffffffffffff168152602001908152602001600020549050919050565b61082f610db9565b610839600061105a565b565b600260009054906101000a900473ffffffffffffffffffffffffffffffffffffffff1673ffffffffffffffffffffffffffffffffffffffff163373ffffffffffffffffffffffffffffffffffffffff16146108cb576040517f08c379a00000000000000000000000000000000000000000000000000000000081526004016108c2906126be565b60405180910390fd5b600073ffffffffffffffffffffffffffffffffffffffff168273ffffffffffffffffffffffffffffffffffffffff160361093d5760006040517f64a0ae92000000000000000000000000000000000000000000000000000000008152600401610934919061215a565b60405180910390fd5b6109478282611120565b5050565b6000600960009054906101000a900473ffffffffffffffffffffffffffffffffffffffff16905090565b6060600180546109849061261b565b80601f01602080910402602001604051908101604052809291908181526020018280546109b09061261b565b80156109fd5780601f106109d2576101008083540402835291602001916109fd565b820191906000526020600020905b8154815290600101906020018083116109e057829003601f168201915b5050505050905090565b610a19610a12610cc6565b83836111f9565b5050565b610a28848484610623565b610a3484848484611368565b50505050565b6060610a458261151f565b9050919050565b610a54610db9565b6000600a60008154610a6590612744565b9190508190559050610a778382611632565b610a818183611650565b505050565b6000600760008473ffffffffffffffffffffffffffffffffffffffff1673ffffffffffffffffffffffffffffffffffffffff16815260200190815260200160002060008373ffffffffffffffffffffffffffffffffffffffff1673ffffffffffffffffffffffffffffffffffffffff16815260200190815260200160002060009054906101000a900460ff16905092915050565b610b22610db9565b600073ffffffffffffffffffffffffffffffffffffffff168173ffffffffffffffffffffffffffffffffffffffff1603610b945760006040517f1e4fbdf7000000000000000000000000000000000000000000000000000000008152600401610b8b919061215a565b60405180910390fd5b610b9d8161105a565b50565b6000634906490660e01b7bffffffffffffffffffffffffffffffffffffffffffffffffffffffff1916827bffffffffffffffffffffffffffffffffffffffffffffffffffffffff19161480610bfa5750610bf9826116ac565b5b9050919050565b600080610c0d8361178e565b9050600073ffffffffffffffffffffffffffffffffffffffff168173ffffffffffffffffffffffffffffffffffffffff1603610c8057826040517f7e273289000000000000000000000000000000000000000000000000000000008152600401610c7791906121f0565b60405180910390fd5b80915050919050565b60006006600083815260200190815260200160002060009054906101000a900473ffffffffffffffffffffffffffffffffffffffff169050919050565b600033905090565b610cdb83838360016117cb565b505050565b600073ffffffffffffffffffffffffffffffffffffffff168273ffffffffffffffffffffffffffffffffffffffff1614610d63576001600560008473ffffffffffffffffffffffffffffffffffffffff1673ffffffffffffffffffffffffffffffffffffffff168152602001908152602001600020600082825401925050819055505b816004600083815260200190815260200160002060006101000a81548173ffffffffffffffffffffffffffffffffffffffff021916908373ffffffffffffffffffffffffffffffffffffffff1602179055505050565b610dc1610cc6565b73ffffffffffffffffffffffffffffffffffffffff16610ddf61094b565b73ffffffffffffffffffffffffffffffffffffffff1614610e3e57610e02610cc6565b6040517f118cdaa7000000000000000000000000000000000000000000000000000000008152600401610e35919061215a565b60405180910390fd5b565b600080610e4c8461178e565b9050600073ffffffffffffffffffffffffffffffffffffffff168373ffffffffffffffffffffffffffffffffffffffff1614610e8e57610e8d818486611990565b5b600073ffffffffffffffffffffffffffffffffffffffff168173ffffffffffffffffffffffffffffffffffffffff1614610f1f57610ed06000856000806117cb565b6001600560008373ffffffffffffffffffffffffffffffffffffffff1673ffffffffffffffffffffffffffffffffffffffff168152602001908152602001600020600082825403925050819055505b600073ffffffffffffffffffffffffffffffffffffffff168573ffffffffffffffffffffffffffffffffffffffff1614610fa2576001600560008773ffffffffffffffffffffffffffffffffffffffff1673ffffffffffffffffffffffffffffffffffffffff168152602001908152602001600020600082825401925050819055505b846004600086815260200190815260200160002060006101000a81548173ffffffffffffffffffffffffffffffffffffffff021916908373ffffffffffffffffffffffffffffffffffffffff160217905550838573ffffffffffffffffffffffffffffffffffffffff168273ffffffffffffffffffffffffffffffffffffffff167fddf252ad1be2c89b69c2b068fc378daa952ba7f163c4a11628f55a4df523b3ef60405160405180910390a4809150509392505050565b6000600960009054906101000a900473ffffffffffffffffffffffffffffffffffffffff16905081600960006101000a81548173ffffffffffffffffffffffffffffffffffffffff021916908373ffffffffffffffffffffffffffffffffffffffff1602179055508173ffffffffffffffffffffffffffffffffffffffff168173ffffffffffffffffffffffffffffffffffffffff167f8be0079c531659141344cd1fd0a4f28419497f9722a3daafe3b4186f6b6457e060405160405180910390a35050565b600073ffffffffffffffffffffffffffffffffffffffff168273ffffffffffffffffffffffffffffffffffffffff16146111a3576001600560008473ffffffffffffffffffffffffffffffffffffffff1673ffffffffffffffffffffffffffffffffffffffff168152602001908152602001600020600082825401925050819055505b816004600083815260200190815260200160002060006101000a81548173ffffffffffffffffffffffffffffffffffffffff021916908373ffffffffffffffffffffffffffffffffffffffff1602179055505050565b600073ffffffffffffffffffffffffffffffffffffffff168273ffffffffffffffffffffffffffffffffffffffff160361126a57816040517f5b08ba18000000000000000000000000000000000000000000000000000000008152600401611261919061215a565b60405180910390fd5b80600760008573ffffffffffffffffffffffffffffffffffffffff1673ffffffffffffffffffffffffffffffffffffffff16815260200190815260200160002060008473ffffffffffffffffffffffffffffffffffffffff1673ffffffffffffffffffffffffffffffffffffffff16815260200190815260200160002060006101000a81548160ff0219169083151502179055508173ffffffffffffffffffffffffffffffffffffffff168373ffffffffffffffffffffffffffffffffffffffff167f17307eab39ab6107e8899845ad3d59bd9653f200f220920489ca2b5937696c318360405161135b9190611fe9565b60405180910390a3505050565b60008373ffffffffffffffffffffffffffffffffffffffff163b1115611519578273ffffffffffffffffffffffffffffffffffffffff1663150b7a026113ac610cc6565b8685856040518563ffffffff1660e01b81526004016113ce94939291906127e1565b6020604051808303816000875af192505050801561140a57506040513d601f19601f820116820180604052508101906114079190612842565b60015b61148e573d806000811461143a576040519150601f19603f3d011682016040523d82523d6000602084013e61143f565b606091505b50600081510361148657836040517f64a0ae9200000000000000000000000000000000000000000000000000000000815260040161147d919061215a565b60405180910390fd5b805181602001fd5b63150b7a0260e01b7bffffffffffffffffffffffffffffffffffffffffffffffffffffffff1916817bffffffffffffffffffffffffffffffffffffffffffffffffffffffff19161461151757836040517f64a0ae9200000000000000000000000000000000000000000000000000000000815260040161150e919061215a565b60405180910390fd5b505b50505050565b606061152a82610c01565b50600060086000848152602001908152602001600020805461154b9061261b565b80601f01602080910402602001604051908101604052809291908181526020018280546115779061261b565b80156115c45780601f10611599576101008083540402835291602001916115c4565b820191906000526020600020905b8154815290600101906020018083116115a757829003601f168201915b5050505050905060006115d5611a54565b905060008151036115ea57819250505061162d565b60008251111561161f5780826040516020016116079291906128ab565b6040516020818303038152906040529250505061162d565b61162884611a6b565b925050505b919050565b61164c828260405180602001604052806000815250611ad4565b5050565b806008600084815260200190815260200160002090816116709190612a7b565b507ff8e1a15aba9398e019f0b49df1a4fde98ee17ae345cb5f6b5e2c27f5033e8ce7826040516116a091906121f0565b60405180910390a15050565b60007f80ac58cd000000000000000000000000000000000000000000000000000000007bffffffffffffffffffffffffffffffffffffffffffffffffffffffff1916827bffffffffffffffffffffffffffffffffffffffffffffffffffffffff1916148061177757507f5b5e139f000000000000000000000000000000000000000000000000000000007bffffffffffffffffffffffffffffffffffffffffffffffffffffffff1916827bffffffffffffffffffffffffffffffffffffffffffffffffffffffff1916145b80611787575061178682611af0565b5b9050919050565b60006004600083815260200190815260200160002060009054906101000a900473ffffffffffffffffffffffffffffffffffffffff169050919050565b80806118045750600073ffffffffffffffffffffffffffffffffffffffff168273ffffffffffffffffffffffffffffffffffffffff1614155b1561193857600061181484610c01565b9050600073ffffffffffffffffffffffffffffffffffffffff168373ffffffffffffffffffffffffffffffffffffffff161415801561187f57508273ffffffffffffffffffffffffffffffffffffffff168173ffffffffffffffffffffffffffffffffffffffff1614155b801561189257506118908184610a86565b155b156118d457826040517fa9fbf51f0000000000000000000000000000000000000000000000000000000081526004016118cb919061215a565b60405180910390fd5b811561193657838573ffffffffffffffffffffffffffffffffffffffff168273ffffffffffffffffffffffffffffffffffffffff167f8c5be1e5ebec7d5bd14f71427d1e84f3dd0314c0f7b2291e5b200ac8c7c3b92560405160405180910390a45b505b836006600085815260200190815260200160002060006101000a81548173ffffffffffffffffffffffffffffffffffffffff021916908373ffffffffffffffffffffffffffffffffffffffff16021790555050505050565b61199b838383611b5a565b611a4f57600073ffffffffffffffffffffffffffffffffffffffff168373ffffffffffffffffffffffffffffffffffffffff1603611a1057806040517f7e273289000000000000000000000000000000000000000000000000000000008152600401611a0791906121f0565b60405180910390fd5b81816040517f177e802f000000000000000000000000000000000000000000000000000000008152600401611a46929190612b4d565b60405180910390fd5b505050565b606060405180602001604052806000815250905090565b6060611a7682610c01565b506000611a81611a54565b90506000815111611aa15760405180602001604052806000815250611acc565b80611aab84611c1b565b604051602001611abc9291906128ab565b6040516020818303038152906040525b915050919050565b611ade8383611ce9565b611aeb6000848484611368565b505050565b60007f01ffc9a7000000000000000000000000000000000000000000000000000000007bffffffffffffffffffffffffffffffffffffffffffffffffffffffff1916827bffffffffffffffffffffffffffffffffffffffffffffffffffffffff1916149050919050565b60008073ffffffffffffffffffffffffffffffffffffffff168373ffffffffffffffffffffffffffffffffffffffff1614158015611c1257508273ffffffffffffffffffffffffffffffffffffffff168473ffffffffffffffffffffffffffffffffffffffff161480611bd35750611bd28484610a86565b5b80611c1157508273ffffffffffffffffffffffffffffffffffffffff16611bf983610c89565b73ffffffffffffffffffffffffffffffffffffffff16145b5b90509392505050565b606060006001611c2a84611de2565b01905060008167ffffffffffffffff811115611c4957611c48612301565b5b6040519080825280601f01601f191660200182016040528015611c7b5781602001600182028036833780820191505090505b509050600082602001820190505b600115611cde578080600190039150507f3031323334353637383961626364656600000000000000000000000000000000600a86061a8153600a8581611cd257611cd1612b76565b5b04945060008503611c89575b819350505050919050565b600073ffffffffffffffffffffffffffffffffffffffff168273ffffffffffffffffffffffffffffffffffffffff1603611d5b5760006040517f64a0ae92000000000000000000000000000000000000000000000000000000008152600401611d52919061215a565b60405180910390fd5b6000611d6983836000610e40565b9050600073ffffffffffffffffffffffffffffffffffffffff168173ffffffffffffffffffffffffffffffffffffffff1614611ddd5760006040517f73c6ac6e000000000000000000000000000000000000000000000000000000008152600401611dd4919061215a565b60405180910390fd5b505050565b600080600090507a184f03e93ff9f4daa797ed6e38ed64bf6a1f0100000000000000008310611e40577a184f03e93ff9f4daa797ed6e38ed64bf6a1f0100000000000000008381611e3657611e35612b76565b5b0492506040810190505b6d04ee2d6d415b85acef81000000008310611e7d576d04ee2d6d415b85acef81000000008381611e7357611e72612b76565b5b0492506020810190505b662386f26fc100008310611eac57662386f26fc100008381611ea257611ea1612b76565b5b0492506010810190505b6305f5e1008310611ed5576305f5e1008381611ecb57611eca612b76565b5b0492506008810190505b6127108310611efa576127108381611ef057611eef612b76565b5b0492506004810190505b60648310611f1d5760648381611f1357611f12612b76565b5b0492506002810190505b600a8310611f2c576001810190505b80915050919050565b6000604051905090565b600080fd5b600080fd5b60007fffffffff0000000000000000000000000000000000000000000000000000000082169050919050565b611f7e81611f49565b8114611f8957600080fd5b50565b600081359050611f9b81611f75565b92915050565b600060208284031215611fb757611fb6611f3f565b5b6000611fc584828501611f8c565b91505092915050565b60008115159050919050565b611fe381611fce565b82525050565b6000602082019050611ffe6000830184611fda565b92915050565b600081519050919050565b600082825260208201905092915050565b60005b8381101561203e578082015181840152602081019050612023565b60008484015250505050565b6000601f19601f8301169050919050565b600061206682612004565b612070818561200f565b9350612080818560208601612020565b6120898161204a565b840191505092915050565b600060208201905081810360008301526120ae818461205b565b905092915050565b6000819050919050565b6120c9816120b6565b81146120d457600080fd5b50565b6000813590506120e6816120c0565b92915050565b60006020828403121561210257612101611f3f565b5b6000612110848285016120d7565b91505092915050565b600073ffffffffffffffffffffffffffffffffffffffff82169050919050565b600061214482612119565b9050919050565b61215481612139565b82525050565b600060208201905061216f600083018461214b565b92915050565b61217e81612139565b811461218957600080fd5b50565b60008135905061219b81612175565b92915050565b600080604083850312156121b8576121b7611f3f565b5b60006121c68582860161218c565b92505060206121d7858286016120d7565b9150509250929050565b6121ea816120b6565b82525050565b600060208201905061220560008301846121e1565b92915050565b60008060006060848603121561222457612223611f3f565b5b60006122328682870161218c565b93505060206122438682870161218c565b9250506040612254868287016120d7565b9150509250925092565b60006020828403121561227457612273611f3f565b5b60006122828482850161218c565b91505092915050565b61229481611fce565b811461229f57600080fd5b50565b6000813590506122b18161228b565b92915050565b600080604083850312156122ce576122cd611f3f565b5b60006122dc8582860161218c565b92505060206122ed858286016122a2565b9150509250929050565b600080fd5b600080fd5b7f4e487b7100000000000000000000000000000000000000000000000000000000600052604160045260246000fd5b6123398261204a565b810181811067ffffffffffffffff8211171561235857612357612301565b5b80604052505050565b600061236b611f35565b90506123778282612330565b919050565b600067ffffffffffffffff82111561239757612396612301565b5b6123a08261204a565b9050602081019050919050565b82818337600083830152505050565b60006123cf6123ca8461237c565b612361565b9050828152602081018484840111156123eb576123ea6122fc565b5b6123f68482856123ad565b509392505050565b600082601f830112612413576124126122f7565b5b81356124238482602086016123bc565b91505092915050565b6000806000806080858703121561244657612445611f3f565b5b60006124548782880161218c565b94505060206124658782880161218c565b9350506040612476878288016120d7565b925050606085013567ffffffffffffffff81111561249757612496611f44565b5b6124a3878288016123fe565b91505092959194509250565b600067ffffffffffffffff8211156124ca576124c9612301565b5b6124d38261204a565b9050602081019050919050565b60006124f36124ee846124af565b612361565b90508281526020810184848401111561250f5761250e6122fc565b5b61251a8482856123ad565b509392505050565b600082601f830112612537576125366122f7565b5b81356125478482602086016124e0565b91505092915050565b6000806040838503121561256757612566611f3f565b5b60006125758582860161218c565b925050602083013567ffffffffffffffff81111561259657612595611f44565b5b6125a285828601612522565b9150509250929050565b600080604083850312156125c3576125c2611f3f565b5b60006125d18582860161218c565b92505060206125e28582860161218c565b9150509250929050565b7f4e487b7100000000000000000000000000000000000000000000000000000000600052602260045260246000fd5b6000600282049050600182168061263357607f821691505b602082108103612646576126456125ec565b5b50919050565b7f4f6e6c79206f776e65722063616e2063616c6c20746869732066756e6374696f60008201527f6e00000000000000000000000000000000000000000000000000000000000000602082015250565b60006126a860218361200f565b91506126b38261264c565b604082019050919050565b600060208201905081810360008301526126d78161269b565b9050919050565b60006060820190506126f3600083018661214b565b61270060208301856121e1565b61270d604083018461214b565b949350505050565b7f4e487b7100000000000000000000000000000000000000000000000000000000600052601160045260246000fd5b600061274f826120b6565b91507fffffffffffffffffffffffffffffffffffffffffffffffffffffffffffffffff820361278157612780612715565b5b600182019050919050565b600081519050919050565b600082825260208201905092915050565b60006127b38261278c565b6127bd8185612797565b93506127cd818560208601612020565b6127d68161204a565b840191505092915050565b60006080820190506127f6600083018761214b565b612803602083018661214b565b61281060408301856121e1565b818103606083015261282281846127a8565b905095945050505050565b60008151905061283c81611f75565b92915050565b60006020828403121561285857612857611f3f565b5b60006128668482850161282d565b91505092915050565b600081905092915050565b600061288582612004565b61288f818561286f565b935061289f818560208601612020565b80840191505092915050565b60006128b7828561287a565b91506128c3828461287a565b91508190509392505050565b60008190508160005260206000209050919050565b60006020601f8301049050919050565b600082821b905092915050565b6000600883026129317fffffffffffffffffffffffffffffffffffffffffffffffffffffffffffffffff826128f4565b61293b86836128f4565b95508019841693508086168417925050509392505050565b6000819050919050565b600061297861297361296e846120b6565b612953565b6120b6565b9050919050565b6000819050919050565b6129928361295d565b6129a661299e8261297f565b848454612901565b825550505050565b600090565b6129bb6129ae565b6129c6818484612989565b505050565b5b818110156129ea576129df6000826129b3565b6001810190506129cc565b5050565b601f821115612a2f57612a00816128cf565b612a09846128e4565b81016020851015612a18578190505b612a2c612a24856128e4565b8301826129cb565b50505b505050565b600082821c905092915050565b6000612a5260001984600802612a34565b1980831691505092915050565b6000612a6b8383612a41565b9150826002028217905092915050565b612a8482612004565b67ffffffffffffffff811115612a9d57612a9c612301565b5b612aa7825461261b565b612ab28282856129ee565b600060209050601f831160018114612ae55760008415612ad3578287015190505b612add8582612a5f565b865550612b45565b601f198416612af3866128cf565b60005b82811015612b1b57848901518255600182019150602085019450602081019050612af6565b86831015612b385784890151612b34601f891682612a41565b8355505b6001600288020188555050505b505050505050565b6000604082019050612b62600083018561214b565b612b6f60208301846121e1565b9392505050565b7f4e487b7100000000000000000000000000000000000000000000000000000000600052601260045260246000fdfea2646970667358221220d7aea3a0975bb12fa23b3ae9b801bd59dd0093ca7d452065db342a2b830ac61664736f6c63430008140033",
  "linkReferences": {},
  "deployedLinkReferences": {}
}