{
  "_format": "hh-sol-artifact-1",
  "contractName": "Escrow",
  "sourceName": "contracts/Escrow.sol",
  "abi": [
    {
      "inputs": [
        {
          "internalType": "address",
          "name": "_inspector",
          "type": "address"
        }
      ],
      "stateMutability": "nonpayable",
      "type": "constructor"
    },
    {
      "anonymous": false,
      "inputs": [
        {
          "indexed": true,
          "internalType": "uint256",
          "name": "nftId",
          "type": "uint256"
        },
        {
          "indexed": true,
          "internalType": "address",
          "name": "buyer",
          "type": "address"
        },
        {
          "indexed": true,
          "internalType": "address",
          "name": "seller",
          "type": "address"
        }
      ],
      "name": "PurchaisedPropertySuccess",
      "type": "event"
    },
    {
      "anonymous": false,
      "inputs": [
        {
          "indexed": true,
          "internalType": "uint256",
          "name": "nftId",
          "type": "uint256"
        },
        {
          "indexed": true,
          "internalType": "address",
          "name": "tenant",
          "type": "address"
        },
        {
          "indexed": true,
          "internalType": "address",
          "name": "owner",
          "type": "address"
        },
        {
          "indexed": false,
          "internalType": "uint256",
          "name": "rent",
          "type": "uint256"
        }
      ],
      "name": "RentedPropertySuccess",
      "type": "event"
    },
    {
      "anonymous": false,
      "inputs": [
        {
          "indexed": true,
          "internalType": "uint256",
          "name": "nftId",
          "type": "uint256"
        },
        {
          "indexed": true,
          "internalType": "address",
          "name": "tenant",
          "type": "address"
        },
        {
          "indexed": false,
          "internalType": "uint256",
          "name": "rentPaid",
          "type": "uint256"
        }
      ],
      "name": "returnRentedProperty",
      "type": "event"
    },
    {
      "inputs": [],
      "name": "PTKaddress",
      "outputs": [
        {
          "internalType": "address",
          "name": "",
          "type": "address"
        }
      ],
      "stateMutability": "view",
      "type": "function"
    },
    {
      "inputs": [],
      "name": "PTKcontract",
      "outputs": [
        {
          "internalType": "contract PropertyToken",
          "name": "",
          "type": "address"
        }
      ],
      "stateMutability": "view",
      "type": "function"
    },
    {
      "inputs": [
        {
          "internalType": "uint256",
          "name": "",
          "type": "uint256"
        }
      ],
      "name": "activeTokensOnRent",
      "outputs": [
        {
          "internalType": "uint256",
          "name": "",
          "type": "uint256"
        }
      ],
      "stateMutability": "view",
      "type": "function"
    },
    {
      "inputs": [
        {
          "internalType": "uint256",
          "name": "nftId",
          "type": "uint256"
        }
      ],
      "name": "approveInspection",
      "outputs": [],
      "stateMutability": "nonpayable",
      "type": "function"
    },
    {
      "inputs": [
        {
          "internalType": "uint256",
          "name": "nftId",
          "type": "uint256"
        }
      ],
      "name": "approveSale",
      "outputs": [],
      "stateMutability": "nonpayable",
      "type": "function"
    },
    {
      "inputs": [
        {
          "internalType": "uint256",
          "name": "duration",
          "type": "uint256"
        }
      ],
      "name": "calculateRent",
      "outputs": [
        {
          "internalType": "uint256",
          "name": "",
          "type": "uint256"
        }
      ],
      "stateMutability": "view",
      "type": "function"
    },
    {
      "inputs": [
        {
          "internalType": "bytes",
          "name": "checkdata",
          "type": "bytes"
        }
      ],
      "name": "checkUpkeep",
      "outputs": [
        {
          "internalType": "bool",
          "name": "upkeepNeeded",
          "type": "bool"
        },
        {
          "internalType": "bytes",
          "name": "performData",
          "type": "bytes"
        }
      ],
      "stateMutability": "view",
      "type": "function"
    },
    {
      "inputs": [
        {
          "internalType": "uint256",
          "name": "nftId",
          "type": "uint256"
        },
        {
          "internalType": "bool",
          "name": "rent",
          "type": "bool"
        }
      ],
      "name": "depositEarnest",
      "outputs": [],
      "stateMutability": "payable",
      "type": "function"
    },
    {
      "inputs": [
        {
          "internalType": "uint256",
          "name": "nftId",
          "type": "uint256"
        }
      ],
      "name": "executeBuying",
      "outputs": [],
      "stateMutability": "nonpayable",
      "type": "function"
    },
    {
      "inputs": [
        {
          "internalType": "uint256",
          "name": "nftId",
          "type": "uint256"
        },
        {
          "internalType": "uint256",
          "name": "duration",
          "type": "uint256"
        }
      ],
      "name": "executeRent",
      "outputs": [],
      "stateMutability": "nonpayable",
      "type": "function"
    },
    {
      "inputs": [
        {
          "internalType": "uint256",
          "name": "nftId",
          "type": "uint256"
        }
      ],
      "name": "getInspectionStatus",
      "outputs": [
        {
          "internalType": "bool",
          "name": "",
          "type": "bool"
        }
      ],
      "stateMutability": "view",
      "type": "function"
    },
    {
      "inputs": [],
      "name": "getPropertyTokenAddress",
      "outputs": [
        {
          "internalType": "address",
          "name": "",
          "type": "address"
        }
      ],
      "stateMutability": "view",
      "type": "function"
    },
    {
      "inputs": [
        {
          "internalType": "uint256",
          "name": "nftId",
          "type": "uint256"
        }
      ],
      "name": "getSeller",
      "outputs": [
        {
          "internalType": "address",
          "name": "",
          "type": "address"
        }
      ],
      "stateMutability": "view",
      "type": "function"
    },
    {
      "inputs": [
        {
          "internalType": "uint256",
          "name": "nftId",
          "type": "uint256"
        }
      ],
      "name": "getTenant",
      "outputs": [
        {
          "internalType": "address",
          "name": "",
          "type": "address"
        }
      ],
      "stateMutability": "view",
      "type": "function"
    },
    {
      "inputs": [],
      "name": "getTotalSupply",
      "outputs": [
        {
          "internalType": "uint256",
          "name": "",
          "type": "uint256"
        }
      ],
      "stateMutability": "view",
      "type": "function"
    },
    {
      "inputs": [],
      "name": "inspector",
      "outputs": [
        {
          "internalType": "address",
          "name": "",
          "type": "address"
        }
      ],
      "stateMutability": "view",
      "type": "function"
    },
    {
      "inputs": [
        {
          "internalType": "uint256",
          "name": "_priceForRent",
          "type": "uint256"
        },
        {
          "internalType": "uint256",
          "name": "_priceForBuy",
          "type": "uint256"
        },
        {
          "internalType": "uint256",
          "name": "_escrowAmt",
          "type": "uint256"
        },
        {
          "internalType": "string",
          "name": "uri",
          "type": "string"
        }
      ],
      "name": "listProperty",
      "outputs": [],
      "stateMutability": "nonpayable",
      "type": "function"
    },
    {
      "inputs": [
        {
          "internalType": "address",
          "name": "",
          "type": "address"
        },
        {
          "internalType": "address",
          "name": "",
          "type": "address"
        },
        {
          "internalType": "uint256",
          "name": "",
          "type": "uint256"
        },
        {
          "internalType": "bytes",
          "name": "",
          "type": "bytes"
        }
      ],
      "name": "onERC721Received",
      "outputs": [
        {
          "internalType": "bytes4",
          "name": "",
          "type": "bytes4"
        }
      ],
      "stateMutability": "nonpayable",
      "type": "function"
    },
    {
      "inputs": [
        {
          "internalType": "bytes",
          "name": "performData",
          "type": "bytes"
        }
      ],
      "name": "performUpkeep",
      "outputs": [],
      "stateMutability": "nonpayable",
      "type": "function"
    }
  ],
  "bytecode": "0x60806040526001600355600260045560036005553480156200002057600080fd5b50604051620062243803806200622483398181016040528101906200004691906200017f565b80600160006101000a81548173ffffffffffffffffffffffffffffffffffffffff021916908373ffffffffffffffffffffffffffffffffffffffff16021790555030604051620000969062000107565b620000a29190620001c2565b604051809103906000f080158015620000bf573d6000803e3d6000fd5b50600260006101000a81548173ffffffffffffffffffffffffffffffffffffffff021916908373ffffffffffffffffffffffffffffffffffffffff16021790555050620001df565b61329d8062002f8783390190565b600080fd5b600073ffffffffffffffffffffffffffffffffffffffff82169050919050565b600062000147826200011a565b9050919050565b62000159816200013a565b81146200016557600080fd5b50565b60008151905062000179816200014e565b92915050565b60006020828403121562000198576200019762000115565b5b6000620001a88482850162000168565b91505092915050565b620001bc816200013a565b82525050565b6000602082019050620001d96000830184620001b1565b92915050565b612d9880620001ef6000396000f3fe6080604052600436106101145760003560e01c8063698a11aa116100a0578063d4627dde11610064578063d4627dde146103b7578063d6a9de51146103e0578063ed2cee9e1461041d578063f3d377c514610448578063f4809ed01461047157610114565b8063698a11aa146102dc5780636e04ff0d146103075780637b67e7c814610345578063c4e41b2214610370578063d2131e4a1461039b57610114565b80633db436ee116100e75780633db436ee146101e75780634585e33b1461022457806355fd83e51461024d57806360825d5f1461028a57806368c134ea146102b357610114565b806314a72feb14610119578063150b7a02146101425780631b5452dd1461017f5780632f0152df146101bc575b600080fd5b34801561012557600080fd5b50610140600480360381019061013b9190611b30565b6104ae565b005b34801561014e57600080fd5b5061016960048036038101906101649190611d01565b6105be565b6040516101769190611dbf565b60405180910390f35b34801561018b57600080fd5b506101a660048036038101906101a19190611b30565b6105d2565b6040516101b39190611de9565b60405180910390f35b3480156101c857600080fd5b506101d161061c565b6040516101de9190611e63565b60405180910390f35b3480156101f357600080fd5b5061020e60048036038101906102099190611b30565b610642565b60405161021b9190611de9565b60405180910390f35b34801561023057600080fd5b5061024b60048036038101906102469190611ede565b610666565b005b34801561025957600080fd5b50610274600480360381019061026f9190611b30565b6106c1565b6040516102819190611f3a565b60405180910390f35b34801561029657600080fd5b506102b160048036038101906102ac9190611f55565b6106fe565b005b3480156102bf57600080fd5b506102da60048036038101906102d59190611b30565b610bb3565b005b3480156102e857600080fd5b506102f1610c72565b6040516102fe9190611f3a565b60405180910390f35b34801561031357600080fd5b5061032e60048036038101906103299190611ede565b610c96565b60405161033c92919061202f565b60405180910390f35b34801561035157600080fd5b5061035a610ec4565b6040516103679190611f3a565b60405180910390f35b34801561037c57600080fd5b50610385610eee565b6040516103929190611de9565b60405180910390f35b6103b560048036038101906103b0919061208b565b610f86565b005b3480156103c357600080fd5b506103de60048036038101906103d99190611b30565b611195565b005b3480156103ec57600080fd5b5061040760048036038101906104029190611b30565b6114ff565b6040516104149190611f3a565b60405180910390f35b34801561042957600080fd5b5061043261153c565b60405161043f9190611f3a565b60405180910390f35b34801561045457600080fd5b5061046f600480360381019061046a919061216c565b611562565b005b34801561047d57600080fd5b5061049860048036038101906104939190611b30565b611793565b6040516104a591906121ef565b60405180910390f35b60001515600f600083815260200190815260200160002060003373ffffffffffffffffffffffffffffffffffffffff1673ffffffffffffffffffffffffffffffffffffffff16815260200190815260200160002060009054906101000a900460ff16151514610552576040517f08c379a000000000000000000000000000000000000000000000000000000000815260040161054990612267565b60405180910390fd5b6001600f600083815260200190815260200160002060003373ffffffffffffffffffffffffffffffffffffffff1673ffffffffffffffffffffffffffffffffffffffff16815260200190815260200160002060006101000a81548160ff02191690831515021790555050565b600063150b7a0260e01b9050949350505050565b6000806000905060078310156105ec576003549050610613565b600783101580156105fd5750601e83105b1561060c576004549050610612565b60055490505b5b80915050919050565b600260009054906101000a900473ffffffffffffffffffffffffffffffffffffffff1681565b6010818154811061065257600080fd5b906000526020600020016000915090505481565b60008282810190610677919061234a565b905060005b81518110156106bb576106a882828151811061069b5761069a612393565b5b60200260200101516117bd565b80806106b3906123f1565b91505061067c565b50505050565b60006007600083815260200190815260200160002060009054906101000a900473ffffffffffffffffffffffffffffffffffffffff169050919050565b6000610708610eee565b90508083111561074d576040517f08c379a000000000000000000000000000000000000000000000000000000000815260040161074490612485565b60405180910390fd5b3373ffffffffffffffffffffffffffffffffffffffff166007600085815260200190815260200160002060009054906101000a900473ffffffffffffffffffffffffffffffffffffffff1673ffffffffffffffffffffffffffffffffffffffff16146107ee576040517f08c379a00000000000000000000000000000000000000000000000000000000081526004016107e5906124f1565b60405180910390fd5b60011515600e600085815260200190815260200160002060009054906101000a900460ff16151514610855576040517f08c379a000000000000000000000000000000000000000000000000000000000815260040161084c9061255d565b60405180910390fd5b600c6000848152602001908152602001600020544710156108ab576040517f08c379a00000000000000000000000000000000000000000000000000000000081526004016108a2906125c9565b60405180910390fd5b6000600a600085815260200190815260200160002060009054906101000a900473ffffffffffffffffffffffffffffffffffffffff1690506000600c60008681526020019081526020016000205490506000610906856105d2565b9050336007600088815260200190815260200160002060006101000a81548173ffffffffffffffffffffffffffffffffffffffff021916908373ffffffffffffffffffffffffffffffffffffffff160217905550620151808561096991906125e9565b42610974919061262b565b600860008881526020019081526020016000208190555084600960003373ffffffffffffffffffffffffffffffffffffffff1673ffffffffffffffffffffffffffffffffffffffff16815260200190815260200160002060008881526020019081526020016000208190555060008373ffffffffffffffffffffffffffffffffffffffff1683604051610a06906126b6565b60006040518083038185875af1925050503d8060008114610a43576040519150601f19603f3d011682016040523d82523d6000602084013e610a48565b606091505b50509050600260009054906101000a900473ffffffffffffffffffffffffffffffffffffffff1673ffffffffffffffffffffffffffffffffffffffff16631f74034b33896040518363ffffffff1660e01b8152600401610aa99291906126cb565b600060405180830381600087803b158015610ac357600080fd5b505af1158015610ad7573d6000803e3d6000fd5b50505050601087908060018154018082558091505060019003906000526020600020016000909190919091505580610b44576040517f08c379a0000000000000000000000000000000000000000000000000000000008152600401610b3b90612740565b60405180910390fd5b8373ffffffffffffffffffffffffffffffffffffffff163373ffffffffffffffffffffffffffffffffffffffff16887fba1e338576e77d64b4e4efb5379bf64c4fbd5da6e1ab28045f24294bed01af6e85604051610ba29190611de9565b60405180910390a450505050505050565b600160009054906101000a900473ffffffffffffffffffffffffffffffffffffffff1673ffffffffffffffffffffffffffffffffffffffff163373ffffffffffffffffffffffffffffffffffffffff1614610c43576040517f08c379a0000000000000000000000000000000000000000000000000000000008152600401610c3a906127d2565b60405180910390fd5b6001600e600083815260200190815260200160002060006101000a81548160ff02191690831515021790555050565b60008054906101000a900473ffffffffffffffffffffffffffffffffffffffff1681565b60006060600060108054905067ffffffffffffffff811115610cbb57610cba611bd6565b5b604051908082528060200260200182016040528015610ce95781602001602082028036833780820191505090505b5090506000805b601080549050811015610deb57600060108281548110610d1357610d12612393565b5b90600052602060002001549050600073ffffffffffffffffffffffffffffffffffffffff166007600083815260200190815260200160002060009054906101000a900473ffffffffffffffffffffffffffffffffffffffff1673ffffffffffffffffffffffffffffffffffffffff1614158015610da3575060086000828152602001908152602001600020544210155b15610dd75780848481518110610dbc57610dbb612393565b5b6020026020010181815250508280610dd3906123f1565b9350505b508080610de3906123f1565b915050610cf0565b5060008167ffffffffffffffff811115610e0857610e07611bd6565b5b604051908082528060200260200182016040528015610e365781602001602082028036833780820191505090505b50905060005b82811015610e9157838181518110610e5757610e56612393565b5b6020026020010151828281518110610e7257610e71612393565b5b6020026020010181815250508080610e89906123f1565b915050610e3c565b5060008211945080604051602001610ea991906128b0565b60405160208183030381529060405293505050509250929050565b6000600260009054906101000a900473ffffffffffffffffffffffffffffffffffffffff16905090565b6000600260009054906101000a900473ffffffffffffffffffffffffffffffffffffffff1673ffffffffffffffffffffffffffffffffffffffff166318160ddd6040518163ffffffff1660e01b8152600401602060405180830381865afa158015610f5d573d6000803e3d6000fd5b505050506040513d601f19601f82011682018060405250810190610f8191906128e7565b905090565b6006600083815260200190815260200160002060009054906101000a900460ff16610fe6576040517f08c379a0000000000000000000000000000000000000000000000000000000008152600401610fdd90612960565b60405180910390fd5b600073ffffffffffffffffffffffffffffffffffffffff166007600084815260200190815260200160002060009054906101000a900473ffffffffffffffffffffffffffffffffffffffff1673ffffffffffffffffffffffffffffffffffffffff1614611088576040517f08c379a000000000000000000000000000000000000000000000000000000000815260040161107f906129cc565b60405180910390fd5b806110e857600b6000838152602001908152602001600020543410156110e3576040517f08c379a00000000000000000000000000000000000000000000000000000000081526004016110da90612a5e565b60405180910390fd5b611191565b600c60008381526020019081526020016000205434101561113e576040517f08c379a000000000000000000000000000000000000000000000000000000000815260040161113590612a5e565b60405180910390fd5b336007600084815260200190815260200160002060006101000a81548173ffffffffffffffffffffffffffffffffffffffff021916908373ffffffffffffffffffffffffffffffffffffffff1602179055505b5050565b600061119f610eee565b9050808211156111e4576040517f08c379a00000000000000000000000000000000000000000000000000000000081526004016111db90612485565b60405180910390fd5b60011515600e600084815260200190815260200160002060009054906101000a900460ff1615151461124b576040517f08c379a00000000000000000000000000000000000000000000000000000000081526004016112429061255d565b60405180910390fd5b600d6000838152602001908152602001600020544710156112a1576040517f08c379a0000000000000000000000000000000000000000000000000000000008152600401611298906125c9565b60405180910390fd5b6000600a600084815260200190815260200160002060009054906101000a900473ffffffffffffffffffffffffffffffffffffffff1690506000600b600085815260200190815260200160002054905080471015611334576040517f08c379a000000000000000000000000000000000000000000000000000000000815260040161132b90612af0565b60405180910390fd5b60006006600086815260200190815260200160002060006101000a81548160ff02191690831515021790555060008273ffffffffffffffffffffffffffffffffffffffff1682604051611386906126b6565b60006040518083038185875af1925050503d80600081146113c3576040519150601f19603f3d011682016040523d82523d6000602084013e6113c8565b606091505b50509050600260009054906101000a900473ffffffffffffffffffffffffffffffffffffffff1673ffffffffffffffffffffffffffffffffffffffff166323b872dd3033886040518463ffffffff1660e01b815260040161142b93929190612b10565b600060405180830381600087803b15801561144557600080fd5b505af1158015611459573d6000803e3d6000fd5b505050508061149d576040517f08c379a000000000000000000000000000000000000000000000000000000000815260040161149490612b93565b60405180910390fd5b8273ffffffffffffffffffffffffffffffffffffffff163373ffffffffffffffffffffffffffffffffffffffff16867f90740547fe504659050ab00e37233f21d2ccede62364499e2f3ae77ad4b8334360405160405180910390a45050505050565b6000600a600083815260200190815260200160002060009054906101000a900473ffffffffffffffffffffffffffffffffffffffff169050919050565b600160009054906101000a900473ffffffffffffffffffffffffffffffffffffffff1681565b600084116115a5576040517f08c379a000000000000000000000000000000000000000000000000000000000815260040161159c90612bff565b60405180910390fd5b600083116115e8576040517f08c379a00000000000000000000000000000000000000000000000000000000081526004016115df90612bff565b60405180910390fd5b6000821161162b576040517f08c379a000000000000000000000000000000000000000000000000000000000815260040161162290612bff565b60405180910390fd5b600260009054906101000a900473ffffffffffffffffffffffffffffffffffffffff1673ffffffffffffffffffffffffffffffffffffffff1663d204c45e30836040518363ffffffff1660e01b8152600401611688929190612c63565b600060405180830381600087803b1580156116a257600080fd5b505af11580156116b6573d6000803e3d6000fd5b5050505060006116c4610eee565b905060016006600083815260200190815260200160002060006101000a81548160ff02191690831515021790555033600a600083815260200190815260200160002060006101000a81548173ffffffffffffffffffffffffffffffffffffffff021916908373ffffffffffffffffffffffffffffffffffffffff16021790555084600c60008381526020019081526020016000208190555083600d60008381526020019081526020016000208190555082600b6000838152602001908152602001600020819055505050505050565b6000600e600083815260200190815260200160002060009054906101000a900460ff169050919050565b600073ffffffffffffffffffffffffffffffffffffffff166007600083815260200190815260200160002060009054906101000a900473ffffffffffffffffffffffffffffffffffffffff1673ffffffffffffffffffffffffffffffffffffffff160361185f576040517f08c379a000000000000000000000000000000000000000000000000000000000815260040161185690612cdf565b60405180910390fd5b600061186a826106c1565b90506000600960008373ffffffffffffffffffffffffffffffffffffffff1673ffffffffffffffffffffffffffffffffffffffff168152602001908152602001600020600084815260200190815260200160002054905060006118cc826105d2565b9050600260009054906101000a900473ffffffffffffffffffffffffffffffffffffffff1673ffffffffffffffffffffffffffffffffffffffff16634a3b59a630866040518363ffffffff1660e01b815260040161192b9291906126cb565b600060405180830381600087803b15801561194557600080fd5b505af1158015611959573d6000803e3d6000fd5b5050505060006007600086815260200190815260200160002060006101000a81548173ffffffffffffffffffffffffffffffffffffffff021916908373ffffffffffffffffffffffffffffffffffffffff1602179055506000600860008681526020019081526020016000208190555060005b601080549050811015611a905784601082815481106119ee576119ed612393565b5b906000526020600020015403611a7d5760106001601080549050611a129190612cff565b81548110611a2357611a22612393565b5b906000526020600020015460108281548110611a4257611a41612393565b5b90600052602060002001819055506010805480611a6257611a61612d33565b5b60019003818190600052602060002001600090559055611a90565b8080611a88906123f1565b9150506119cc565b508273ffffffffffffffffffffffffffffffffffffffff16847fb171233e15fd0fbd738719b9c35c56ecc6964e8b9f1b3271be4375dea76497b783604051611ad89190611de9565b60405180910390a350505050565b6000604051905090565b600080fd5b600080fd5b6000819050919050565b611b0d81611afa565b8114611b1857600080fd5b50565b600081359050611b2a81611b04565b92915050565b600060208284031215611b4657611b45611af0565b5b6000611b5484828501611b1b565b91505092915050565b600073ffffffffffffffffffffffffffffffffffffffff82169050919050565b6000611b8882611b5d565b9050919050565b611b9881611b7d565b8114611ba357600080fd5b50565b600081359050611bb581611b8f565b92915050565b600080fd5b600080fd5b6000601f19601f8301169050919050565b7f4e487b7100000000000000000000000000000000000000000000000000000000600052604160045260246000fd5b611c0e82611bc5565b810181811067ffffffffffffffff82111715611c2d57611c2c611bd6565b5b80604052505050565b6000611c40611ae6565b9050611c4c8282611c05565b919050565b600067ffffffffffffffff821115611c6c57611c6b611bd6565b5b611c7582611bc5565b9050602081019050919050565b82818337600083830152505050565b6000611ca4611c9f84611c51565b611c36565b905082815260208101848484011115611cc057611cbf611bc0565b5b611ccb848285611c82565b509392505050565b600082601f830112611ce857611ce7611bbb565b5b8135611cf8848260208601611c91565b91505092915050565b60008060008060808587031215611d1b57611d1a611af0565b5b6000611d2987828801611ba6565b9450506020611d3a87828801611ba6565b9350506040611d4b87828801611b1b565b925050606085013567ffffffffffffffff811115611d6c57611d6b611af5565b5b611d7887828801611cd3565b91505092959194509250565b60007fffffffff0000000000000000000000000000000000000000000000000000000082169050919050565b611db981611d84565b82525050565b6000602082019050611dd46000830184611db0565b92915050565b611de381611afa565b82525050565b6000602082019050611dfe6000830184611dda565b92915050565b6000819050919050565b6000611e29611e24611e1f84611b5d565b611e04565b611b5d565b9050919050565b6000611e3b82611e0e565b9050919050565b6000611e4d82611e30565b9050919050565b611e5d81611e42565b82525050565b6000602082019050611e786000830184611e54565b92915050565b600080fd5b600080fd5b60008083601f840112611e9e57611e9d611bbb565b5b8235905067ffffffffffffffff811115611ebb57611eba611e7e565b5b602083019150836001820283011115611ed757611ed6611e83565b5b9250929050565b60008060208385031215611ef557611ef4611af0565b5b600083013567ffffffffffffffff811115611f1357611f12611af5565b5b611f1f85828601611e88565b92509250509250929050565b611f3481611b7d565b82525050565b6000602082019050611f4f6000830184611f2b565b92915050565b60008060408385031215611f6c57611f6b611af0565b5b6000611f7a85828601611b1b565b9250506020611f8b85828601611b1b565b9150509250929050565b60008115159050919050565b611faa81611f95565b82525050565b600081519050919050565b600082825260208201905092915050565b60005b83811015611fea578082015181840152602081019050611fcf565b60008484015250505050565b600061200182611fb0565b61200b8185611fbb565b935061201b818560208601611fcc565b61202481611bc5565b840191505092915050565b60006040820190506120446000830185611fa1565b81810360208301526120568184611ff6565b90509392505050565b61206881611f95565b811461207357600080fd5b50565b6000813590506120858161205f565b92915050565b600080604083850312156120a2576120a1611af0565b5b60006120b085828601611b1b565b92505060206120c185828601612076565b9150509250929050565b600067ffffffffffffffff8211156120e6576120e5611bd6565b5b6120ef82611bc5565b9050602081019050919050565b600061210f61210a846120cb565b611c36565b90508281526020810184848401111561212b5761212a611bc0565b5b612136848285611c82565b509392505050565b600082601f83011261215357612152611bbb565b5b81356121638482602086016120fc565b91505092915050565b6000806000806080858703121561218657612185611af0565b5b600061219487828801611b1b565b94505060206121a587828801611b1b565b93505060406121b687828801611b1b565b925050606085013567ffffffffffffffff8111156121d7576121d6611af5565b5b6121e38782880161213e565b91505092959194509250565b60006020820190506122046000830184611fa1565b92915050565b600082825260208201905092915050565b7f414c726561647920417070726f76656400000000000000000000000000000000600082015250565b600061225160108361220a565b915061225c8261221b565b602082019050919050565b6000602082019050818103600083015261228081612244565b9050919050565b600067ffffffffffffffff8211156122a2576122a1611bd6565b5b602082029050602081019050919050565b60006122c66122c184612287565b611c36565b905080838252602082019050602084028301858111156122e9576122e8611e83565b5b835b8181101561231257806122fe8882611b1b565b8452602084019350506020810190506122eb565b5050509392505050565b600082601f83011261233157612330611bbb565b5b81356123418482602086016122b3565b91505092915050565b6000602082840312156123605761235f611af0565b5b600082013567ffffffffffffffff81111561237e5761237d611af5565b5b61238a8482850161231c565b91505092915050565b7f4e487b7100000000000000000000000000000000000000000000000000000000600052603260045260246000fd5b7f4e487b7100000000000000000000000000000000000000000000000000000000600052601160045260246000fd5b60006123fc82611afa565b91507fffffffffffffffffffffffffffffffffffffffffffffffffffffffffffffffff820361242e5761242d6123c2565b5b600182019050919050565b7f50726f706572747920646f65736e277420657869737473000000000000000000600082015250565b600061246f60178361220a565b915061247a82612439565b602082019050919050565b6000602082019050818103600083015261249e81612462565b9050919050565b7f4861766520746f206465706f736974204561726e657374206669727374000000600082015250565b60006124db601d8361220a565b91506124e6826124a5565b602082019050919050565b6000602082019050818103600083015261250a816124ce565b9050919050565b7f496e7370656374696f6e2049736e277420706173736564000000000000000000600082015250565b600061254760178361220a565b915061255282612511565b602082019050919050565b600060208201905081810360008301526125768161253a565b9050919050565b7f496e73756666696369656e742062616c616e6365000000000000000000000000600082015250565b60006125b360148361220a565b91506125be8261257d565b602082019050919050565b600060208201905081810360008301526125e2816125a6565b9050919050565b60006125f482611afa565b91506125ff83611afa565b925082820261260d81611afa565b91508282048414831517612624576126236123c2565b5b5092915050565b600061263682611afa565b915061264183611afa565b9250828201905080821115612659576126586123c2565b5b92915050565b600081905092915050565b7f416d6f756e74207472616e736665726564000000000000000000000000000000600082015250565b60006126a060118361265f565b91506126ab8261266a565b601182019050919050565b60006126c182612693565b9150819050919050565b60006040820190506126e06000830185611f2b565b6126ed6020830184611dda565b9392505050565b7f5472616e736665722052656e7420746f206f776e6572206661696c6564000000600082015250565b600061272a601d8361220a565b9150612735826126f4565b602082019050919050565b600060208201905081810360008301526127598161271d565b9050919050565b7f4f6e6c7920696e73706563746f722063616e2063616c6c20746869732066756e60008201527f6374696f6e000000000000000000000000000000000000000000000000000000602082015250565b60006127bc60258361220a565b91506127c782612760565b604082019050919050565b600060208201905081810360008301526127eb816127af565b9050919050565b600081519050919050565b600082825260208201905092915050565b6000819050602082019050919050565b61282781611afa565b82525050565b6000612839838361281e565b60208301905092915050565b6000602082019050919050565b600061285d826127f2565b61286781856127fd565b93506128728361280e565b8060005b838110156128a357815161288a888261282d565b975061289583612845565b925050600181019050612876565b5085935050505092915050565b600060208201905081810360008301526128ca8184612852565b905092915050565b6000815190506128e181611b04565b92915050565b6000602082840312156128fd576128fc611af0565b5b600061290b848285016128d2565b91505092915050565b7f50726f706572747920697320616c726561647920736f6c640000000000000000600082015250565b600061294a60188361220a565b915061295582612914565b602082019050919050565b600060208201905081810360008301526129798161293d565b9050919050565b7f50726f7065727479206973206f6e2052656e7400000000000000000000000000600082015250565b60006129b660138361220a565b91506129c182612980565b602082019050919050565b600060208201905081810360008301526129e5816129a9565b9050919050565b7f416d6f756e742073686f756c642062652067726561746572207468616e2f657160008201527f75616c20746f2020657363726f7720616d6f756e740000000000000000000000602082015250565b6000612a4860358361220a565b9150612a53826129ec565b604082019050919050565b60006020820190508181036000830152612a7781612a3b565b9050919050565b7f496e73756666696369656e742062616c616e636520696e20657363726f77206360008201527f6f6e747261637400000000000000000000000000000000000000000000000000602082015250565b6000612ada60278361220a565b9150612ae582612a7e565b604082019050919050565b60006020820190508181036000830152612b0981612acd565b9050919050565b6000606082019050612b256000830186611f2b565b612b326020830185611f2b565b612b3f6040830184611dda565b949350505050565b7f5472616e7366657220746f2073656c6c6572206661696c656400000000000000600082015250565b6000612b7d60198361220a565b9150612b8882612b47565b602082019050919050565b60006020820190508181036000830152612bac81612b70565b9050919050565b7f456e746572206120416d6f756e742067726561746572207468616e2030000000600082015250565b6000612be9601d8361220a565b9150612bf482612bb3565b602082019050919050565b60006020820190508181036000830152612c1881612bdc565b9050919050565b600081519050919050565b6000612c3582612c1f565b612c3f818561220a565b9350612c4f818560208601611fcc565b612c5881611bc5565b840191505092915050565b6000604082019050612c786000830185611f2b565b8181036020830152612c8a8184612c2a565b90509392505050565b7f50726f7065727479206973206e6f74206f6e2072656e74000000000000000000600082015250565b6000612cc960178361220a565b9150612cd482612c93565b602082019050919050565b60006020820190508181036000830152612cf881612cbc565b9050919050565b6000612d0a82611afa565b9150612d1583611afa565b9250828203905081811115612d2d57612d2c6123c2565b5b92915050565b7f4e487b7100000000000000000000000000000000000000000000000000000000600052603160045260246000fdfea2646970667358221220f0811ee55376c21d368c5c411b1df271178752b45dc731d9811ff3ad9b2cd15464736f6c6343000814003360806040523480156200001157600080fd5b506040516200329d3803806200329d8339818101604052810190620000379190620002cb565b806040518060400160405280600d81526020017f50726f7065727479546f6b656e000000000000000000000000000000000000008152506040518060400160405280600381526020017f50544b0000000000000000000000000000000000000000000000000000000000815250838260009081620000b6919062000577565b508160019081620000c8919062000577565b5080600260006101000a81548173ffffffffffffffffffffffffffffffffffffffff021916908373ffffffffffffffffffffffffffffffffffffffff160217905550505050600073ffffffffffffffffffffffffffffffffffffffff168173ffffffffffffffffffffffffffffffffffffffff1603620001825760006040517f1e4fbdf70000000000000000000000000000000000000000000000000000000081526004016200017991906200066f565b60405180910390fd5b62000193816200019b60201b60201c565b50506200068c565b6000600960009054906101000a900473ffffffffffffffffffffffffffffffffffffffff16905081600960006101000a81548173ffffffffffffffffffffffffffffffffffffffff021916908373ffffffffffffffffffffffffffffffffffffffff1602179055508173ffffffffffffffffffffffffffffffffffffffff168173ffffffffffffffffffffffffffffffffffffffff167f8be0079c531659141344cd1fd0a4f28419497f9722a3daafe3b4186f6b6457e060405160405180910390a35050565b600080fd5b600073ffffffffffffffffffffffffffffffffffffffff82169050919050565b6000620002938262000266565b9050919050565b620002a58162000286565b8114620002b157600080fd5b50565b600081519050620002c5816200029a565b92915050565b600060208284031215620002e457620002e362000261565b5b6000620002f484828501620002b4565b91505092915050565b600081519050919050565b7f4e487b7100000000000000000000000000000000000000000000000000000000600052604160045260246000fd5b7f4e487b7100000000000000000000000000000000000000000000000000000000600052602260045260246000fd5b600060028204905060018216806200037f57607f821691505b60208210810362000395576200039462000337565b5b50919050565b60008190508160005260206000209050919050565b60006020601f8301049050919050565b600082821b905092915050565b600060088302620003ff7fffffffffffffffffffffffffffffffffffffffffffffffffffffffffffffffff82620003c0565b6200040b8683620003c0565b95508019841693508086168417925050509392505050565b6000819050919050565b6000819050919050565b600062000458620004526200044c8462000423565b6200042d565b62000423565b9050919050565b6000819050919050565b620004748362000437565b6200048c62000483826200045f565b848454620003cd565b825550505050565b600090565b620004a362000494565b620004b081848462000469565b505050565b5b81811015620004d857620004cc60008262000499565b600181019050620004b6565b5050565b601f8211156200052757620004f1816200039b565b620004fc84620003b0565b810160208510156200050c578190505b620005246200051b85620003b0565b830182620004b5565b50505b505050565b600082821c905092915050565b60006200054c600019846008026200052c565b1980831691505092915050565b600062000567838362000539565b9150826002028217905092915050565b6200058282620002fd565b67ffffffffffffffff8111156200059e576200059d62000308565b5b620005aa825462000366565b620005b7828285620004dc565b600060209050601f831160018114620005ef5760008415620005da578287015190505b620005e6858262000559565b86555062000656565b601f198416620005ff866200039b565b60005b82811015620006295784890151825560018201915060208501945060208101905062000602565b8683101562000649578489015162000645601f89168262000539565b8355505b6001600288020188555050505b505050505050565b620006698162000286565b82525050565b60006020820190506200068660008301846200065e565b92915050565b612c01806200069c6000396000f3fe608060405234801561001057600080fd5b50600436106101425760003560e01c806370a08231116100b8578063a22cb4651161007c578063a22cb4651461034d578063b88d4fde14610369578063c87b56dd14610385578063d204c45e146103b5578063e985e9c5146103d1578063f2fde38b1461040157610142565b806370a08231146102bb578063715018a6146102eb5780638568523a146102f55780638da5cb5b1461031157806395d89b411461032f57610142565b806318160ddd1161010a57806318160ddd146101fd5780631f74034b1461021b57806323b872dd1461023757806342842e0e146102535780634a3b59a61461026f5780636352211e1461028b57610142565b806301ffc9a71461014757806306fdde0314610177578063081812fc14610195578063095ea7b3146101c55780630f18ac07146101e1575b600080fd5b610161600480360381019061015c9190611fc7565b61041d565b60405161016e919061200f565b60405180910390f35b61017f61042f565b60405161018c91906120ba565b60405180910390f35b6101af60048036038101906101aa9190612112565b6104c1565b6040516101bc9190612180565b60405180910390f35b6101df60048036038101906101da91906121c7565b6104dd565b005b6101fb60048036038101906101f691906121c7565b6104f3565b005b610205610603565b6040516102129190612216565b60405180910390f35b610235600480360381019061023091906121c7565b61060d565b005b610251600480360381019061024c9190612231565b610623565b005b61026d60048036038101906102689190612231565b610725565b005b610289600480360381019061028491906121c7565b610745565b005b6102a560048036038101906102a09190612112565b61075b565b6040516102b29190612180565b60405180910390f35b6102d560048036038101906102d09190612284565b61076d565b6040516102e29190612216565b60405180910390f35b6102f3610827565b005b61030f600480360381019061030a91906121c7565b61083b565b005b61031961094b565b6040516103269190612180565b60405180910390f35b610337610975565b60405161034491906120ba565b60405180910390f35b610367600480360381019061036291906122dd565b610a07565b005b610383600480360381019061037e9190612452565b610a1d565b005b61039f600480360381019061039a9190612112565b610a3a565b6040516103ac91906120ba565b60405180910390f35b6103cf60048036038101906103ca9190612576565b610a4c565b005b6103eb60048036038101906103e691906125d2565b610a86565b6040516103f8919061200f565b60405180910390f35b61041b60048036038101906104169190612284565b610b1a565b005b600061042882610ba0565b9050919050565b60606000805461043e90612641565b80601f016020809104026020016040519081016040528092919081815260200182805461046a90612641565b80156104b75780601f1061048c576101008083540402835291602001916104b7565b820191906000526020600020905b81548152906001019060200180831161049a57829003601f168201915b5050505050905090565b60006104cc82610c01565b506104d682610c89565b9050919050565b6104ef82826104ea610cc6565b610cce565b5050565b600260009054906101000a900473ffffffffffffffffffffffffffffffffffffffff1673ffffffffffffffffffffffffffffffffffffffff163373ffffffffffffffffffffffffffffffffffffffff1614610583576040517f08c379a000000000000000000000000000000000000000000000000000000000815260040161057a906126e4565b60405180910390fd5b600073ffffffffffffffffffffffffffffffffffffffff168273ffffffffffffffffffffffffffffffffffffffff16036105f55760006040517f64a0ae920000000000000000000000000000000000000000000000000000000081526004016105ec9190612180565b60405180910390fd5b6105ff8282610ce0565b5050565b6000600a54905090565b610615610db9565b61061f82826104f3565b5050565b600073ffffffffffffffffffffffffffffffffffffffff168273ffffffffffffffffffffffffffffffffffffffff16036106955760006040517f64a0ae9200000000000000000000000000000000000000000000000000000000815260040161068c9190612180565b60405180910390fd5b60006106a983836106a4610cc6565b610e40565b90508373ffffffffffffffffffffffffffffffffffffffff168173ffffffffffffffffffffffffffffffffffffffff161461071f578382826040517f64283d7b00000000000000000000000000000000000000000000000000000000815260040161071693929190612704565b60405180910390fd5b50505050565b61074083838360405180602001604052806000815250610a1d565b505050565b61074d610db9565b610757828261083b565b5050565b600061076682610c01565b9050919050565b60008073ffffffffffffffffffffffffffffffffffffffff168273ffffffffffffffffffffffffffffffffffffffff16036107e05760006040517f89c62b640000000000000000000000000000000000000000000000000000000081526004016107d79190612180565b60405180910390fd5b600560008373ffffffffffffffffffffffffffffffffffffffff1673ffffffffffffffffffffffffffffffffffffffff168152602001908152602001600020549050919050565b61082f610db9565b610839600061105a565b565b600260009054906101000a900473ffffffffffffffffffffffffffffffffffffffff1673ffffffffffffffffffffffffffffffffffffffff163373ffffffffffffffffffffffffffffffffffffffff16146108cb576040517f08c379a00000000000000000000000000000000000000000000000000000000081526004016108c2906126e4565b60405180910390fd5b600073ffffffffffffffffffffffffffffffffffffffff168273ffffffffffffffffffffffffffffffffffffffff160361093d5760006040517f64a0ae920000000000000000000000000000000000000000000000000000000081526004016109349190612180565b60405180910390fd5b6109478282611120565b5050565b6000600960009054906101000a900473ffffffffffffffffffffffffffffffffffffffff16905090565b60606001805461098490612641565b80601f01602080910402602001604051908101604052809291908181526020018280546109b090612641565b80156109fd5780601f106109d2576101008083540402835291602001916109fd565b820191906000526020600020905b8154815290600101906020018083116109e057829003601f168201915b5050505050905090565b610a19610a12610cc6565b83836111f9565b5050565b610a28848484610623565b610a3484848484611368565b50505050565b6060610a458261151f565b9050919050565b610a54610db9565b6000600a60008154610a659061276a565b9190508190559050610a778382611632565b610a818183611650565b505050565b6000600760008473ffffffffffffffffffffffffffffffffffffffff1673ffffffffffffffffffffffffffffffffffffffff16815260200190815260200160002060008373ffffffffffffffffffffffffffffffffffffffff1673ffffffffffffffffffffffffffffffffffffffff16815260200190815260200160002060009054906101000a900460ff16905092915050565b610b22610db9565b600073ffffffffffffffffffffffffffffffffffffffff168173ffffffffffffffffffffffffffffffffffffffff1603610b945760006040517f1e4fbdf7000000000000000000000000000000000000000000000000000000008152600401610b8b9190612180565b60405180910390fd5b610b9d8161105a565b50565b6000634906490660e01b7bffffffffffffffffffffffffffffffffffffffffffffffffffffffff1916827bffffffffffffffffffffffffffffffffffffffffffffffffffffffff19161480610bfa5750610bf9826116ac565b5b9050919050565b600080610c0d8361178e565b9050600073ffffffffffffffffffffffffffffffffffffffff168173ffffffffffffffffffffffffffffffffffffffff1603610c8057826040517f7e273289000000000000000000000000000000000000000000000000000000008152600401610c779190612216565b60405180910390fd5b80915050919050565b60006006600083815260200190815260200160002060009054906101000a900473ffffffffffffffffffffffffffffffffffffffff169050919050565b600033905090565b610cdb83838360016117cb565b505050565b600073ffffffffffffffffffffffffffffffffffffffff168273ffffffffffffffffffffffffffffffffffffffff1614610d63576001600560008473ffffffffffffffffffffffffffffffffffffffff1673ffffffffffffffffffffffffffffffffffffffff168152602001908152602001600020600082825401925050819055505b816004600083815260200190815260200160002060006101000a81548173ffffffffffffffffffffffffffffffffffffffff021916908373ffffffffffffffffffffffffffffffffffffffff1602179055505050565b610dc1610cc6565b73ffffffffffffffffffffffffffffffffffffffff16610ddf61094b565b73ffffffffffffffffffffffffffffffffffffffff1614610e3e57610e02610cc6565b6040517f118cdaa7000000000000000000000000000000000000000000000000000000008152600401610e359190612180565b60405180910390fd5b565b600080610e4c8461178e565b9050600073ffffffffffffffffffffffffffffffffffffffff168373ffffffffffffffffffffffffffffffffffffffff1614610e8e57610e8d818486611990565b5b600073ffffffffffffffffffffffffffffffffffffffff168173ffffffffffffffffffffffffffffffffffffffff1614610f1f57610ed06000856000806117cb565b6001600560008373ffffffffffffffffffffffffffffffffffffffff1673ffffffffffffffffffffffffffffffffffffffff168152602001908152602001600020600082825403925050819055505b600073ffffffffffffffffffffffffffffffffffffffff168573ffffffffffffffffffffffffffffffffffffffff1614610fa2576001600560008773ffffffffffffffffffffffffffffffffffffffff1673ffffffffffffffffffffffffffffffffffffffff168152602001908152602001600020600082825401925050819055505b846004600086815260200190815260200160002060006101000a81548173ffffffffffffffffffffffffffffffffffffffff021916908373ffffffffffffffffffffffffffffffffffffffff160217905550838573ffffffffffffffffffffffffffffffffffffffff168273ffffffffffffffffffffffffffffffffffffffff167fddf252ad1be2c89b69c2b068fc378daa952ba7f163c4a11628f55a4df523b3ef60405160405180910390a4809150509392505050565b6000600960009054906101000a900473ffffffffffffffffffffffffffffffffffffffff16905081600960006101000a81548173ffffffffffffffffffffffffffffffffffffffff021916908373ffffffffffffffffffffffffffffffffffffffff1602179055508173ffffffffffffffffffffffffffffffffffffffff168173ffffffffffffffffffffffffffffffffffffffff167f8be0079c531659141344cd1fd0a4f28419497f9722a3daafe3b4186f6b6457e060405160405180910390a35050565b600073ffffffffffffffffffffffffffffffffffffffff168273ffffffffffffffffffffffffffffffffffffffff16146111a3576001600560008473ffffffffffffffffffffffffffffffffffffffff1673ffffffffffffffffffffffffffffffffffffffff168152602001908152602001600020600082825401925050819055505b816004600083815260200190815260200160002060006101000a81548173ffffffffffffffffffffffffffffffffffffffff021916908373ffffffffffffffffffffffffffffffffffffffff1602179055505050565b600073ffffffffffffffffffffffffffffffffffffffff168273ffffffffffffffffffffffffffffffffffffffff160361126a57816040517f5b08ba180000000000000000000000000000000000000000000000000000000081526004016112619190612180565b60405180910390fd5b80600760008573ffffffffffffffffffffffffffffffffffffffff1673ffffffffffffffffffffffffffffffffffffffff16815260200190815260200160002060008473ffffffffffffffffffffffffffffffffffffffff1673ffffffffffffffffffffffffffffffffffffffff16815260200190815260200160002060006101000a81548160ff0219169083151502179055508173ffffffffffffffffffffffffffffffffffffffff168373ffffffffffffffffffffffffffffffffffffffff167f17307eab39ab6107e8899845ad3d59bd9653f200f220920489ca2b5937696c318360405161135b919061200f565b60405180910390a3505050565b60008373ffffffffffffffffffffffffffffffffffffffff163b1115611519578273ffffffffffffffffffffffffffffffffffffffff1663150b7a026113ac610cc6565b8685856040518563ffffffff1660e01b81526004016113ce9493929190612807565b6020604051808303816000875af192505050801561140a57506040513d601f19601f820116820180604052508101906114079190612868565b60015b61148e573d806000811461143a576040519150601f19603f3d011682016040523d82523d6000602084013e61143f565b606091505b50600081510361148657836040517f64a0ae9200000000000000000000000000000000000000000000000000000000815260040161147d9190612180565b60405180910390fd5b805181602001fd5b63150b7a0260e01b7bffffffffffffffffffffffffffffffffffffffffffffffffffffffff1916817bffffffffffffffffffffffffffffffffffffffffffffffffffffffff19161461151757836040517f64a0ae9200000000000000000000000000000000000000000000000000000000815260040161150e9190612180565b60405180910390fd5b505b50505050565b606061152a82610c01565b50600060086000848152602001908152602001600020805461154b90612641565b80601f016020809104026020016040519081016040528092919081815260200182805461157790612641565b80156115c45780601f10611599576101008083540402835291602001916115c4565b820191906000526020600020905b8154815290600101906020018083116115a757829003601f168201915b5050505050905060006115d5611a54565b905060008151036115ea57819250505061162d565b60008251111561161f5780826040516020016116079291906128d1565b6040516020818303038152906040529250505061162d565b61162884611a91565b925050505b919050565b61164c828260405180602001604052806000815250611afa565b5050565b806008600084815260200190815260200160002090816116709190612aa1565b507ff8e1a15aba9398e019f0b49df1a4fde98ee17ae345cb5f6b5e2c27f5033e8ce7826040516116a09190612216565b60405180910390a15050565b60007f80ac58cd000000000000000000000000000000000000000000000000000000007bffffffffffffffffffffffffffffffffffffffffffffffffffffffff1916827bffffffffffffffffffffffffffffffffffffffffffffffffffffffff1916148061177757507f5b5e139f000000000000000000000000000000000000000000000000000000007bffffffffffffffffffffffffffffffffffffffffffffffffffffffff1916827bffffffffffffffffffffffffffffffffffffffffffffffffffffffff1916145b80611787575061178682611b16565b5b9050919050565b60006004600083815260200190815260200160002060009054906101000a900473ffffffffffffffffffffffffffffffffffffffff169050919050565b80806118045750600073ffffffffffffffffffffffffffffffffffffffff168273ffffffffffffffffffffffffffffffffffffffff1614155b1561193857600061181484610c01565b9050600073ffffffffffffffffffffffffffffffffffffffff168373ffffffffffffffffffffffffffffffffffffffff161415801561187f57508273ffffffffffffffffffffffffffffffffffffffff168173ffffffffffffffffffffffffffffffffffffffff1614155b801561189257506118908184610a86565b155b156118d457826040517fa9fbf51f0000000000000000000000000000000000000000000000000000000081526004016118cb9190612180565b60405180910390fd5b811561193657838573ffffffffffffffffffffffffffffffffffffffff168273ffffffffffffffffffffffffffffffffffffffff167f8c5be1e5ebec7d5bd14f71427d1e84f3dd0314c0f7b2291e5b200ac8c7c3b92560405160405180910390a45b505b836006600085815260200190815260200160002060006101000a81548173ffffffffffffffffffffffffffffffffffffffff021916908373ffffffffffffffffffffffffffffffffffffffff16021790555050505050565b61199b838383611b80565b611a4f57600073ffffffffffffffffffffffffffffffffffffffff168373ffffffffffffffffffffffffffffffffffffffff1603611a1057806040517f7e273289000000000000000000000000000000000000000000000000000000008152600401611a079190612216565b60405180910390fd5b81816040517f177e802f000000000000000000000000000000000000000000000000000000008152600401611a46929190612b73565b60405180910390fd5b505050565b60606040518060400160405280600481526020017f64656d6f00000000000000000000000000000000000000000000000000000000815250905090565b6060611a9c82610c01565b506000611aa7611a54565b90506000815111611ac75760405180602001604052806000815250611af2565b80611ad184611c41565b604051602001611ae29291906128d1565b6040516020818303038152906040525b915050919050565b611b048383611d0f565b611b116000848484611368565b505050565b60007f01ffc9a7000000000000000000000000000000000000000000000000000000007bffffffffffffffffffffffffffffffffffffffffffffffffffffffff1916827bffffffffffffffffffffffffffffffffffffffffffffffffffffffff1916149050919050565b60008073ffffffffffffffffffffffffffffffffffffffff168373ffffffffffffffffffffffffffffffffffffffff1614158015611c3857508273ffffffffffffffffffffffffffffffffffffffff168473ffffffffffffffffffffffffffffffffffffffff161480611bf95750611bf88484610a86565b5b80611c3757508273ffffffffffffffffffffffffffffffffffffffff16611c1f83610c89565b73ffffffffffffffffffffffffffffffffffffffff16145b5b90509392505050565b606060006001611c5084611e08565b01905060008167ffffffffffffffff811115611c6f57611c6e612327565b5b6040519080825280601f01601f191660200182016040528015611ca15781602001600182028036833780820191505090505b509050600082602001820190505b600115611d04578080600190039150507f3031323334353637383961626364656600000000000000000000000000000000600a86061a8153600a8581611cf857611cf7612b9c565b5b04945060008503611caf575b819350505050919050565b600073ffffffffffffffffffffffffffffffffffffffff168273ffffffffffffffffffffffffffffffffffffffff1603611d815760006040517f64a0ae92000000000000000000000000000000000000000000000000000000008152600401611d789190612180565b60405180910390fd5b6000611d8f83836000610e40565b9050600073ffffffffffffffffffffffffffffffffffffffff168173ffffffffffffffffffffffffffffffffffffffff1614611e035760006040517f73c6ac6e000000000000000000000000000000000000000000000000000000008152600401611dfa9190612180565b60405180910390fd5b505050565b600080600090507a184f03e93ff9f4daa797ed6e38ed64bf6a1f0100000000000000008310611e66577a184f03e93ff9f4daa797ed6e38ed64bf6a1f0100000000000000008381611e5c57611e5b612b9c565b5b0492506040810190505b6d04ee2d6d415b85acef81000000008310611ea3576d04ee2d6d415b85acef81000000008381611e9957611e98612b9c565b5b0492506020810190505b662386f26fc100008310611ed257662386f26fc100008381611ec857611ec7612b9c565b5b0492506010810190505b6305f5e1008310611efb576305f5e1008381611ef157611ef0612b9c565b5b0492506008810190505b6127108310611f20576127108381611f1657611f15612b9c565b5b0492506004810190505b60648310611f435760648381611f3957611f38612b9c565b5b0492506002810190505b600a8310611f52576001810190505b80915050919050565b6000604051905090565b600080fd5b600080fd5b60007fffffffff0000000000000000000000000000000000000000000000000000000082169050919050565b611fa481611f6f565b8114611faf57600080fd5b50565b600081359050611fc181611f9b565b92915050565b600060208284031215611fdd57611fdc611f65565b5b6000611feb84828501611fb2565b91505092915050565b60008115159050919050565b61200981611ff4565b82525050565b60006020820190506120246000830184612000565b92915050565b600081519050919050565b600082825260208201905092915050565b60005b83811015612064578082015181840152602081019050612049565b60008484015250505050565b6000601f19601f8301169050919050565b600061208c8261202a565b6120968185612035565b93506120a6818560208601612046565b6120af81612070565b840191505092915050565b600060208201905081810360008301526120d48184612081565b905092915050565b6000819050919050565b6120ef816120dc565b81146120fa57600080fd5b50565b60008135905061210c816120e6565b92915050565b60006020828403121561212857612127611f65565b5b6000612136848285016120fd565b91505092915050565b600073ffffffffffffffffffffffffffffffffffffffff82169050919050565b600061216a8261213f565b9050919050565b61217a8161215f565b82525050565b60006020820190506121956000830184612171565b92915050565b6121a48161215f565b81146121af57600080fd5b50565b6000813590506121c18161219b565b92915050565b600080604083850312156121de576121dd611f65565b5b60006121ec858286016121b2565b92505060206121fd858286016120fd565b9150509250929050565b612210816120dc565b82525050565b600060208201905061222b6000830184612207565b92915050565b60008060006060848603121561224a57612249611f65565b5b6000612258868287016121b2565b9350506020612269868287016121b2565b925050604061227a868287016120fd565b9150509250925092565b60006020828403121561229a57612299611f65565b5b60006122a8848285016121b2565b91505092915050565b6122ba81611ff4565b81146122c557600080fd5b50565b6000813590506122d7816122b1565b92915050565b600080604083850312156122f4576122f3611f65565b5b6000612302858286016121b2565b9250506020612313858286016122c8565b9150509250929050565b600080fd5b600080fd5b7f4e487b7100000000000000000000000000000000000000000000000000000000600052604160045260246000fd5b61235f82612070565b810181811067ffffffffffffffff8211171561237e5761237d612327565b5b80604052505050565b6000612391611f5b565b905061239d8282612356565b919050565b600067ffffffffffffffff8211156123bd576123bc612327565b5b6123c682612070565b9050602081019050919050565b82818337600083830152505050565b60006123f56123f0846123a2565b612387565b90508281526020810184848401111561241157612410612322565b5b61241c8482856123d3565b509392505050565b600082601f8301126124395761243861231d565b5b81356124498482602086016123e2565b91505092915050565b6000806000806080858703121561246c5761246b611f65565b5b600061247a878288016121b2565b945050602061248b878288016121b2565b935050604061249c878288016120fd565b925050606085013567ffffffffffffffff8111156124bd576124bc611f6a565b5b6124c987828801612424565b91505092959194509250565b600067ffffffffffffffff8211156124f0576124ef612327565b5b6124f982612070565b9050602081019050919050565b6000612519612514846124d5565b612387565b90508281526020810184848401111561253557612534612322565b5b6125408482856123d3565b509392505050565b600082601f83011261255d5761255c61231d565b5b813561256d848260208601612506565b91505092915050565b6000806040838503121561258d5761258c611f65565b5b600061259b858286016121b2565b925050602083013567ffffffffffffffff8111156125bc576125bb611f6a565b5b6125c885828601612548565b9150509250929050565b600080604083850312156125e9576125e8611f65565b5b60006125f7858286016121b2565b9250506020612608858286016121b2565b9150509250929050565b7f4e487b7100000000000000000000000000000000000000000000000000000000600052602260045260246000fd5b6000600282049050600182168061265957607f821691505b60208210810361266c5761266b612612565b5b50919050565b7f4f6e6c79206f776e65722063616e2063616c6c20746869732066756e6374696f60008201527f6e00000000000000000000000000000000000000000000000000000000000000602082015250565b60006126ce602183612035565b91506126d982612672565b604082019050919050565b600060208201905081810360008301526126fd816126c1565b9050919050565b60006060820190506127196000830186612171565b6127266020830185612207565b6127336040830184612171565b949350505050565b7f4e487b7100000000000000000000000000000000000000000000000000000000600052601160045260246000fd5b6000612775826120dc565b91507fffffffffffffffffffffffffffffffffffffffffffffffffffffffffffffffff82036127a7576127a661273b565b5b600182019050919050565b600081519050919050565b600082825260208201905092915050565b60006127d9826127b2565b6127e381856127bd565b93506127f3818560208601612046565b6127fc81612070565b840191505092915050565b600060808201905061281c6000830187612171565b6128296020830186612171565b6128366040830185612207565b818103606083015261284881846127ce565b905095945050505050565b60008151905061286281611f9b565b92915050565b60006020828403121561287e5761287d611f65565b5b600061288c84828501612853565b91505092915050565b600081905092915050565b60006128ab8261202a565b6128b58185612895565b93506128c5818560208601612046565b80840191505092915050565b60006128dd82856128a0565b91506128e982846128a0565b91508190509392505050565b60008190508160005260206000209050919050565b60006020601f8301049050919050565b600082821b905092915050565b6000600883026129577fffffffffffffffffffffffffffffffffffffffffffffffffffffffffffffffff8261291a565b612961868361291a565b95508019841693508086168417925050509392505050565b6000819050919050565b600061299e612999612994846120dc565b612979565b6120dc565b9050919050565b6000819050919050565b6129b883612983565b6129cc6129c4826129a5565b848454612927565b825550505050565b600090565b6129e16129d4565b6129ec8184846129af565b505050565b5b81811015612a1057612a056000826129d9565b6001810190506129f2565b5050565b601f821115612a5557612a26816128f5565b612a2f8461290a565b81016020851015612a3e578190505b612a52612a4a8561290a565b8301826129f1565b50505b505050565b600082821c905092915050565b6000612a7860001984600802612a5a565b1980831691505092915050565b6000612a918383612a67565b9150826002028217905092915050565b612aaa8261202a565b67ffffffffffffffff811115612ac357612ac2612327565b5b612acd8254612641565b612ad8828285612a14565b600060209050601f831160018114612b0b5760008415612af9578287015190505b612b038582612a85565b865550612b6b565b601f198416612b19866128f5565b60005b82811015612b4157848901518255600182019150602085019450602081019050612b1c565b86831015612b5e5784890151612b5a601f891682612a67565b8355505b6001600288020188555050505b505050505050565b6000604082019050612b886000830185612171565b612b956020830184612207565b9392505050565b7f4e487b7100000000000000000000000000000000000000000000000000000000600052601260045260246000fdfea26469706673582212201496578628345a316e4e0b8a972801f4d64df5968680b547de11f6a2d69b6be464736f6c63430008140033",
  "linkReferences": {},
  "deployedLinkReferences": {}
}