{
  "_format": "hh-sol-artifact-1",
  "contractName": "Escrow",
  "sourceName": "contracts/Escrow.sol",
  "abi": [
    {
      "inputs": [
        {
          "internalType": "address",
          "name": "_nftaddress",
          "type": "address"
        },
        {
          "internalType": "address",
          "name": "_inspector",
          "type": "address"
        }
      ],
      "stateMutability": "nonpayable",
      "type": "constructor"
    },
    {
      "anonymous": false,
      "inputs": [
        {
          "indexed": true,
          "internalType": "uint256",
          "name": "nftId",
          "type": "uint256"
        },
        {
          "indexed": true,
          "internalType": "address",
          "name": "buyer",
          "type": "address"
        },
        {
          "indexed": true,
          "internalType": "address",
          "name": "seller",
          "type": "address"
        }
      ],
      "name": "PurchaisedPropertySuccess",
      "type": "event"
    },
    {
      "anonymous": false,
      "inputs": [
        {
          "indexed": true,
          "internalType": "uint256",
          "name": "nftId",
          "type": "uint256"
        },
        {
          "indexed": true,
          "internalType": "address",
          "name": "tenant",
          "type": "address"
        },
        {
          "indexed": true,
          "internalType": "address",
          "name": "owner",
          "type": "address"
        },
        {
          "indexed": false,
          "internalType": "uint256",
          "name": "rent",
          "type": "uint256"
        }
      ],
      "name": "RentedPropertySuccess",
      "type": "event"
    },
    {
      "anonymous": false,
      "inputs": [
        {
          "indexed": true,
          "internalType": "uint256",
          "name": "nftId",
          "type": "uint256"
        },
        {
          "indexed": true,
          "internalType": "address",
          "name": "tenant",
          "type": "address"
        },
        {
          "indexed": false,
          "internalType": "uint256",
          "name": "rentPaid",
          "type": "uint256"
        }
      ],
      "name": "returnRentedProperty",
      "type": "event"
    },
    {
      "inputs": [],
      "name": "PTKcontract",
      "outputs": [
        {
          "internalType": "contract PropertyToken",
          "name": "",
          "type": "address"
        }
      ],
      "stateMutability": "view",
      "type": "function"
    },
    {
      "inputs": [
        {
          "internalType": "uint256",
          "name": "nftId",
          "type": "uint256"
        }
      ],
      "name": "approveInspection",
      "outputs": [],
      "stateMutability": "nonpayable",
      "type": "function"
    },
    {
      "inputs": [
        {
          "internalType": "uint256",
          "name": "nftId",
          "type": "uint256"
        }
      ],
      "name": "approveSale",
      "outputs": [],
      "stateMutability": "nonpayable",
      "type": "function"
    },
    {
      "inputs": [
        {
          "internalType": "bytes",
          "name": "checkdata",
          "type": "bytes"
        }
      ],
      "name": "checkUpkeep",
      "outputs": [
        {
          "internalType": "bool",
          "name": "upkeepNeeded",
          "type": "bool"
        },
        {
          "internalType": "bytes",
          "name": "performData",
          "type": "bytes"
        }
      ],
      "stateMutability": "view",
      "type": "function"
    },
    {
      "inputs": [
        {
          "internalType": "uint256",
          "name": "nftId",
          "type": "uint256"
        },
        {
          "internalType": "bool",
          "name": "rent",
          "type": "bool"
        }
      ],
      "name": "depositEarnest",
      "outputs": [],
      "stateMutability": "payable",
      "type": "function"
    },
    {
      "inputs": [
        {
          "internalType": "uint256",
          "name": "nftId",
          "type": "uint256"
        }
      ],
      "name": "executeBuying",
      "outputs": [],
      "stateMutability": "nonpayable",
      "type": "function"
    },
    {
      "inputs": [
        {
          "internalType": "uint256",
          "name": "nftId",
          "type": "uint256"
        },
        {
          "internalType": "uint256",
          "name": "duration",
          "type": "uint256"
        }
      ],
      "name": "executeRent",
      "outputs": [],
      "stateMutability": "nonpayable",
      "type": "function"
    },
    {
      "inputs": [
        {
          "internalType": "uint256",
          "name": "nftId",
          "type": "uint256"
        }
      ],
      "name": "getInspectionStatus",
      "outputs": [
        {
          "internalType": "bool",
          "name": "",
          "type": "bool"
        }
      ],
      "stateMutability": "view",
      "type": "function"
    },
    {
      "inputs": [
        {
          "internalType": "uint256",
          "name": "nftId",
          "type": "uint256"
        }
      ],
      "name": "getSeller",
      "outputs": [
        {
          "internalType": "address",
          "name": "",
          "type": "address"
        }
      ],
      "stateMutability": "view",
      "type": "function"
    },
    {
      "inputs": [],
      "name": "getSupply",
      "outputs": [
        {
          "internalType": "uint256",
          "name": "",
          "type": "uint256"
        }
      ],
      "stateMutability": "view",
      "type": "function"
    },
    {
      "inputs": [
        {
          "internalType": "uint256",
          "name": "nftId",
          "type": "uint256"
        }
      ],
      "name": "getTenant",
      "outputs": [
        {
          "internalType": "address",
          "name": "",
          "type": "address"
        }
      ],
      "stateMutability": "view",
      "type": "function"
    },
    {
      "inputs": [],
      "name": "inspector",
      "outputs": [
        {
          "internalType": "address",
          "name": "",
          "type": "address"
        }
      ],
      "stateMutability": "view",
      "type": "function"
    },
    {
      "inputs": [
        {
          "internalType": "uint256",
          "name": "nftId",
          "type": "uint256"
        },
        {
          "internalType": "uint256",
          "name": "_priceForRent",
          "type": "uint256"
        },
        {
          "internalType": "uint256",
          "name": "_priceForBuy",
          "type": "uint256"
        },
        {
          "internalType": "uint256",
          "name": "_escrowAmt",
          "type": "uint256"
        }
      ],
      "name": "listProperty",
      "outputs": [],
      "stateMutability": "nonpayable",
      "type": "function"
    },
    {
      "inputs": [],
      "name": "nftaddress",
      "outputs": [
        {
          "internalType": "address",
          "name": "",
          "type": "address"
        }
      ],
      "stateMutability": "view",
      "type": "function"
    },
    {
      "inputs": [
        {
          "internalType": "bytes",
          "name": "performData",
          "type": "bytes"
        }
      ],
      "name": "performUpkeep",
      "outputs": [],
      "stateMutability": "nonpayable",
      "type": "function"
    }
  ],
  "bytecode": "0x60806040526001600355600260045560036005553480156200002057600080fd5b50604051620053b3380380620053b38339818101604052810190620000469190620001d4565b735b38da6a701c568545dcfcb03fcb875f56beddc460405162000069906200015c565b6200007591906200022c565b604051809103906000f08015801562000092573d6000803e3d6000fd5b50600260006101000a81548173ffffffffffffffffffffffffffffffffffffffff021916908373ffffffffffffffffffffffffffffffffffffffff160217905550816000806101000a81548173ffffffffffffffffffffffffffffffffffffffff021916908373ffffffffffffffffffffffffffffffffffffffff16021790555080600160006101000a81548173ffffffffffffffffffffffffffffffffffffffff021916908373ffffffffffffffffffffffffffffffffffffffff160217905550505062000249565b612d2e806200268583390190565b600080fd5b600073ffffffffffffffffffffffffffffffffffffffff82169050919050565b60006200019c826200016f565b9050919050565b620001ae816200018f565b8114620001ba57600080fd5b50565b600081519050620001ce81620001a3565b92915050565b60008060408385031215620001ee57620001ed6200016a565b5b6000620001fe85828601620001bd565b92505060206200021185828601620001bd565b9150509250929050565b62000226816200018f565b82525050565b60006020820190506200024360008301846200021b565b92915050565b61242c80620002596000396000f3fe6080604052600436106100e85760003560e01c80636c9c2faf1161008a578063d4627dde11610059578063d4627dde146102d2578063d6a9de51146102fb578063ed2cee9e14610338578063f4809ed014610363576100e8565b80636c9c2faf146102245780636e04ff0d1461024f578063cc8a658b1461028d578063d2131e4a146102b6576100e8565b80634585e33b116100c65780634585e33b1461016c57806355fd83e51461019557806360825d5f146101d257806368c134ea146101fb576100e8565b806314a72feb146100ed5780632827e5bb146101165780632f0152df14610141575b600080fd5b3480156100f957600080fd5b50610114600480360381019061010f91906117b1565b6103a0565b005b34801561012257600080fd5b5061012b6104b0565b604051610138919061181f565b60405180910390f35b34801561014d57600080fd5b506101566104d4565b6040516101639190611899565b60405180910390f35b34801561017857600080fd5b50610193600480360381019061018e9190611919565b6104fa565b005b3480156101a157600080fd5b506101bc60048036038101906101b791906117b1565b6105a8565b6040516101c9919061181f565b60405180910390f35b3480156101de57600080fd5b506101f960048036038101906101f49190611966565b6105e5565b005b34801561020757600080fd5b50610222600480360381019061021d91906117b1565b610a8e565b005b34801561023057600080fd5b50610239610b4d565b60405161024691906119b5565b60405180910390f35b34801561025b57600080fd5b5061027660048036038101906102719190611919565b610be5565b604051610284929190611a7b565b60405180910390f35b34801561029957600080fd5b506102b460048036038101906102af9190611aab565b610d19565b005b6102d060048036038101906102cb9190611b3e565b610eae565b005b3480156102de57600080fd5b506102f960048036038101906102f491906117b1565b611055565b005b34801561030757600080fd5b50610322600480360381019061031d91906117b1565b61137a565b60405161032f919061181f565b60405180910390f35b34801561034457600080fd5b5061034d6113b7565b60405161035a919061181f565b60405180910390f35b34801561036f57600080fd5b5061038a600480360381019061038591906117b1565b6113dd565b6040516103979190611b7e565b60405180910390f35b600015156010600083815260200190815260200160002060003373ffffffffffffffffffffffffffffffffffffffff1673ffffffffffffffffffffffffffffffffffffffff16815260200190815260200160002060009054906101000a900460ff16151514610444576040517f08c379a000000000000000000000000000000000000000000000000000000000815260040161043b90611bf6565b60405180910390fd5b60016010600083815260200190815260200160002060003373ffffffffffffffffffffffffffffffffffffffff1673ffffffffffffffffffffffffffffffffffffffff16815260200190815260200160002060006101000a81548160ff02191690831515021790555050565b60008054906101000a900473ffffffffffffffffffffffffffffffffffffffff1681565b600260009054906101000a900473ffffffffffffffffffffffffffffffffffffffff1681565b600080838381019061050c9190611c54565b915091506000600960008473ffffffffffffffffffffffffffffffffffffffff1673ffffffffffffffffffffffffffffffffffffffff168152602001908152602001600020600083815260200190815260200160002054905080421015801561059257506007600083815260200190815260200160002060009054906101000a900460ff165b156105a1576105a082611407565b5b5050505050565b60006008600083815260200190815260200160002060009054906101000a900473ffffffffffffffffffffffffffffffffffffffff169050919050565b60006105ef610b4d565b905080831115610634576040517f08c379a000000000000000000000000000000000000000000000000000000000815260040161062b90611ce0565b60405180910390fd5b6007600084815260200190815260200160002060009054906101000a900460ff16610694576040517f08c379a000000000000000000000000000000000000000000000000000000000815260040161068b90611d4c565b60405180910390fd5b60011515600f600085815260200190815260200160002060009054906101000a900460ff161515146106fb576040517f08c379a00000000000000000000000000000000000000000000000000000000081526004016106f290611db8565b60405180910390fd5b600d600084815260200190815260200160002054471015610751576040517f08c379a000000000000000000000000000000000000000000000000000000000815260040161074890611e24565b60405180910390fd5b6000600b600085815260200190815260200160002060009054906101000a900473ffffffffffffffffffffffffffffffffffffffff1690506000600d6000868152602001908152602001600020549050600060078510156107b65760035490506107dd565b600785101580156107c75750601e85105b156107d65760045490506107dc565b60055490505b5b336008600088815260200190815260200160002060006101000a81548173ffffffffffffffffffffffffffffffffffffffff021916908373ffffffffffffffffffffffffffffffffffffffff160217905550844261083b9190611e73565b600960003373ffffffffffffffffffffffffffffffffffffffff1673ffffffffffffffffffffffffffffffffffffffff16815260200190815260200160002060008881526020019081526020016000208190555080600a60003373ffffffffffffffffffffffffffffffffffffffff1673ffffffffffffffffffffffffffffffffffffffff16815260200190815260200160002060008881526020019081526020016000208190555060008373ffffffffffffffffffffffffffffffffffffffff168360405161090a90611efe565b60006040518083038185875af1925050503d8060008114610947576040519150601f19603f3d011682016040523d82523d6000602084013e61094c565b606091505b5050905060008054906101000a900473ffffffffffffffffffffffffffffffffffffffff1673ffffffffffffffffffffffffffffffffffffffff166323b872dd30338a6040518463ffffffff1660e01b81526004016109ad93929190611f13565b600060405180830381600087803b1580156109c757600080fd5b505af11580156109db573d6000803e3d6000fd5b5050505080610a1f576040517f08c379a0000000000000000000000000000000000000000000000000000000008152600401610a1690611f96565b60405180910390fd5b8373ffffffffffffffffffffffffffffffffffffffff163373ffffffffffffffffffffffffffffffffffffffff16887fba1e338576e77d64b4e4efb5379bf64c4fbd5da6e1ab28045f24294bed01af6e85604051610a7d91906119b5565b60405180910390a450505050505050565b600160009054906101000a900473ffffffffffffffffffffffffffffffffffffffff1673ffffffffffffffffffffffffffffffffffffffff163373ffffffffffffffffffffffffffffffffffffffff1614610b1e576040517f08c379a0000000000000000000000000000000000000000000000000000000008152600401610b1590612028565b60405180910390fd5b6001600f600083815260200190815260200160002060006101000a81548160ff02191690831515021790555050565b6000600260009054906101000a900473ffffffffffffffffffffffffffffffffffffffff1673ffffffffffffffffffffffffffffffffffffffff166318160ddd6040518163ffffffff1660e01b8152600401602060405180830381865afa158015610bbc573d6000803e3d6000fd5b505050506040513d601f19601f82011682018060405250810190610be0919061205d565b905090565b600060606000808585810190610bfb9190611c54565b915091506000600960008473ffffffffffffffffffffffffffffffffffffffff1673ffffffffffffffffffffffffffffffffffffffff16815260200190815260200160002060008381526020019081526020016000205490506007600083815260200190815260200160002060009054906101000a900460ff168015610cdf57508273ffffffffffffffffffffffffffffffffffffffff166008600084815260200190815260200160002060009054906101000a900473ffffffffffffffffffffffffffffffffffffffff1673ffffffffffffffffffffffffffffffffffffffff16145b15610ceb578042101594505b8282604051602001610cfe92919061208a565b60405160208183030381529060405293505050509250929050565b60008311610d5c576040517f08c379a0000000000000000000000000000000000000000000000000000000008152600401610d53906120ff565b60405180910390fd5b60008211610d9f576040517f08c379a0000000000000000000000000000000000000000000000000000000008152600401610d96906120ff565b60405180910390fd5b60008111610de2576040517f08c379a0000000000000000000000000000000000000000000000000000000008152600401610dd9906120ff565b60405180910390fd5b60016006600086815260200190815260200160002060006101000a81548160ff02191690831515021790555033600b600086815260200190815260200160002060006101000a81548173ffffffffffffffffffffffffffffffffffffffff021916908373ffffffffffffffffffffffffffffffffffffffff16021790555082600d60008681526020019081526020016000208190555081600e60008681526020019081526020016000208190555080600c60008681526020019081526020016000208190555050505050565b6006600083815260200190815260200160002060009054906101000a900460ff16610f0e576040517f08c379a0000000000000000000000000000000000000000000000000000000008152600401610f059061216b565b60405180910390fd5b6007600083815260200190815260200160002060009054906101000a900460ff16610f6e576040517f08c379a0000000000000000000000000000000000000000000000000000000008152600401610f65906121d7565b60405180910390fd5b80610fce57600c600083815260200190815260200160002054341015610fc9576040517f08c379a0000000000000000000000000000000000000000000000000000000008152600401610fc090612269565b60405180910390fd5b611051565b600d600083815260200190815260200160002054341015611024576040517f08c379a000000000000000000000000000000000000000000000000000000000815260040161101b90612269565b60405180910390fd5b60016007600084815260200190815260200160002060006101000a81548160ff0219169083151502179055505b5050565b600061105f610b4d565b9050808211156110a4576040517f08c379a000000000000000000000000000000000000000000000000000000000815260040161109b90611ce0565b60405180910390fd5b60011515600f600084815260200190815260200160002060009054906101000a900460ff1615151461110b576040517f08c379a000000000000000000000000000000000000000000000000000000000815260040161110290611db8565b60405180910390fd5b600e600083815260200190815260200160002054471015611161576040517f08c379a000000000000000000000000000000000000000000000000000000000815260040161115890611e24565b60405180910390fd5b6000600b600084815260200190815260200160002060009054906101000a900473ffffffffffffffffffffffffffffffffffffffff1690506000600c600085815260200190815260200160002054905060006006600086815260200190815260200160002060006101000a81548160ff02191690831515021790555060008273ffffffffffffffffffffffffffffffffffffffff168260405161120390611efe565b60006040518083038185875af1925050503d8060008114611240576040519150601f19603f3d011682016040523d82523d6000602084013e611245565b606091505b5050905060008054906101000a900473ffffffffffffffffffffffffffffffffffffffff1673ffffffffffffffffffffffffffffffffffffffff166323b872dd3033886040518463ffffffff1660e01b81526004016112a693929190611f13565b600060405180830381600087803b1580156112c057600080fd5b505af11580156112d4573d6000803e3d6000fd5b5050505080611318576040517f08c379a000000000000000000000000000000000000000000000000000000000815260040161130f906122d5565b60405180910390fd5b8273ffffffffffffffffffffffffffffffffffffffff163373ffffffffffffffffffffffffffffffffffffffff16867f90740547fe504659050ab00e37233f21d2ccede62364499e2f3ae77ad4b8334360405160405180910390a45050505050565b6000600b600083815260200190815260200160002060009054906101000a900473ffffffffffffffffffffffffffffffffffffffff169050919050565b600160009054906101000a900473ffffffffffffffffffffffffffffffffffffffff1681565b6000600f600083815260200190815260200160002060009054906101000a900460ff169050919050565b6007600082815260200190815260200160002060009054906101000a900460ff16611467576040517f08c379a000000000000000000000000000000000000000000000000000000000815260040161145e90612341565b60405180910390fd5b600080600b600084815260200190815260200160002060009054906101000a900473ffffffffffffffffffffffffffffffffffffffff16905060006114ab846105a8565b90506000600a60008373ffffffffffffffffffffffffffffffffffffffff1673ffffffffffffffffffffffffffffffffffffffff1681526020019081526020016000206000868152602001908152602001600020549050600781101561151557600354935061153c565b600781101580156115265750601e81105b1561153557600454935061153b565b60055493505b5b600084600d60008881526020019081526020016000205461155d9190612361565b905060008054906101000a900473ffffffffffffffffffffffffffffffffffffffff1673ffffffffffffffffffffffffffffffffffffffff166323b872dd8486896040518463ffffffff1660e01b81526004016115bc93929190611f13565b600060405180830381600087803b1580156115d657600080fd5b505af11580156115ea573d6000803e3d6000fd5b5050505060008373ffffffffffffffffffffffffffffffffffffffff1682604051611614906123e1565b60006040518083038185875af1925050503d8060008114611651576040519150601f19603f3d011682016040523d82523d6000602084013e611656565b606091505b5050905060006007600089815260200190815260200160002060006101000a81548160ff02191690831515021790555060006008600089815260200190815260200160002060006101000a81548173ffffffffffffffffffffffffffffffffffffffff021916908373ffffffffffffffffffffffffffffffffffffffff16021790555080611719576040517f08c379a000000000000000000000000000000000000000000000000000000000815260040161171090611f96565b60405180910390fd5b8373ffffffffffffffffffffffffffffffffffffffff16877fb171233e15fd0fbd738719b9c35c56ecc6964e8b9f1b3271be4375dea76497b78860405161176091906119b5565b60405180910390a350505050505050565b600080fd5b600080fd5b6000819050919050565b61178e8161177b565b811461179957600080fd5b50565b6000813590506117ab81611785565b92915050565b6000602082840312156117c7576117c6611771565b5b60006117d58482850161179c565b91505092915050565b600073ffffffffffffffffffffffffffffffffffffffff82169050919050565b6000611809826117de565b9050919050565b611819816117fe565b82525050565b60006020820190506118346000830184611810565b92915050565b6000819050919050565b600061185f61185a611855846117de565b61183a565b6117de565b9050919050565b600061187182611844565b9050919050565b600061188382611866565b9050919050565b61189381611878565b82525050565b60006020820190506118ae600083018461188a565b92915050565b600080fd5b600080fd5b600080fd5b60008083601f8401126118d9576118d86118b4565b5b8235905067ffffffffffffffff8111156118f6576118f56118b9565b5b602083019150836001820283011115611912576119116118be565b5b9250929050565b600080602083850312156119305761192f611771565b5b600083013567ffffffffffffffff81111561194e5761194d611776565b5b61195a858286016118c3565b92509250509250929050565b6000806040838503121561197d5761197c611771565b5b600061198b8582860161179c565b925050602061199c8582860161179c565b9150509250929050565b6119af8161177b565b82525050565b60006020820190506119ca60008301846119a6565b92915050565b60008115159050919050565b6119e5816119d0565b82525050565b600081519050919050565b600082825260208201905092915050565b60005b83811015611a25578082015181840152602081019050611a0a565b60008484015250505050565b6000601f19601f8301169050919050565b6000611a4d826119eb565b611a5781856119f6565b9350611a67818560208601611a07565b611a7081611a31565b840191505092915050565b6000604082019050611a9060008301856119dc565b8181036020830152611aa28184611a42565b90509392505050565b60008060008060808587031215611ac557611ac4611771565b5b6000611ad38782880161179c565b9450506020611ae48782880161179c565b9350506040611af58782880161179c565b9250506060611b068782880161179c565b91505092959194509250565b611b1b816119d0565b8114611b2657600080fd5b50565b600081359050611b3881611b12565b92915050565b60008060408385031215611b5557611b54611771565b5b6000611b638582860161179c565b9250506020611b7485828601611b29565b9150509250929050565b6000602082019050611b9360008301846119dc565b92915050565b600082825260208201905092915050565b7f414c726561647920417070726f76656400000000000000000000000000000000600082015250565b6000611be0601083611b99565b9150611beb82611baa565b602082019050919050565b60006020820190508181036000830152611c0f81611bd3565b9050919050565b6000611c21826117de565b9050919050565b611c3181611c16565b8114611c3c57600080fd5b50565b600081359050611c4e81611c28565b92915050565b60008060408385031215611c6b57611c6a611771565b5b6000611c7985828601611c3f565b9250506020611c8a8582860161179c565b9150509250929050565b7f50726f706572747920646f65736e277420657869737473000000000000000000600082015250565b6000611cca601783611b99565b9150611cd582611c94565b602082019050919050565b60006020820190508181036000830152611cf981611cbd565b9050919050565b7f4861766520746f206465706f736974204561726e657374206669727374000000600082015250565b6000611d36601d83611b99565b9150611d4182611d00565b602082019050919050565b60006020820190508181036000830152611d6581611d29565b9050919050565b7f496e7370656374696f6e2049736e277420706173736564000000000000000000600082015250565b6000611da2601783611b99565b9150611dad82611d6c565b602082019050919050565b60006020820190508181036000830152611dd181611d95565b9050919050565b7f496e73756666696369656e742062616c616e6365000000000000000000000000600082015250565b6000611e0e601483611b99565b9150611e1982611dd8565b602082019050919050565b60006020820190508181036000830152611e3d81611e01565b9050919050565b7f4e487b7100000000000000000000000000000000000000000000000000000000600052601160045260246000fd5b6000611e7e8261177b565b9150611e898361177b565b9250828201905080821115611ea157611ea0611e44565b5b92915050565b600081905092915050565b7f416d6f756e74207472616e736665726564000000000000000000000000000000600082015250565b6000611ee8601183611ea7565b9150611ef382611eb2565b601182019050919050565b6000611f0982611edb565b9150819050919050565b6000606082019050611f286000830186611810565b611f356020830185611810565b611f4260408301846119a6565b949350505050565b7f5472616e7366657220746f206f776e6572206661696c65640000000000000000600082015250565b6000611f80601883611b99565b9150611f8b82611f4a565b602082019050919050565b60006020820190508181036000830152611faf81611f73565b9050919050565b7f4f6e6c7920696e73706563746f722063616e2063616c6c20746869732066756e60008201527f6374696f6e000000000000000000000000000000000000000000000000000000602082015250565b6000612012602583611b99565b915061201d82611fb6565b604082019050919050565b6000602082019050818103600083015261204181612005565b9050919050565b60008151905061205781611785565b92915050565b60006020828403121561207357612072611771565b5b600061208184828501612048565b91505092915050565b600060408201905061209f6000830185611810565b6120ac60208301846119a6565b9392505050565b7f456e746572206120416d6f756e742067726561746572207468616e2030000000600082015250565b60006120e9601d83611b99565b91506120f4826120b3565b602082019050919050565b60006020820190508181036000830152612118816120dc565b9050919050565b7f50726f706572747920697320616c726561647920736f6c640000000000000000600082015250565b6000612155601883611b99565b91506121608261211f565b602082019050919050565b6000602082019050818103600083015261218481612148565b9050919050565b7f50726f7065727479206973206f6e2052656e7400000000000000000000000000600082015250565b60006121c1601383611b99565b91506121cc8261218b565b602082019050919050565b600060208201905081810360008301526121f0816121b4565b9050919050565b7f416d6f756e742073686f756c642062652067726561746572207468616e2f657160008201527f75616c20746f2020657363726f7720616d6f756e740000000000000000000000602082015250565b6000612253603583611b99565b915061225e826121f7565b604082019050919050565b6000602082019050818103600083015261228281612246565b9050919050565b7f5472616e7366657220746f2073656c6c6572206661696c656400000000000000600082015250565b60006122bf601983611b99565b91506122ca82612289565b602082019050919050565b600060208201905081810360008301526122ee816122b2565b9050919050565b7f50726f7065727479206973206e6f74206f6e2072656e74000000000000000000600082015250565b600061232b601783611b99565b9150612336826122f5565b602082019050919050565b6000602082019050818103600083015261235a8161231e565b9050919050565b600061236c8261177b565b91506123778361177b565b925082820390508181111561238f5761238e611e44565b5b92915050565b7f616d6f756e74207472616e7366657272656420746f2074656e616e7400000000600082015250565b60006123cb601c83611ea7565b91506123d682612395565b601c82019050919050565b60006123ec826123be565b915081905091905056fea2646970667358221220bd36a5e5ef3a392c6e9809229a1be4e578d80a063ae9c43ceaffecf87f59f85e64736f6c6343000814003360806040523480156200001157600080fd5b5060405162002d2e38038062002d2e833981810160405281019062000037919062000288565b806040518060400160405280600d81526020017f50726f7065727479546f6b656e000000000000000000000000000000000000008152506040518060400160405280600381526020017f50544b00000000000000000000000000000000000000000000000000000000008152508160009081620000b5919062000534565b508060019081620000c7919062000534565b505050600073ffffffffffffffffffffffffffffffffffffffff168173ffffffffffffffffffffffffffffffffffffffff16036200013f5760006040517f1e4fbdf70000000000000000000000000000000000000000000000000000000081526004016200013691906200062c565b60405180910390fd5b62000150816200015860201b60201c565b505062000649565b6000600760009054906101000a900473ffffffffffffffffffffffffffffffffffffffff16905081600760006101000a81548173ffffffffffffffffffffffffffffffffffffffff021916908373ffffffffffffffffffffffffffffffffffffffff1602179055508173ffffffffffffffffffffffffffffffffffffffff168173ffffffffffffffffffffffffffffffffffffffff167f8be0079c531659141344cd1fd0a4f28419497f9722a3daafe3b4186f6b6457e060405160405180910390a35050565b600080fd5b600073ffffffffffffffffffffffffffffffffffffffff82169050919050565b6000620002508262000223565b9050919050565b620002628162000243565b81146200026e57600080fd5b50565b600081519050620002828162000257565b92915050565b600060208284031215620002a157620002a06200021e565b5b6000620002b18482850162000271565b91505092915050565b600081519050919050565b7f4e487b7100000000000000000000000000000000000000000000000000000000600052604160045260246000fd5b7f4e487b7100000000000000000000000000000000000000000000000000000000600052602260045260246000fd5b600060028204905060018216806200033c57607f821691505b602082108103620003525762000351620002f4565b5b50919050565b60008190508160005260206000209050919050565b60006020601f8301049050919050565b600082821b905092915050565b600060088302620003bc7fffffffffffffffffffffffffffffffffffffffffffffffffffffffffffffffff826200037d565b620003c886836200037d565b95508019841693508086168417925050509392505050565b6000819050919050565b6000819050919050565b6000620004156200040f6200040984620003e0565b620003ea565b620003e0565b9050919050565b6000819050919050565b6200043183620003f4565b6200044962000440826200041c565b8484546200038a565b825550505050565b600090565b6200046062000451565b6200046d81848462000426565b505050565b5b8181101562000495576200048960008262000456565b60018101905062000473565b5050565b601f821115620004e457620004ae8162000358565b620004b9846200036d565b81016020851015620004c9578190505b620004e1620004d8856200036d565b83018262000472565b50505b505050565b600082821c905092915050565b60006200050960001984600802620004e9565b1980831691505092915050565b6000620005248383620004f6565b9150826002028217905092915050565b6200053f82620002ba565b67ffffffffffffffff8111156200055b576200055a620002c5565b5b62000567825462000323565b6200057482828562000499565b600060209050601f831160018114620005ac576000841562000597578287015190505b620005a3858262000516565b86555062000613565b601f198416620005bc8662000358565b60005b82811015620005e657848901518255600182019150602085019450602081019050620005bf565b8683101562000606578489015162000602601f891682620004f6565b8355505b6001600288020188555050505b505050505050565b620006268162000243565b82525050565b60006020820190506200064360008301846200061b565b92915050565b6126d580620006596000396000f3fe608060405234801561001057600080fd5b50600436106101165760003560e01c8063715018a6116100a2578063b88d4fde11610071578063b88d4fde146102cd578063c87b56dd146102e9578063d204c45e14610319578063e985e9c514610335578063f2fde38b1461036557610116565b8063715018a61461026b5780638da5cb5b1461027557806395d89b4114610293578063a22cb465146102b157610116565b806318160ddd116100e957806318160ddd146101b557806323b872dd146101d357806342842e0e146101ef5780636352211e1461020b57806370a082311461023b57610116565b806301ffc9a71461011b57806306fdde031461014b578063081812fc14610169578063095ea7b314610199575b600080fd5b61013560048036038101906101309190611b2d565b610381565b6040516101429190611b75565b60405180910390f35b610153610393565b6040516101609190611c20565b60405180910390f35b610183600480360381019061017e9190611c78565b610425565b6040516101909190611ce6565b60405180910390f35b6101b360048036038101906101ae9190611d2d565b610441565b005b6101bd610457565b6040516101ca9190611d7c565b60405180910390f35b6101ed60048036038101906101e89190611d97565b610461565b005b61020960048036038101906102049190611d97565b610563565b005b61022560048036038101906102209190611c78565b610583565b6040516102329190611ce6565b60405180910390f35b61025560048036038101906102509190611dea565b610595565b6040516102629190611d7c565b60405180910390f35b61027361064f565b005b61027d610663565b60405161028a9190611ce6565b60405180910390f35b61029b61068d565b6040516102a89190611c20565b60405180910390f35b6102cb60048036038101906102c69190611e43565b61071f565b005b6102e760048036038101906102e29190611fb8565b610735565b005b61030360048036038101906102fe9190611c78565b610752565b6040516103109190611c20565b60405180910390f35b610333600480360381019061032e91906120dc565b610764565b005b61034f600480360381019061034a9190612138565b61079e565b60405161035c9190611b75565b60405180910390f35b61037f600480360381019061037a9190611dea565b610832565b005b600061038c826108b8565b9050919050565b6060600080546103a2906121a7565b80601f01602080910402602001604051908101604052809291908181526020018280546103ce906121a7565b801561041b5780601f106103f05761010080835404028352916020019161041b565b820191906000526020600020905b8154815290600101906020018083116103fe57829003601f168201915b5050505050905090565b600061043082610919565b5061043a826109a1565b9050919050565b610453828261044e6109de565b6109e6565b5050565b6000600854905090565b600073ffffffffffffffffffffffffffffffffffffffff168273ffffffffffffffffffffffffffffffffffffffff16036104d35760006040517f64a0ae920000000000000000000000000000000000000000000000000000000081526004016104ca9190611ce6565b60405180910390fd5b60006104e783836104e26109de565b6109f8565b90508373ffffffffffffffffffffffffffffffffffffffff168173ffffffffffffffffffffffffffffffffffffffff161461055d578382826040517f64283d7b000000000000000000000000000000000000000000000000000000008152600401610554939291906121d8565b60405180910390fd5b50505050565b61057e83838360405180602001604052806000815250610735565b505050565b600061058e82610919565b9050919050565b60008073ffffffffffffffffffffffffffffffffffffffff168273ffffffffffffffffffffffffffffffffffffffff16036106085760006040517f89c62b640000000000000000000000000000000000000000000000000000000081526004016105ff9190611ce6565b60405180910390fd5b600360008373ffffffffffffffffffffffffffffffffffffffff1673ffffffffffffffffffffffffffffffffffffffff168152602001908152602001600020549050919050565b610657610c12565b6106616000610c99565b565b6000600760009054906101000a900473ffffffffffffffffffffffffffffffffffffffff16905090565b60606001805461069c906121a7565b80601f01602080910402602001604051908101604052809291908181526020018280546106c8906121a7565b80156107155780601f106106ea57610100808354040283529160200191610715565b820191906000526020600020905b8154815290600101906020018083116106f857829003601f168201915b5050505050905090565b61073161072a6109de565b8383610d5f565b5050565b610740848484610461565b61074c84848484610ece565b50505050565b606061075d82611085565b9050919050565b61076c610c12565b600060086000815461077d9061223e565b919050819055905061078f8382611198565b61079981836111b6565b505050565b6000600560008473ffffffffffffffffffffffffffffffffffffffff1673ffffffffffffffffffffffffffffffffffffffff16815260200190815260200160002060008373ffffffffffffffffffffffffffffffffffffffff1673ffffffffffffffffffffffffffffffffffffffff16815260200190815260200160002060009054906101000a900460ff16905092915050565b61083a610c12565b600073ffffffffffffffffffffffffffffffffffffffff168173ffffffffffffffffffffffffffffffffffffffff16036108ac5760006040517f1e4fbdf70000000000000000000000000000000000000000000000000000000081526004016108a39190611ce6565b60405180910390fd5b6108b581610c99565b50565b6000634906490660e01b7bffffffffffffffffffffffffffffffffffffffffffffffffffffffff1916827bffffffffffffffffffffffffffffffffffffffffffffffffffffffff19161480610912575061091182611212565b5b9050919050565b600080610925836112f4565b9050600073ffffffffffffffffffffffffffffffffffffffff168173ffffffffffffffffffffffffffffffffffffffff160361099857826040517f7e27328900000000000000000000000000000000000000000000000000000000815260040161098f9190611d7c565b60405180910390fd5b80915050919050565b60006004600083815260200190815260200160002060009054906101000a900473ffffffffffffffffffffffffffffffffffffffff169050919050565b600033905090565b6109f38383836001611331565b505050565b600080610a04846112f4565b9050600073ffffffffffffffffffffffffffffffffffffffff168373ffffffffffffffffffffffffffffffffffffffff1614610a4657610a458184866114f6565b5b600073ffffffffffffffffffffffffffffffffffffffff168173ffffffffffffffffffffffffffffffffffffffff1614610ad757610a88600085600080611331565b6001600360008373ffffffffffffffffffffffffffffffffffffffff1673ffffffffffffffffffffffffffffffffffffffff168152602001908152602001600020600082825403925050819055505b600073ffffffffffffffffffffffffffffffffffffffff168573ffffffffffffffffffffffffffffffffffffffff1614610b5a576001600360008773ffffffffffffffffffffffffffffffffffffffff1673ffffffffffffffffffffffffffffffffffffffff168152602001908152602001600020600082825401925050819055505b846002600086815260200190815260200160002060006101000a81548173ffffffffffffffffffffffffffffffffffffffff021916908373ffffffffffffffffffffffffffffffffffffffff160217905550838573ffffffffffffffffffffffffffffffffffffffff168273ffffffffffffffffffffffffffffffffffffffff167fddf252ad1be2c89b69c2b068fc378daa952ba7f163c4a11628f55a4df523b3ef60405160405180910390a4809150509392505050565b610c1a6109de565b73ffffffffffffffffffffffffffffffffffffffff16610c38610663565b73ffffffffffffffffffffffffffffffffffffffff1614610c9757610c5b6109de565b6040517f118cdaa7000000000000000000000000000000000000000000000000000000008152600401610c8e9190611ce6565b60405180910390fd5b565b6000600760009054906101000a900473ffffffffffffffffffffffffffffffffffffffff16905081600760006101000a81548173ffffffffffffffffffffffffffffffffffffffff021916908373ffffffffffffffffffffffffffffffffffffffff1602179055508173ffffffffffffffffffffffffffffffffffffffff168173ffffffffffffffffffffffffffffffffffffffff167f8be0079c531659141344cd1fd0a4f28419497f9722a3daafe3b4186f6b6457e060405160405180910390a35050565b600073ffffffffffffffffffffffffffffffffffffffff168273ffffffffffffffffffffffffffffffffffffffff1603610dd057816040517f5b08ba18000000000000000000000000000000000000000000000000000000008152600401610dc79190611ce6565b60405180910390fd5b80600560008573ffffffffffffffffffffffffffffffffffffffff1673ffffffffffffffffffffffffffffffffffffffff16815260200190815260200160002060008473ffffffffffffffffffffffffffffffffffffffff1673ffffffffffffffffffffffffffffffffffffffff16815260200190815260200160002060006101000a81548160ff0219169083151502179055508173ffffffffffffffffffffffffffffffffffffffff168373ffffffffffffffffffffffffffffffffffffffff167f17307eab39ab6107e8899845ad3d59bd9653f200f220920489ca2b5937696c3183604051610ec19190611b75565b60405180910390a3505050565b60008373ffffffffffffffffffffffffffffffffffffffff163b111561107f578273ffffffffffffffffffffffffffffffffffffffff1663150b7a02610f126109de565b8685856040518563ffffffff1660e01b8152600401610f3494939291906122db565b6020604051808303816000875af1925050508015610f7057506040513d601f19601f82011682018060405250810190610f6d919061233c565b60015b610ff4573d8060008114610fa0576040519150601f19603f3d011682016040523d82523d6000602084013e610fa5565b606091505b506000815103610fec57836040517f64a0ae92000000000000000000000000000000000000000000000000000000008152600401610fe39190611ce6565b60405180910390fd5b805181602001fd5b63150b7a0260e01b7bffffffffffffffffffffffffffffffffffffffffffffffffffffffff1916817bffffffffffffffffffffffffffffffffffffffffffffffffffffffff19161461107d57836040517f64a0ae920000000000000000000000000000000000000000000000000000000081526004016110749190611ce6565b60405180910390fd5b505b50505050565b606061109082610919565b5060006006600084815260200190815260200160002080546110b1906121a7565b80601f01602080910402602001604051908101604052809291908181526020018280546110dd906121a7565b801561112a5780601f106110ff5761010080835404028352916020019161112a565b820191906000526020600020905b81548152906001019060200180831161110d57829003601f168201915b50505050509050600061113b6115ba565b90506000815103611150578192505050611193565b60008251111561118557808260405160200161116d9291906123a5565b60405160208183030381529060405292505050611193565b61118e846115f7565b925050505b919050565b6111b2828260405180602001604052806000815250611660565b5050565b806006600084815260200190815260200160002090816111d69190612575565b507ff8e1a15aba9398e019f0b49df1a4fde98ee17ae345cb5f6b5e2c27f5033e8ce7826040516112069190611d7c565b60405180910390a15050565b60007f80ac58cd000000000000000000000000000000000000000000000000000000007bffffffffffffffffffffffffffffffffffffffffffffffffffffffff1916827bffffffffffffffffffffffffffffffffffffffffffffffffffffffff191614806112dd57507f5b5e139f000000000000000000000000000000000000000000000000000000007bffffffffffffffffffffffffffffffffffffffffffffffffffffffff1916827bffffffffffffffffffffffffffffffffffffffffffffffffffffffff1916145b806112ed57506112ec8261167c565b5b9050919050565b60006002600083815260200190815260200160002060009054906101000a900473ffffffffffffffffffffffffffffffffffffffff169050919050565b808061136a5750600073ffffffffffffffffffffffffffffffffffffffff168273ffffffffffffffffffffffffffffffffffffffff1614155b1561149e57600061137a84610919565b9050600073ffffffffffffffffffffffffffffffffffffffff168373ffffffffffffffffffffffffffffffffffffffff16141580156113e557508273ffffffffffffffffffffffffffffffffffffffff168173ffffffffffffffffffffffffffffffffffffffff1614155b80156113f857506113f6818461079e565b155b1561143a57826040517fa9fbf51f0000000000000000000000000000000000000000000000000000000081526004016114319190611ce6565b60405180910390fd5b811561149c57838573ffffffffffffffffffffffffffffffffffffffff168273ffffffffffffffffffffffffffffffffffffffff167f8c5be1e5ebec7d5bd14f71427d1e84f3dd0314c0f7b2291e5b200ac8c7c3b92560405160405180910390a45b505b836004600085815260200190815260200160002060006101000a81548173ffffffffffffffffffffffffffffffffffffffff021916908373ffffffffffffffffffffffffffffffffffffffff16021790555050505050565b6115018383836116e6565b6115b557600073ffffffffffffffffffffffffffffffffffffffff168373ffffffffffffffffffffffffffffffffffffffff160361157657806040517f7e27328900000000000000000000000000000000000000000000000000000000815260040161156d9190611d7c565b60405180910390fd5b81816040517f177e802f0000000000000000000000000000000000000000000000000000000081526004016115ac929190612647565b60405180910390fd5b505050565b60606040518060400160405280600481526020017f64656d6f00000000000000000000000000000000000000000000000000000000815250905090565b606061160282610919565b50600061160d6115ba565b9050600081511161162d5760405180602001604052806000815250611658565b80611637846117a7565b6040516020016116489291906123a5565b6040516020818303038152906040525b915050919050565b61166a8383611875565b6116776000848484610ece565b505050565b60007f01ffc9a7000000000000000000000000000000000000000000000000000000007bffffffffffffffffffffffffffffffffffffffffffffffffffffffff1916827bffffffffffffffffffffffffffffffffffffffffffffffffffffffff1916149050919050565b60008073ffffffffffffffffffffffffffffffffffffffff168373ffffffffffffffffffffffffffffffffffffffff161415801561179e57508273ffffffffffffffffffffffffffffffffffffffff168473ffffffffffffffffffffffffffffffffffffffff16148061175f575061175e848461079e565b5b8061179d57508273ffffffffffffffffffffffffffffffffffffffff16611785836109a1565b73ffffffffffffffffffffffffffffffffffffffff16145b5b90509392505050565b6060600060016117b68461196e565b01905060008167ffffffffffffffff8111156117d5576117d4611e8d565b5b6040519080825280601f01601f1916602001820160405280156118075781602001600182028036833780820191505090505b509050600082602001820190505b60011561186a578080600190039150507f3031323334353637383961626364656600000000000000000000000000000000600a86061a8153600a858161185e5761185d612670565b5b04945060008503611815575b819350505050919050565b600073ffffffffffffffffffffffffffffffffffffffff168273ffffffffffffffffffffffffffffffffffffffff16036118e75760006040517f64a0ae920000000000000000000000000000000000000000000000000000000081526004016118de9190611ce6565b60405180910390fd5b60006118f5838360006109f8565b9050600073ffffffffffffffffffffffffffffffffffffffff168173ffffffffffffffffffffffffffffffffffffffff16146119695760006040517f73c6ac6e0000000000000000000000000000000000000000000000000000000081526004016119609190611ce6565b60405180910390fd5b505050565b600080600090507a184f03e93ff9f4daa797ed6e38ed64bf6a1f01000000000000000083106119cc577a184f03e93ff9f4daa797ed6e38ed64bf6a1f01000000000000000083816119c2576119c1612670565b5b0492506040810190505b6d04ee2d6d415b85acef81000000008310611a09576d04ee2d6d415b85acef810000000083816119ff576119fe612670565b5b0492506020810190505b662386f26fc100008310611a3857662386f26fc100008381611a2e57611a2d612670565b5b0492506010810190505b6305f5e1008310611a61576305f5e1008381611a5757611a56612670565b5b0492506008810190505b6127108310611a86576127108381611a7c57611a7b612670565b5b0492506004810190505b60648310611aa95760648381611a9f57611a9e612670565b5b0492506002810190505b600a8310611ab8576001810190505b80915050919050565b6000604051905090565b600080fd5b600080fd5b60007fffffffff0000000000000000000000000000000000000000000000000000000082169050919050565b611b0a81611ad5565b8114611b1557600080fd5b50565b600081359050611b2781611b01565b92915050565b600060208284031215611b4357611b42611acb565b5b6000611b5184828501611b18565b91505092915050565b60008115159050919050565b611b6f81611b5a565b82525050565b6000602082019050611b8a6000830184611b66565b92915050565b600081519050919050565b600082825260208201905092915050565b60005b83811015611bca578082015181840152602081019050611baf565b60008484015250505050565b6000601f19601f8301169050919050565b6000611bf282611b90565b611bfc8185611b9b565b9350611c0c818560208601611bac565b611c1581611bd6565b840191505092915050565b60006020820190508181036000830152611c3a8184611be7565b905092915050565b6000819050919050565b611c5581611c42565b8114611c6057600080fd5b50565b600081359050611c7281611c4c565b92915050565b600060208284031215611c8e57611c8d611acb565b5b6000611c9c84828501611c63565b91505092915050565b600073ffffffffffffffffffffffffffffffffffffffff82169050919050565b6000611cd082611ca5565b9050919050565b611ce081611cc5565b82525050565b6000602082019050611cfb6000830184611cd7565b92915050565b611d0a81611cc5565b8114611d1557600080fd5b50565b600081359050611d2781611d01565b92915050565b60008060408385031215611d4457611d43611acb565b5b6000611d5285828601611d18565b9250506020611d6385828601611c63565b9150509250929050565b611d7681611c42565b82525050565b6000602082019050611d916000830184611d6d565b92915050565b600080600060608486031215611db057611daf611acb565b5b6000611dbe86828701611d18565b9350506020611dcf86828701611d18565b9250506040611de086828701611c63565b9150509250925092565b600060208284031215611e0057611dff611acb565b5b6000611e0e84828501611d18565b91505092915050565b611e2081611b5a565b8114611e2b57600080fd5b50565b600081359050611e3d81611e17565b92915050565b60008060408385031215611e5a57611e59611acb565b5b6000611e6885828601611d18565b9250506020611e7985828601611e2e565b9150509250929050565b600080fd5b600080fd5b7f4e487b7100000000000000000000000000000000000000000000000000000000600052604160045260246000fd5b611ec582611bd6565b810181811067ffffffffffffffff82111715611ee457611ee3611e8d565b5b80604052505050565b6000611ef7611ac1565b9050611f038282611ebc565b919050565b600067ffffffffffffffff821115611f2357611f22611e8d565b5b611f2c82611bd6565b9050602081019050919050565b82818337600083830152505050565b6000611f5b611f5684611f08565b611eed565b905082815260208101848484011115611f7757611f76611e88565b5b611f82848285611f39565b509392505050565b600082601f830112611f9f57611f9e611e83565b5b8135611faf848260208601611f48565b91505092915050565b60008060008060808587031215611fd257611fd1611acb565b5b6000611fe087828801611d18565b9450506020611ff187828801611d18565b935050604061200287828801611c63565b925050606085013567ffffffffffffffff81111561202357612022611ad0565b5b61202f87828801611f8a565b91505092959194509250565b600067ffffffffffffffff82111561205657612055611e8d565b5b61205f82611bd6565b9050602081019050919050565b600061207f61207a8461203b565b611eed565b90508281526020810184848401111561209b5761209a611e88565b5b6120a6848285611f39565b509392505050565b600082601f8301126120c3576120c2611e83565b5b81356120d384826020860161206c565b91505092915050565b600080604083850312156120f3576120f2611acb565b5b600061210185828601611d18565b925050602083013567ffffffffffffffff81111561212257612121611ad0565b5b61212e858286016120ae565b9150509250929050565b6000806040838503121561214f5761214e611acb565b5b600061215d85828601611d18565b925050602061216e85828601611d18565b9150509250929050565b7f4e487b7100000000000000000000000000000000000000000000000000000000600052602260045260246000fd5b600060028204905060018216806121bf57607f821691505b6020821081036121d2576121d1612178565b5b50919050565b60006060820190506121ed6000830186611cd7565b6121fa6020830185611d6d565b6122076040830184611cd7565b949350505050565b7f4e487b7100000000000000000000000000000000000000000000000000000000600052601160045260246000fd5b600061224982611c42565b91507fffffffffffffffffffffffffffffffffffffffffffffffffffffffffffffffff820361227b5761227a61220f565b5b600182019050919050565b600081519050919050565b600082825260208201905092915050565b60006122ad82612286565b6122b78185612291565b93506122c7818560208601611bac565b6122d081611bd6565b840191505092915050565b60006080820190506122f06000830187611cd7565b6122fd6020830186611cd7565b61230a6040830185611d6d565b818103606083015261231c81846122a2565b905095945050505050565b60008151905061233681611b01565b92915050565b60006020828403121561235257612351611acb565b5b600061236084828501612327565b91505092915050565b600081905092915050565b600061237f82611b90565b6123898185612369565b9350612399818560208601611bac565b80840191505092915050565b60006123b18285612374565b91506123bd8284612374565b91508190509392505050565b60008190508160005260206000209050919050565b60006020601f8301049050919050565b600082821b905092915050565b60006008830261242b7fffffffffffffffffffffffffffffffffffffffffffffffffffffffffffffffff826123ee565b61243586836123ee565b95508019841693508086168417925050509392505050565b6000819050919050565b600061247261246d61246884611c42565b61244d565b611c42565b9050919050565b6000819050919050565b61248c83612457565b6124a061249882612479565b8484546123fb565b825550505050565b600090565b6124b56124a8565b6124c0818484612483565b505050565b5b818110156124e4576124d96000826124ad565b6001810190506124c6565b5050565b601f821115612529576124fa816123c9565b612503846123de565b81016020851015612512578190505b61252661251e856123de565b8301826124c5565b50505b505050565b600082821c905092915050565b600061254c6000198460080261252e565b1980831691505092915050565b6000612565838361253b565b9150826002028217905092915050565b61257e82611b90565b67ffffffffffffffff81111561259757612596611e8d565b5b6125a182546121a7565b6125ac8282856124e8565b600060209050601f8311600181146125df57600084156125cd578287015190505b6125d78582612559565b86555061263f565b601f1984166125ed866123c9565b60005b82811015612615578489015182556001820191506020850194506020810190506125f0565b86831015612632578489015161262e601f89168261253b565b8355505b6001600288020188555050505b505050505050565b600060408201905061265c6000830185611cd7565b6126696020830184611d6d565b9392505050565b7f4e487b7100000000000000000000000000000000000000000000000000000000600052601260045260246000fdfea26469706673582212202113c2521b4f67920a074185b9b8f75100abf0a97d5176534b186a39c28a5a8764736f6c63430008140033",
  "linkReferences": {},
  "deployedLinkReferences": {}
}