{
  "_format": "hh-sol-artifact-1",
  "contractName": "Escrow",
  "sourceName": "contracts/Escrow.sol",
  "abi": [
    {
      "inputs": [
        {
          "internalType": "address",
          "name": "_nftaddress",
          "type": "address"
        },
        {
          "internalType": "address",
          "name": "_inspector",
          "type": "address"
        }
      ],
      "stateMutability": "nonpayable",
      "type": "constructor"
    },
    {
      "anonymous": false,
      "inputs": [
        {
          "indexed": true,
          "internalType": "uint256",
          "name": "nftId",
          "type": "uint256"
        },
        {
          "indexed": true,
          "internalType": "address",
          "name": "buyer",
          "type": "address"
        },
        {
          "indexed": true,
          "internalType": "address",
          "name": "seller",
          "type": "address"
        }
      ],
      "name": "PurchaisedPropertySuccess",
      "type": "event"
    },
    {
      "anonymous": false,
      "inputs": [
        {
          "indexed": true,
          "internalType": "uint256",
          "name": "nftId",
          "type": "uint256"
        },
        {
          "indexed": true,
          "internalType": "address",
          "name": "tenant",
          "type": "address"
        },
        {
          "indexed": true,
          "internalType": "address",
          "name": "owner",
          "type": "address"
        },
        {
          "indexed": false,
          "internalType": "uint256",
          "name": "rent",
          "type": "uint256"
        }
      ],
      "name": "RentedPropertySuccess",
      "type": "event"
    },
    {
      "anonymous": false,
      "inputs": [
        {
          "indexed": true,
          "internalType": "uint256",
          "name": "nftId",
          "type": "uint256"
        },
        {
          "indexed": true,
          "internalType": "address",
          "name": "tenant",
          "type": "address"
        },
        {
          "indexed": false,
          "internalType": "uint256",
          "name": "rentPaid",
          "type": "uint256"
        }
      ],
      "name": "returnRentedProperty",
      "type": "event"
    },
    {
      "inputs": [],
      "name": "PTKcontract",
      "outputs": [
        {
          "internalType": "contract PropertyToken",
          "name": "",
          "type": "address"
        }
      ],
      "stateMutability": "view",
      "type": "function"
    },
    {
      "inputs": [
        {
          "internalType": "uint256",
          "name": "",
          "type": "uint256"
        }
      ],
      "name": "activeTokensOnRent",
      "outputs": [
        {
          "internalType": "uint256",
          "name": "",
          "type": "uint256"
        }
      ],
      "stateMutability": "view",
      "type": "function"
    },
    {
      "inputs": [
        {
          "internalType": "uint256",
          "name": "nftId",
          "type": "uint256"
        }
      ],
      "name": "approveInspection",
      "outputs": [],
      "stateMutability": "nonpayable",
      "type": "function"
    },
    {
      "inputs": [
        {
          "internalType": "uint256",
          "name": "nftId",
          "type": "uint256"
        }
      ],
      "name": "approveSale",
      "outputs": [],
      "stateMutability": "nonpayable",
      "type": "function"
    },
    {
      "inputs": [
        {
          "internalType": "bytes",
          "name": "checkdata",
          "type": "bytes"
        }
      ],
      "name": "checkUpkeep",
      "outputs": [
        {
          "internalType": "bool",
          "name": "upkeepNeeded",
          "type": "bool"
        },
        {
          "internalType": "bytes",
          "name": "performData",
          "type": "bytes"
        }
      ],
      "stateMutability": "view",
      "type": "function"
    },
    {
      "inputs": [
        {
          "internalType": "uint256",
          "name": "nftId",
          "type": "uint256"
        },
        {
          "internalType": "bool",
          "name": "rent",
          "type": "bool"
        }
      ],
      "name": "depositEarnest",
      "outputs": [],
      "stateMutability": "payable",
      "type": "function"
    },
    {
      "inputs": [
        {
          "internalType": "uint256",
          "name": "nftId",
          "type": "uint256"
        }
      ],
      "name": "executeBuying",
      "outputs": [],
      "stateMutability": "nonpayable",
      "type": "function"
    },
    {
      "inputs": [
        {
          "internalType": "uint256",
          "name": "nftId",
          "type": "uint256"
        },
        {
          "internalType": "uint256",
          "name": "duration",
          "type": "uint256"
        }
      ],
      "name": "executeRent",
      "outputs": [],
      "stateMutability": "nonpayable",
      "type": "function"
    },
    {
      "inputs": [
        {
          "internalType": "uint256",
          "name": "nftId",
          "type": "uint256"
        }
      ],
      "name": "getInspectionStatus",
      "outputs": [
        {
          "internalType": "bool",
          "name": "",
          "type": "bool"
        }
      ],
      "stateMutability": "view",
      "type": "function"
    },
    {
      "inputs": [
        {
          "internalType": "uint256",
          "name": "nftId",
          "type": "uint256"
        }
      ],
      "name": "getSeller",
      "outputs": [
        {
          "internalType": "address",
          "name": "",
          "type": "address"
        }
      ],
      "stateMutability": "view",
      "type": "function"
    },
    {
      "inputs": [],
      "name": "getSupply",
      "outputs": [
        {
          "internalType": "uint256",
          "name": "",
          "type": "uint256"
        }
      ],
      "stateMutability": "view",
      "type": "function"
    },
    {
      "inputs": [
        {
          "internalType": "uint256",
          "name": "nftId",
          "type": "uint256"
        }
      ],
      "name": "getTenant",
      "outputs": [
        {
          "internalType": "address",
          "name": "",
          "type": "address"
        }
      ],
      "stateMutability": "view",
      "type": "function"
    },
    {
      "inputs": [],
      "name": "inspector",
      "outputs": [
        {
          "internalType": "address",
          "name": "",
          "type": "address"
        }
      ],
      "stateMutability": "view",
      "type": "function"
    },
    {
      "inputs": [
        {
          "internalType": "uint256",
          "name": "nftId",
          "type": "uint256"
        },
        {
          "internalType": "uint256",
          "name": "_priceForRent",
          "type": "uint256"
        },
        {
          "internalType": "uint256",
          "name": "_priceForBuy",
          "type": "uint256"
        },
        {
          "internalType": "uint256",
          "name": "_escrowAmt",
          "type": "uint256"
        }
      ],
      "name": "listProperty",
      "outputs": [],
      "stateMutability": "nonpayable",
      "type": "function"
    },
    {
      "inputs": [],
      "name": "nftaddress",
      "outputs": [
        {
          "internalType": "address",
          "name": "",
          "type": "address"
        }
      ],
      "stateMutability": "view",
      "type": "function"
    },
    {
      "inputs": [
        {
          "internalType": "bytes",
          "name": "performData",
          "type": "bytes"
        }
      ],
      "name": "performUpkeep",
      "outputs": [],
      "stateMutability": "nonpayable",
      "type": "function"
    }
  ],
  "bytecode": "0x60806040526001600355600260045560036005553480156200002057600080fd5b506040516200574a3803806200574a8339818101604052810190620000469190620001d4565b735b38da6a701c568545dcfcb03fcb875f56beddc460405162000069906200015c565b6200007591906200022c565b604051809103906000f08015801562000092573d6000803e3d6000fd5b50600260006101000a81548173ffffffffffffffffffffffffffffffffffffffff021916908373ffffffffffffffffffffffffffffffffffffffff160217905550816000806101000a81548173ffffffffffffffffffffffffffffffffffffffff021916908373ffffffffffffffffffffffffffffffffffffffff16021790555080600160006101000a81548173ffffffffffffffffffffffffffffffffffffffff021916908373ffffffffffffffffffffffffffffffffffffffff160217905550505062000249565b612d2e8062002a1c83390190565b600080fd5b600073ffffffffffffffffffffffffffffffffffffffff82169050919050565b60006200019c826200016f565b9050919050565b620001ae816200018f565b8114620001ba57600080fd5b50565b600081519050620001ce81620001a3565b92915050565b60008060408385031215620001ee57620001ed6200016a565b5b6000620001fe85828601620001bd565b92505060206200021185828601620001bd565b9150509250929050565b62000226816200018f565b82525050565b60006020820190506200024360008301846200021b565b92915050565b6127c380620002596000396000f3fe6080604052600436106100f35760003560e01c80636c9c2faf1161008a578063d4627dde11610059578063d4627dde1461031a578063d6a9de5114610343578063ed2cee9e14610380578063f4809ed0146103ab576100f3565b80636c9c2faf1461026c5780636e04ff0d14610297578063cc8a658b146102d5578063d2131e4a146102fe576100f3565b80634585e33b116100c65780634585e33b146101b457806355fd83e5146101dd57806360825d5f1461021a57806368c134ea14610243576100f3565b806314a72feb146100f85780632827e5bb146101215780632f0152df1461014c5780633db436ee14610177575b600080fd5b34801561010457600080fd5b5061011f600480360381019061011a9190611911565b6103e8565b005b34801561012d57600080fd5b506101366104f2565b604051610143919061197f565b60405180910390f35b34801561015857600080fd5b50610161610516565b60405161016e91906119f9565b60405180910390f35b34801561018357600080fd5b5061019e60048036038101906101999190611911565b61053c565b6040516101ab9190611a23565b60405180910390f35b3480156101c057600080fd5b506101db60048036038101906101d69190611aa3565b610560565b005b3480156101e957600080fd5b5061020460048036038101906101ff9190611911565b6105bb565b604051610211919061197f565b60405180910390f35b34801561022657600080fd5b50610241600480360381019061023c9190611af0565b6105f8565b005b34801561024f57600080fd5b5061026a60048036038101906102659190611911565b610a91565b005b34801561027857600080fd5b50610281610b50565b60405161028e9190611a23565b60405180910390f35b3480156102a357600080fd5b506102be60048036038101906102b99190611aa3565b610be8565b6040516102cc929190611bdb565b60405180910390f35b3480156102e157600080fd5b506102fc60048036038101906102f79190611c0b565b610e15565b005b61031860048036038101906103139190611c9e565b610faa565b005b34801561032657600080fd5b50610341600480360381019061033c9190611911565b6111b9565b005b34801561034f57600080fd5b5061036a60048036038101906103659190611911565b6114de565b604051610377919061197f565b60405180910390f35b34801561038c57600080fd5b5061039561151b565b6040516103a2919061197f565b60405180910390f35b3480156103b757600080fd5b506103d260048036038101906103cd9190611911565b611541565b6040516103df9190611cde565b60405180910390f35b600f600082815260200190815260200160002060003373ffffffffffffffffffffffffffffffffffffffff1673ffffffffffffffffffffffffffffffffffffffff16815260200190815260200160002060009054906101000a900460ff1615610486576040517f08c379a000000000000000000000000000000000000000000000000000000000815260040161047d90611d56565b60405180910390fd5b6001600f600083815260200190815260200160002060003373ffffffffffffffffffffffffffffffffffffffff1673ffffffffffffffffffffffffffffffffffffffff16815260200190815260200160002060006101000a81548160ff02191690831515021790555050565b60008054906101000a900473ffffffffffffffffffffffffffffffffffffffff1681565b600260009054906101000a900473ffffffffffffffffffffffffffffffffffffffff1681565b6010818154811061054c57600080fd5b906000526020600020016000915090505481565b600082828101906105719190611eb4565b905060005b81518110156105b5576105a282828151811061059557610594611efd565b5b602002602001015161156b565b80806105ad90611f5b565b915050610576565b50505050565b60006007600083815260200190815260200160002060009054906101000a900473ffffffffffffffffffffffffffffffffffffffff169050919050565b6000610602610b50565b905080831115610647576040517f08c379a000000000000000000000000000000000000000000000000000000000815260040161063e90611fef565b60405180910390fd5b3373ffffffffffffffffffffffffffffffffffffffff166007600085815260200190815260200160002060009054906101000a900473ffffffffffffffffffffffffffffffffffffffff1673ffffffffffffffffffffffffffffffffffffffff16146106e8576040517f08c379a00000000000000000000000000000000000000000000000000000000081526004016106df9061205b565b60405180910390fd5b60011515600e600085815260200190815260200160002060009054906101000a900460ff1615151461074f576040517f08c379a0000000000000000000000000000000000000000000000000000000008152600401610746906120c7565b60405180910390fd5b600c6000848152602001908152602001600020544710156107a5576040517f08c379a000000000000000000000000000000000000000000000000000000000815260040161079c90612133565b60405180910390fd5b6000600a600085815260200190815260200160002060009054906101000a900473ffffffffffffffffffffffffffffffffffffffff1690506000600c60008681526020019081526020016000205490506000600785101561080a576003549050610831565b6007851015801561081b5750601e85105b1561082a576004549050610830565b60055490505b5b336007600088815260200190815260200160002060006101000a81548173ffffffffffffffffffffffffffffffffffffffff021916908373ffffffffffffffffffffffffffffffffffffffff160217905550844261088f9190612153565b600860008881526020019081526020016000208190555084600960008881526020019081526020016000208190555060008373ffffffffffffffffffffffffffffffffffffffff16836040516108e4906121de565b60006040518083038185875af1925050503d8060008114610921576040519150601f19603f3d011682016040523d82523d6000602084013e610926565b606091505b5050905060008054906101000a900473ffffffffffffffffffffffffffffffffffffffff1673ffffffffffffffffffffffffffffffffffffffff166323b872dd30338a6040518463ffffffff1660e01b8152600401610987939291906121f3565b600060405180830381600087803b1580156109a157600080fd5b505af11580156109b5573d6000803e3d6000fd5b50505050601087908060018154018082558091505060019003906000526020600020016000909190919091505580610a22576040517f08c379a0000000000000000000000000000000000000000000000000000000008152600401610a1990612276565b60405180910390fd5b8373ffffffffffffffffffffffffffffffffffffffff163373ffffffffffffffffffffffffffffffffffffffff16887fba1e338576e77d64b4e4efb5379bf64c4fbd5da6e1ab28045f24294bed01af6e85604051610a809190611a23565b60405180910390a450505050505050565b600160009054906101000a900473ffffffffffffffffffffffffffffffffffffffff1673ffffffffffffffffffffffffffffffffffffffff163373ffffffffffffffffffffffffffffffffffffffff1614610b21576040517f08c379a0000000000000000000000000000000000000000000000000000000008152600401610b1890612308565b60405180910390fd5b6001600e600083815260200190815260200160002060006101000a81548160ff02191690831515021790555050565b6000600260009054906101000a900473ffffffffffffffffffffffffffffffffffffffff1673ffffffffffffffffffffffffffffffffffffffff166318160ddd6040518163ffffffff1660e01b8152600401602060405180830381865afa158015610bbf573d6000803e3d6000fd5b505050506040513d601f19601f82011682018060405250810190610be3919061233d565b905090565b60006060600060108054905067ffffffffffffffff811115610c0d57610c0c611d76565b5b604051908082528060200260200182016040528015610c3b5781602001602082028036833780820191505090505b5090506000805b601080549050811015610d3d57600060108281548110610c6557610c64611efd565b5b90600052602060002001549050600073ffffffffffffffffffffffffffffffffffffffff166007600083815260200190815260200160002060009054906101000a900473ffffffffffffffffffffffffffffffffffffffff1673ffffffffffffffffffffffffffffffffffffffff1614158015610cf5575060086000828152602001908152602001600020544210155b15610d295780848481518110610d0e57610d0d611efd565b5b6020026020010181815250508280610d2590611f5b565b9350505b508080610d3590611f5b565b915050610c42565b5060008167ffffffffffffffff811115610d5a57610d59611d76565b5b604051908082528060200260200182016040528015610d885781602001602082028036833780820191505090505b50905060005b828111610de257838181518110610da857610da7611efd565b5b6020026020010151828281518110610dc357610dc2611efd565b5b6020026020010181815250508080610dda90611f5b565b915050610d8e565b5060008211945080604051602001610dfa9190612428565b60405160208183030381529060405293505050509250929050565b60008311610e58576040517f08c379a0000000000000000000000000000000000000000000000000000000008152600401610e4f90612496565b60405180910390fd5b60008211610e9b576040517f08c379a0000000000000000000000000000000000000000000000000000000008152600401610e9290612496565b60405180910390fd5b60008111610ede576040517f08c379a0000000000000000000000000000000000000000000000000000000008152600401610ed590612496565b60405180910390fd5b60016006600086815260200190815260200160002060006101000a81548160ff02191690831515021790555033600a600086815260200190815260200160002060006101000a81548173ffffffffffffffffffffffffffffffffffffffff021916908373ffffffffffffffffffffffffffffffffffffffff16021790555082600c60008681526020019081526020016000208190555081600d60008681526020019081526020016000208190555080600b60008681526020019081526020016000208190555050505050565b6006600083815260200190815260200160002060009054906101000a900460ff1661100a576040517f08c379a000000000000000000000000000000000000000000000000000000000815260040161100190612502565b60405180910390fd5b600073ffffffffffffffffffffffffffffffffffffffff166007600084815260200190815260200160002060009054906101000a900473ffffffffffffffffffffffffffffffffffffffff1673ffffffffffffffffffffffffffffffffffffffff16146110ac576040517f08c379a00000000000000000000000000000000000000000000000000000000081526004016110a39061256e565b60405180910390fd5b8061110c57600b600083815260200190815260200160002054341015611107576040517f08c379a00000000000000000000000000000000000000000000000000000000081526004016110fe90612600565b60405180910390fd5b6111b5565b600c600083815260200190815260200160002054341015611162576040517f08c379a000000000000000000000000000000000000000000000000000000000815260040161115990612600565b60405180910390fd5b336007600084815260200190815260200160002060006101000a81548173ffffffffffffffffffffffffffffffffffffffff021916908373ffffffffffffffffffffffffffffffffffffffff1602179055505b5050565b60006111c3610b50565b905080821115611208576040517f08c379a00000000000000000000000000000000000000000000000000000000081526004016111ff90611fef565b60405180910390fd5b60011515600e600084815260200190815260200160002060009054906101000a900460ff1615151461126f576040517f08c379a0000000000000000000000000000000000000000000000000000000008152600401611266906120c7565b60405180910390fd5b600d6000838152602001908152602001600020544710156112c5576040517f08c379a00000000000000000000000000000000000000000000000000000000081526004016112bc90612133565b60405180910390fd5b6000600a600084815260200190815260200160002060009054906101000a900473ffffffffffffffffffffffffffffffffffffffff1690506000600b600085815260200190815260200160002054905060006006600086815260200190815260200160002060006101000a81548160ff02191690831515021790555060008273ffffffffffffffffffffffffffffffffffffffff1682604051611367906121de565b60006040518083038185875af1925050503d80600081146113a4576040519150601f19603f3d011682016040523d82523d6000602084013e6113a9565b606091505b5050905060008054906101000a900473ffffffffffffffffffffffffffffffffffffffff1673ffffffffffffffffffffffffffffffffffffffff166323b872dd3033886040518463ffffffff1660e01b815260040161140a939291906121f3565b600060405180830381600087803b15801561142457600080fd5b505af1158015611438573d6000803e3d6000fd5b505050508061147c576040517f08c379a00000000000000000000000000000000000000000000000000000000081526004016114739061266c565b60405180910390fd5b8273ffffffffffffffffffffffffffffffffffffffff163373ffffffffffffffffffffffffffffffffffffffff16867f90740547fe504659050ab00e37233f21d2ccede62364499e2f3ae77ad4b8334360405160405180910390a45050505050565b6000600a600083815260200190815260200160002060009054906101000a900473ffffffffffffffffffffffffffffffffffffffff169050919050565b600160009054906101000a900473ffffffffffffffffffffffffffffffffffffffff1681565b6000600e600083815260200190815260200160002060009054906101000a900460ff169050919050565b600073ffffffffffffffffffffffffffffffffffffffff166007600083815260200190815260200160002060009054906101000a900473ffffffffffffffffffffffffffffffffffffffff1673ffffffffffffffffffffffffffffffffffffffff160361160d576040517f08c379a0000000000000000000000000000000000000000000000000000000008152600401611604906126d8565b60405180910390fd5b600080600a600084815260200190815260200160002060009054906101000a900473ffffffffffffffffffffffffffffffffffffffff1690506000611651846105bb565b9050600060096000868152602001908152602001600020549050600781101561167e5760035493506116a5565b6007811015801561168f5750601e81105b1561169e5760045493506116a4565b60055493505b5b600084600c6000888152602001908152602001600020546116c691906126f8565b905060008054906101000a900473ffffffffffffffffffffffffffffffffffffffff1673ffffffffffffffffffffffffffffffffffffffff166323b872dd8486896040518463ffffffff1660e01b8152600401611725939291906121f3565b600060405180830381600087803b15801561173f57600080fd5b505af1158015611753573d6000803e3d6000fd5b5050505060008373ffffffffffffffffffffffffffffffffffffffff168260405161177d90612778565b60006040518083038185875af1925050503d80600081146117ba576040519150601f19603f3d011682016040523d82523d6000602084013e6117bf565b606091505b5050905060006007600089815260200190815260200160002060006101000a81548173ffffffffffffffffffffffffffffffffffffffff021916908373ffffffffffffffffffffffffffffffffffffffff160217905550600060086000898152602001908152602001600020819055508061186f576040517f08c379a000000000000000000000000000000000000000000000000000000000815260040161186690612276565b60405180910390fd5b8373ffffffffffffffffffffffffffffffffffffffff16877fb171233e15fd0fbd738719b9c35c56ecc6964e8b9f1b3271be4375dea76497b7886040516118b69190611a23565b60405180910390a350505050505050565b6000604051905090565b600080fd5b600080fd5b6000819050919050565b6118ee816118db565b81146118f957600080fd5b50565b60008135905061190b816118e5565b92915050565b600060208284031215611927576119266118d1565b5b6000611935848285016118fc565b91505092915050565b600073ffffffffffffffffffffffffffffffffffffffff82169050919050565b60006119698261193e565b9050919050565b6119798161195e565b82525050565b60006020820190506119946000830184611970565b92915050565b6000819050919050565b60006119bf6119ba6119b58461193e565b61199a565b61193e565b9050919050565b60006119d1826119a4565b9050919050565b60006119e3826119c6565b9050919050565b6119f3816119d8565b82525050565b6000602082019050611a0e60008301846119ea565b92915050565b611a1d816118db565b82525050565b6000602082019050611a386000830184611a14565b92915050565b600080fd5b600080fd5b600080fd5b60008083601f840112611a6357611a62611a3e565b5b8235905067ffffffffffffffff811115611a8057611a7f611a43565b5b602083019150836001820283011115611a9c57611a9b611a48565b5b9250929050565b60008060208385031215611aba57611ab96118d1565b5b600083013567ffffffffffffffff811115611ad857611ad76118d6565b5b611ae485828601611a4d565b92509250509250929050565b60008060408385031215611b0757611b066118d1565b5b6000611b15858286016118fc565b9250506020611b26858286016118fc565b9150509250929050565b60008115159050919050565b611b4581611b30565b82525050565b600081519050919050565b600082825260208201905092915050565b60005b83811015611b85578082015181840152602081019050611b6a565b60008484015250505050565b6000601f19601f8301169050919050565b6000611bad82611b4b565b611bb78185611b56565b9350611bc7818560208601611b67565b611bd081611b91565b840191505092915050565b6000604082019050611bf06000830185611b3c565b8181036020830152611c028184611ba2565b90509392505050565b60008060008060808587031215611c2557611c246118d1565b5b6000611c33878288016118fc565b9450506020611c44878288016118fc565b9350506040611c55878288016118fc565b9250506060611c66878288016118fc565b91505092959194509250565b611c7b81611b30565b8114611c8657600080fd5b50565b600081359050611c9881611c72565b92915050565b60008060408385031215611cb557611cb46118d1565b5b6000611cc3858286016118fc565b9250506020611cd485828601611c89565b9150509250929050565b6000602082019050611cf36000830184611b3c565b92915050565b600082825260208201905092915050565b7f414c726561647920417070726f76656400000000000000000000000000000000600082015250565b6000611d40601083611cf9565b9150611d4b82611d0a565b602082019050919050565b60006020820190508181036000830152611d6f81611d33565b9050919050565b7f4e487b7100000000000000000000000000000000000000000000000000000000600052604160045260246000fd5b611dae82611b91565b810181811067ffffffffffffffff82111715611dcd57611dcc611d76565b5b80604052505050565b6000611de06118c7565b9050611dec8282611da5565b919050565b600067ffffffffffffffff821115611e0c57611e0b611d76565b5b602082029050602081019050919050565b6000611e30611e2b84611df1565b611dd6565b90508083825260208201905060208402830185811115611e5357611e52611a48565b5b835b81811015611e7c5780611e6888826118fc565b845260208401935050602081019050611e55565b5050509392505050565b600082601f830112611e9b57611e9a611a3e565b5b8135611eab848260208601611e1d565b91505092915050565b600060208284031215611eca57611ec96118d1565b5b600082013567ffffffffffffffff811115611ee857611ee76118d6565b5b611ef484828501611e86565b91505092915050565b7f4e487b7100000000000000000000000000000000000000000000000000000000600052603260045260246000fd5b7f4e487b7100000000000000000000000000000000000000000000000000000000600052601160045260246000fd5b6000611f66826118db565b91507fffffffffffffffffffffffffffffffffffffffffffffffffffffffffffffffff8203611f9857611f97611f2c565b5b600182019050919050565b7f50726f706572747920646f65736e277420657869737473000000000000000000600082015250565b6000611fd9601783611cf9565b9150611fe482611fa3565b602082019050919050565b6000602082019050818103600083015261200881611fcc565b9050919050565b7f4861766520746f206465706f736974204561726e657374206669727374000000600082015250565b6000612045601d83611cf9565b91506120508261200f565b602082019050919050565b6000602082019050818103600083015261207481612038565b9050919050565b7f496e7370656374696f6e2049736e277420706173736564000000000000000000600082015250565b60006120b1601783611cf9565b91506120bc8261207b565b602082019050919050565b600060208201905081810360008301526120e0816120a4565b9050919050565b7f496e73756666696369656e742062616c616e6365000000000000000000000000600082015250565b600061211d601483611cf9565b9150612128826120e7565b602082019050919050565b6000602082019050818103600083015261214c81612110565b9050919050565b600061215e826118db565b9150612169836118db565b925082820190508082111561218157612180611f2c565b5b92915050565b600081905092915050565b7f416d6f756e74207472616e736665726564000000000000000000000000000000600082015250565b60006121c8601183612187565b91506121d382612192565b601182019050919050565b60006121e9826121bb565b9150819050919050565b60006060820190506122086000830186611970565b6122156020830185611970565b6122226040830184611a14565b949350505050565b7f5472616e7366657220746f206f776e6572206661696c65640000000000000000600082015250565b6000612260601883611cf9565b915061226b8261222a565b602082019050919050565b6000602082019050818103600083015261228f81612253565b9050919050565b7f4f6e6c7920696e73706563746f722063616e2063616c6c20746869732066756e60008201527f6374696f6e000000000000000000000000000000000000000000000000000000602082015250565b60006122f2602583611cf9565b91506122fd82612296565b604082019050919050565b60006020820190508181036000830152612321816122e5565b9050919050565b600081519050612337816118e5565b92915050565b600060208284031215612353576123526118d1565b5b600061236184828501612328565b91505092915050565b600081519050919050565b600082825260208201905092915050565b6000819050602082019050919050565b61239f816118db565b82525050565b60006123b18383612396565b60208301905092915050565b6000602082019050919050565b60006123d58261236a565b6123df8185612375565b93506123ea83612386565b8060005b8381101561241b57815161240288826123a5565b975061240d836123bd565b9250506001810190506123ee565b5085935050505092915050565b6000602082019050818103600083015261244281846123ca565b905092915050565b7f456e746572206120416d6f756e742067726561746572207468616e2030000000600082015250565b6000612480601d83611cf9565b915061248b8261244a565b602082019050919050565b600060208201905081810360008301526124af81612473565b9050919050565b7f50726f706572747920697320616c726561647920736f6c640000000000000000600082015250565b60006124ec601883611cf9565b91506124f7826124b6565b602082019050919050565b6000602082019050818103600083015261251b816124df565b9050919050565b7f50726f7065727479206973206f6e2052656e7400000000000000000000000000600082015250565b6000612558601383611cf9565b915061256382612522565b602082019050919050565b600060208201905081810360008301526125878161254b565b9050919050565b7f416d6f756e742073686f756c642062652067726561746572207468616e2f657160008201527f75616c20746f2020657363726f7720616d6f756e740000000000000000000000602082015250565b60006125ea603583611cf9565b91506125f58261258e565b604082019050919050565b60006020820190508181036000830152612619816125dd565b9050919050565b7f5472616e7366657220746f2073656c6c6572206661696c656400000000000000600082015250565b6000612656601983611cf9565b915061266182612620565b602082019050919050565b6000602082019050818103600083015261268581612649565b9050919050565b7f50726f7065727479206973206e6f74206f6e2072656e74000000000000000000600082015250565b60006126c2601783611cf9565b91506126cd8261268c565b602082019050919050565b600060208201905081810360008301526126f1816126b5565b9050919050565b6000612703826118db565b915061270e836118db565b925082820390508181111561272657612725611f2c565b5b92915050565b7f616d6f756e74207472616e7366657272656420746f2074656e616e7400000000600082015250565b6000612762601c83612187565b915061276d8261272c565b601c82019050919050565b600061278382612755565b915081905091905056fea2646970667358221220aac3dc3a08c64c2916867caa1193d5cac373dce6a4b47dab272d2f59868b103f64736f6c6343000814003360806040523480156200001157600080fd5b5060405162002d2e38038062002d2e833981810160405281019062000037919062000288565b806040518060400160405280600d81526020017f50726f7065727479546f6b656e000000000000000000000000000000000000008152506040518060400160405280600381526020017f50544b00000000000000000000000000000000000000000000000000000000008152508160009081620000b5919062000534565b508060019081620000c7919062000534565b505050600073ffffffffffffffffffffffffffffffffffffffff168173ffffffffffffffffffffffffffffffffffffffff16036200013f5760006040517f1e4fbdf70000000000000000000000000000000000000000000000000000000081526004016200013691906200062c565b60405180910390fd5b62000150816200015860201b60201c565b505062000649565b6000600760009054906101000a900473ffffffffffffffffffffffffffffffffffffffff16905081600760006101000a81548173ffffffffffffffffffffffffffffffffffffffff021916908373ffffffffffffffffffffffffffffffffffffffff1602179055508173ffffffffffffffffffffffffffffffffffffffff168173ffffffffffffffffffffffffffffffffffffffff167f8be0079c531659141344cd1fd0a4f28419497f9722a3daafe3b4186f6b6457e060405160405180910390a35050565b600080fd5b600073ffffffffffffffffffffffffffffffffffffffff82169050919050565b6000620002508262000223565b9050919050565b620002628162000243565b81146200026e57600080fd5b50565b600081519050620002828162000257565b92915050565b600060208284031215620002a157620002a06200021e565b5b6000620002b18482850162000271565b91505092915050565b600081519050919050565b7f4e487b7100000000000000000000000000000000000000000000000000000000600052604160045260246000fd5b7f4e487b7100000000000000000000000000000000000000000000000000000000600052602260045260246000fd5b600060028204905060018216806200033c57607f821691505b602082108103620003525762000351620002f4565b5b50919050565b60008190508160005260206000209050919050565b60006020601f8301049050919050565b600082821b905092915050565b600060088302620003bc7fffffffffffffffffffffffffffffffffffffffffffffffffffffffffffffffff826200037d565b620003c886836200037d565b95508019841693508086168417925050509392505050565b6000819050919050565b6000819050919050565b6000620004156200040f6200040984620003e0565b620003ea565b620003e0565b9050919050565b6000819050919050565b6200043183620003f4565b6200044962000440826200041c565b8484546200038a565b825550505050565b600090565b6200046062000451565b6200046d81848462000426565b505050565b5b8181101562000495576200048960008262000456565b60018101905062000473565b5050565b601f821115620004e457620004ae8162000358565b620004b9846200036d565b81016020851015620004c9578190505b620004e1620004d8856200036d565b83018262000472565b50505b505050565b600082821c905092915050565b60006200050960001984600802620004e9565b1980831691505092915050565b6000620005248383620004f6565b9150826002028217905092915050565b6200053f82620002ba565b67ffffffffffffffff8111156200055b576200055a620002c5565b5b62000567825462000323565b6200057482828562000499565b600060209050601f831160018114620005ac576000841562000597578287015190505b620005a3858262000516565b86555062000613565b601f198416620005bc8662000358565b60005b82811015620005e657848901518255600182019150602085019450602081019050620005bf565b8683101562000606578489015162000602601f891682620004f6565b8355505b6001600288020188555050505b505050505050565b620006268162000243565b82525050565b60006020820190506200064360008301846200061b565b92915050565b6126d580620006596000396000f3fe608060405234801561001057600080fd5b50600436106101165760003560e01c8063715018a6116100a2578063b88d4fde11610071578063b88d4fde146102cd578063c87b56dd146102e9578063d204c45e14610319578063e985e9c514610335578063f2fde38b1461036557610116565b8063715018a61461026b5780638da5cb5b1461027557806395d89b4114610293578063a22cb465146102b157610116565b806318160ddd116100e957806318160ddd146101b557806323b872dd146101d357806342842e0e146101ef5780636352211e1461020b57806370a082311461023b57610116565b806301ffc9a71461011b57806306fdde031461014b578063081812fc14610169578063095ea7b314610199575b600080fd5b61013560048036038101906101309190611b2d565b610381565b6040516101429190611b75565b60405180910390f35b610153610393565b6040516101609190611c20565b60405180910390f35b610183600480360381019061017e9190611c78565b610425565b6040516101909190611ce6565b60405180910390f35b6101b360048036038101906101ae9190611d2d565b610441565b005b6101bd610457565b6040516101ca9190611d7c565b60405180910390f35b6101ed60048036038101906101e89190611d97565b610461565b005b61020960048036038101906102049190611d97565b610563565b005b61022560048036038101906102209190611c78565b610583565b6040516102329190611ce6565b60405180910390f35b61025560048036038101906102509190611dea565b610595565b6040516102629190611d7c565b60405180910390f35b61027361064f565b005b61027d610663565b60405161028a9190611ce6565b60405180910390f35b61029b61068d565b6040516102a89190611c20565b60405180910390f35b6102cb60048036038101906102c69190611e43565b61071f565b005b6102e760048036038101906102e29190611fb8565b610735565b005b61030360048036038101906102fe9190611c78565b610752565b6040516103109190611c20565b60405180910390f35b610333600480360381019061032e91906120dc565b610764565b005b61034f600480360381019061034a9190612138565b61079e565b60405161035c9190611b75565b60405180910390f35b61037f600480360381019061037a9190611dea565b610832565b005b600061038c826108b8565b9050919050565b6060600080546103a2906121a7565b80601f01602080910402602001604051908101604052809291908181526020018280546103ce906121a7565b801561041b5780601f106103f05761010080835404028352916020019161041b565b820191906000526020600020905b8154815290600101906020018083116103fe57829003601f168201915b5050505050905090565b600061043082610919565b5061043a826109a1565b9050919050565b610453828261044e6109de565b6109e6565b5050565b6000600854905090565b600073ffffffffffffffffffffffffffffffffffffffff168273ffffffffffffffffffffffffffffffffffffffff16036104d35760006040517f64a0ae920000000000000000000000000000000000000000000000000000000081526004016104ca9190611ce6565b60405180910390fd5b60006104e783836104e26109de565b6109f8565b90508373ffffffffffffffffffffffffffffffffffffffff168173ffffffffffffffffffffffffffffffffffffffff161461055d578382826040517f64283d7b000000000000000000000000000000000000000000000000000000008152600401610554939291906121d8565b60405180910390fd5b50505050565b61057e83838360405180602001604052806000815250610735565b505050565b600061058e82610919565b9050919050565b60008073ffffffffffffffffffffffffffffffffffffffff168273ffffffffffffffffffffffffffffffffffffffff16036106085760006040517f89c62b640000000000000000000000000000000000000000000000000000000081526004016105ff9190611ce6565b60405180910390fd5b600360008373ffffffffffffffffffffffffffffffffffffffff1673ffffffffffffffffffffffffffffffffffffffff168152602001908152602001600020549050919050565b610657610c12565b6106616000610c99565b565b6000600760009054906101000a900473ffffffffffffffffffffffffffffffffffffffff16905090565b60606001805461069c906121a7565b80601f01602080910402602001604051908101604052809291908181526020018280546106c8906121a7565b80156107155780601f106106ea57610100808354040283529160200191610715565b820191906000526020600020905b8154815290600101906020018083116106f857829003601f168201915b5050505050905090565b61073161072a6109de565b8383610d5f565b5050565b610740848484610461565b61074c84848484610ece565b50505050565b606061075d82611085565b9050919050565b61076c610c12565b600060086000815461077d9061223e565b919050819055905061078f8382611198565b61079981836111b6565b505050565b6000600560008473ffffffffffffffffffffffffffffffffffffffff1673ffffffffffffffffffffffffffffffffffffffff16815260200190815260200160002060008373ffffffffffffffffffffffffffffffffffffffff1673ffffffffffffffffffffffffffffffffffffffff16815260200190815260200160002060009054906101000a900460ff16905092915050565b61083a610c12565b600073ffffffffffffffffffffffffffffffffffffffff168173ffffffffffffffffffffffffffffffffffffffff16036108ac5760006040517f1e4fbdf70000000000000000000000000000000000000000000000000000000081526004016108a39190611ce6565b60405180910390fd5b6108b581610c99565b50565b6000634906490660e01b7bffffffffffffffffffffffffffffffffffffffffffffffffffffffff1916827bffffffffffffffffffffffffffffffffffffffffffffffffffffffff19161480610912575061091182611212565b5b9050919050565b600080610925836112f4565b9050600073ffffffffffffffffffffffffffffffffffffffff168173ffffffffffffffffffffffffffffffffffffffff160361099857826040517f7e27328900000000000000000000000000000000000000000000000000000000815260040161098f9190611d7c565b60405180910390fd5b80915050919050565b60006004600083815260200190815260200160002060009054906101000a900473ffffffffffffffffffffffffffffffffffffffff169050919050565b600033905090565b6109f38383836001611331565b505050565b600080610a04846112f4565b9050600073ffffffffffffffffffffffffffffffffffffffff168373ffffffffffffffffffffffffffffffffffffffff1614610a4657610a458184866114f6565b5b600073ffffffffffffffffffffffffffffffffffffffff168173ffffffffffffffffffffffffffffffffffffffff1614610ad757610a88600085600080611331565b6001600360008373ffffffffffffffffffffffffffffffffffffffff1673ffffffffffffffffffffffffffffffffffffffff168152602001908152602001600020600082825403925050819055505b600073ffffffffffffffffffffffffffffffffffffffff168573ffffffffffffffffffffffffffffffffffffffff1614610b5a576001600360008773ffffffffffffffffffffffffffffffffffffffff1673ffffffffffffffffffffffffffffffffffffffff168152602001908152602001600020600082825401925050819055505b846002600086815260200190815260200160002060006101000a81548173ffffffffffffffffffffffffffffffffffffffff021916908373ffffffffffffffffffffffffffffffffffffffff160217905550838573ffffffffffffffffffffffffffffffffffffffff168273ffffffffffffffffffffffffffffffffffffffff167fddf252ad1be2c89b69c2b068fc378daa952ba7f163c4a11628f55a4df523b3ef60405160405180910390a4809150509392505050565b610c1a6109de565b73ffffffffffffffffffffffffffffffffffffffff16610c38610663565b73ffffffffffffffffffffffffffffffffffffffff1614610c9757610c5b6109de565b6040517f118cdaa7000000000000000000000000000000000000000000000000000000008152600401610c8e9190611ce6565b60405180910390fd5b565b6000600760009054906101000a900473ffffffffffffffffffffffffffffffffffffffff16905081600760006101000a81548173ffffffffffffffffffffffffffffffffffffffff021916908373ffffffffffffffffffffffffffffffffffffffff1602179055508173ffffffffffffffffffffffffffffffffffffffff168173ffffffffffffffffffffffffffffffffffffffff167f8be0079c531659141344cd1fd0a4f28419497f9722a3daafe3b4186f6b6457e060405160405180910390a35050565b600073ffffffffffffffffffffffffffffffffffffffff168273ffffffffffffffffffffffffffffffffffffffff1603610dd057816040517f5b08ba18000000000000000000000000000000000000000000000000000000008152600401610dc79190611ce6565b60405180910390fd5b80600560008573ffffffffffffffffffffffffffffffffffffffff1673ffffffffffffffffffffffffffffffffffffffff16815260200190815260200160002060008473ffffffffffffffffffffffffffffffffffffffff1673ffffffffffffffffffffffffffffffffffffffff16815260200190815260200160002060006101000a81548160ff0219169083151502179055508173ffffffffffffffffffffffffffffffffffffffff168373ffffffffffffffffffffffffffffffffffffffff167f17307eab39ab6107e8899845ad3d59bd9653f200f220920489ca2b5937696c3183604051610ec19190611b75565b60405180910390a3505050565b60008373ffffffffffffffffffffffffffffffffffffffff163b111561107f578273ffffffffffffffffffffffffffffffffffffffff1663150b7a02610f126109de565b8685856040518563ffffffff1660e01b8152600401610f3494939291906122db565b6020604051808303816000875af1925050508015610f7057506040513d601f19601f82011682018060405250810190610f6d919061233c565b60015b610ff4573d8060008114610fa0576040519150601f19603f3d011682016040523d82523d6000602084013e610fa5565b606091505b506000815103610fec57836040517f64a0ae92000000000000000000000000000000000000000000000000000000008152600401610fe39190611ce6565b60405180910390fd5b805181602001fd5b63150b7a0260e01b7bffffffffffffffffffffffffffffffffffffffffffffffffffffffff1916817bffffffffffffffffffffffffffffffffffffffffffffffffffffffff19161461107d57836040517f64a0ae920000000000000000000000000000000000000000000000000000000081526004016110749190611ce6565b60405180910390fd5b505b50505050565b606061109082610919565b5060006006600084815260200190815260200160002080546110b1906121a7565b80601f01602080910402602001604051908101604052809291908181526020018280546110dd906121a7565b801561112a5780601f106110ff5761010080835404028352916020019161112a565b820191906000526020600020905b81548152906001019060200180831161110d57829003601f168201915b50505050509050600061113b6115ba565b90506000815103611150578192505050611193565b60008251111561118557808260405160200161116d9291906123a5565b60405160208183030381529060405292505050611193565b61118e846115f7565b925050505b919050565b6111b2828260405180602001604052806000815250611660565b5050565b806006600084815260200190815260200160002090816111d69190612575565b507ff8e1a15aba9398e019f0b49df1a4fde98ee17ae345cb5f6b5e2c27f5033e8ce7826040516112069190611d7c565b60405180910390a15050565b60007f80ac58cd000000000000000000000000000000000000000000000000000000007bffffffffffffffffffffffffffffffffffffffffffffffffffffffff1916827bffffffffffffffffffffffffffffffffffffffffffffffffffffffff191614806112dd57507f5b5e139f000000000000000000000000000000000000000000000000000000007bffffffffffffffffffffffffffffffffffffffffffffffffffffffff1916827bffffffffffffffffffffffffffffffffffffffffffffffffffffffff1916145b806112ed57506112ec8261167c565b5b9050919050565b60006002600083815260200190815260200160002060009054906101000a900473ffffffffffffffffffffffffffffffffffffffff169050919050565b808061136a5750600073ffffffffffffffffffffffffffffffffffffffff168273ffffffffffffffffffffffffffffffffffffffff1614155b1561149e57600061137a84610919565b9050600073ffffffffffffffffffffffffffffffffffffffff168373ffffffffffffffffffffffffffffffffffffffff16141580156113e557508273ffffffffffffffffffffffffffffffffffffffff168173ffffffffffffffffffffffffffffffffffffffff1614155b80156113f857506113f6818461079e565b155b1561143a57826040517fa9fbf51f0000000000000000000000000000000000000000000000000000000081526004016114319190611ce6565b60405180910390fd5b811561149c57838573ffffffffffffffffffffffffffffffffffffffff168273ffffffffffffffffffffffffffffffffffffffff167f8c5be1e5ebec7d5bd14f71427d1e84f3dd0314c0f7b2291e5b200ac8c7c3b92560405160405180910390a45b505b836004600085815260200190815260200160002060006101000a81548173ffffffffffffffffffffffffffffffffffffffff021916908373ffffffffffffffffffffffffffffffffffffffff16021790555050505050565b6115018383836116e6565b6115b557600073ffffffffffffffffffffffffffffffffffffffff168373ffffffffffffffffffffffffffffffffffffffff160361157657806040517f7e27328900000000000000000000000000000000000000000000000000000000815260040161156d9190611d7c565b60405180910390fd5b81816040517f177e802f0000000000000000000000000000000000000000000000000000000081526004016115ac929190612647565b60405180910390fd5b505050565b60606040518060400160405280600481526020017f64656d6f00000000000000000000000000000000000000000000000000000000815250905090565b606061160282610919565b50600061160d6115ba565b9050600081511161162d5760405180602001604052806000815250611658565b80611637846117a7565b6040516020016116489291906123a5565b6040516020818303038152906040525b915050919050565b61166a8383611875565b6116776000848484610ece565b505050565b60007f01ffc9a7000000000000000000000000000000000000000000000000000000007bffffffffffffffffffffffffffffffffffffffffffffffffffffffff1916827bffffffffffffffffffffffffffffffffffffffffffffffffffffffff1916149050919050565b60008073ffffffffffffffffffffffffffffffffffffffff168373ffffffffffffffffffffffffffffffffffffffff161415801561179e57508273ffffffffffffffffffffffffffffffffffffffff168473ffffffffffffffffffffffffffffffffffffffff16148061175f575061175e848461079e565b5b8061179d57508273ffffffffffffffffffffffffffffffffffffffff16611785836109a1565b73ffffffffffffffffffffffffffffffffffffffff16145b5b90509392505050565b6060600060016117b68461196e565b01905060008167ffffffffffffffff8111156117d5576117d4611e8d565b5b6040519080825280601f01601f1916602001820160405280156118075781602001600182028036833780820191505090505b509050600082602001820190505b60011561186a578080600190039150507f3031323334353637383961626364656600000000000000000000000000000000600a86061a8153600a858161185e5761185d612670565b5b04945060008503611815575b819350505050919050565b600073ffffffffffffffffffffffffffffffffffffffff168273ffffffffffffffffffffffffffffffffffffffff16036118e75760006040517f64a0ae920000000000000000000000000000000000000000000000000000000081526004016118de9190611ce6565b60405180910390fd5b60006118f5838360006109f8565b9050600073ffffffffffffffffffffffffffffffffffffffff168173ffffffffffffffffffffffffffffffffffffffff16146119695760006040517f73c6ac6e0000000000000000000000000000000000000000000000000000000081526004016119609190611ce6565b60405180910390fd5b505050565b600080600090507a184f03e93ff9f4daa797ed6e38ed64bf6a1f01000000000000000083106119cc577a184f03e93ff9f4daa797ed6e38ed64bf6a1f01000000000000000083816119c2576119c1612670565b5b0492506040810190505b6d04ee2d6d415b85acef81000000008310611a09576d04ee2d6d415b85acef810000000083816119ff576119fe612670565b5b0492506020810190505b662386f26fc100008310611a3857662386f26fc100008381611a2e57611a2d612670565b5b0492506010810190505b6305f5e1008310611a61576305f5e1008381611a5757611a56612670565b5b0492506008810190505b6127108310611a86576127108381611a7c57611a7b612670565b5b0492506004810190505b60648310611aa95760648381611a9f57611a9e612670565b5b0492506002810190505b600a8310611ab8576001810190505b80915050919050565b6000604051905090565b600080fd5b600080fd5b60007fffffffff0000000000000000000000000000000000000000000000000000000082169050919050565b611b0a81611ad5565b8114611b1557600080fd5b50565b600081359050611b2781611b01565b92915050565b600060208284031215611b4357611b42611acb565b5b6000611b5184828501611b18565b91505092915050565b60008115159050919050565b611b6f81611b5a565b82525050565b6000602082019050611b8a6000830184611b66565b92915050565b600081519050919050565b600082825260208201905092915050565b60005b83811015611bca578082015181840152602081019050611baf565b60008484015250505050565b6000601f19601f8301169050919050565b6000611bf282611b90565b611bfc8185611b9b565b9350611c0c818560208601611bac565b611c1581611bd6565b840191505092915050565b60006020820190508181036000830152611c3a8184611be7565b905092915050565b6000819050919050565b611c5581611c42565b8114611c6057600080fd5b50565b600081359050611c7281611c4c565b92915050565b600060208284031215611c8e57611c8d611acb565b5b6000611c9c84828501611c63565b91505092915050565b600073ffffffffffffffffffffffffffffffffffffffff82169050919050565b6000611cd082611ca5565b9050919050565b611ce081611cc5565b82525050565b6000602082019050611cfb6000830184611cd7565b92915050565b611d0a81611cc5565b8114611d1557600080fd5b50565b600081359050611d2781611d01565b92915050565b60008060408385031215611d4457611d43611acb565b5b6000611d5285828601611d18565b9250506020611d6385828601611c63565b9150509250929050565b611d7681611c42565b82525050565b6000602082019050611d916000830184611d6d565b92915050565b600080600060608486031215611db057611daf611acb565b5b6000611dbe86828701611d18565b9350506020611dcf86828701611d18565b9250506040611de086828701611c63565b9150509250925092565b600060208284031215611e0057611dff611acb565b5b6000611e0e84828501611d18565b91505092915050565b611e2081611b5a565b8114611e2b57600080fd5b50565b600081359050611e3d81611e17565b92915050565b60008060408385031215611e5a57611e59611acb565b5b6000611e6885828601611d18565b9250506020611e7985828601611e2e565b9150509250929050565b600080fd5b600080fd5b7f4e487b7100000000000000000000000000000000000000000000000000000000600052604160045260246000fd5b611ec582611bd6565b810181811067ffffffffffffffff82111715611ee457611ee3611e8d565b5b80604052505050565b6000611ef7611ac1565b9050611f038282611ebc565b919050565b600067ffffffffffffffff821115611f2357611f22611e8d565b5b611f2c82611bd6565b9050602081019050919050565b82818337600083830152505050565b6000611f5b611f5684611f08565b611eed565b905082815260208101848484011115611f7757611f76611e88565b5b611f82848285611f39565b509392505050565b600082601f830112611f9f57611f9e611e83565b5b8135611faf848260208601611f48565b91505092915050565b60008060008060808587031215611fd257611fd1611acb565b5b6000611fe087828801611d18565b9450506020611ff187828801611d18565b935050604061200287828801611c63565b925050606085013567ffffffffffffffff81111561202357612022611ad0565b5b61202f87828801611f8a565b91505092959194509250565b600067ffffffffffffffff82111561205657612055611e8d565b5b61205f82611bd6565b9050602081019050919050565b600061207f61207a8461203b565b611eed565b90508281526020810184848401111561209b5761209a611e88565b5b6120a6848285611f39565b509392505050565b600082601f8301126120c3576120c2611e83565b5b81356120d384826020860161206c565b91505092915050565b600080604083850312156120f3576120f2611acb565b5b600061210185828601611d18565b925050602083013567ffffffffffffffff81111561212257612121611ad0565b5b61212e858286016120ae565b9150509250929050565b6000806040838503121561214f5761214e611acb565b5b600061215d85828601611d18565b925050602061216e85828601611d18565b9150509250929050565b7f4e487b7100000000000000000000000000000000000000000000000000000000600052602260045260246000fd5b600060028204905060018216806121bf57607f821691505b6020821081036121d2576121d1612178565b5b50919050565b60006060820190506121ed6000830186611cd7565b6121fa6020830185611d6d565b6122076040830184611cd7565b949350505050565b7f4e487b7100000000000000000000000000000000000000000000000000000000600052601160045260246000fd5b600061224982611c42565b91507fffffffffffffffffffffffffffffffffffffffffffffffffffffffffffffffff820361227b5761227a61220f565b5b600182019050919050565b600081519050919050565b600082825260208201905092915050565b60006122ad82612286565b6122b78185612291565b93506122c7818560208601611bac565b6122d081611bd6565b840191505092915050565b60006080820190506122f06000830187611cd7565b6122fd6020830186611cd7565b61230a6040830185611d6d565b818103606083015261231c81846122a2565b905095945050505050565b60008151905061233681611b01565b92915050565b60006020828403121561235257612351611acb565b5b600061236084828501612327565b91505092915050565b600081905092915050565b600061237f82611b90565b6123898185612369565b9350612399818560208601611bac565b80840191505092915050565b60006123b18285612374565b91506123bd8284612374565b91508190509392505050565b60008190508160005260206000209050919050565b60006020601f8301049050919050565b600082821b905092915050565b60006008830261242b7fffffffffffffffffffffffffffffffffffffffffffffffffffffffffffffffff826123ee565b61243586836123ee565b95508019841693508086168417925050509392505050565b6000819050919050565b600061247261246d61246884611c42565b61244d565b611c42565b9050919050565b6000819050919050565b61248c83612457565b6124a061249882612479565b8484546123fb565b825550505050565b600090565b6124b56124a8565b6124c0818484612483565b505050565b5b818110156124e4576124d96000826124ad565b6001810190506124c6565b5050565b601f821115612529576124fa816123c9565b612503846123de565b81016020851015612512578190505b61252661251e856123de565b8301826124c5565b50505b505050565b600082821c905092915050565b600061254c6000198460080261252e565b1980831691505092915050565b6000612565838361253b565b9150826002028217905092915050565b61257e82611b90565b67ffffffffffffffff81111561259757612596611e8d565b5b6125a182546121a7565b6125ac8282856124e8565b600060209050601f8311600181146125df57600084156125cd578287015190505b6125d78582612559565b86555061263f565b601f1984166125ed866123c9565b60005b82811015612615578489015182556001820191506020850194506020810190506125f0565b86831015612632578489015161262e601f89168261253b565b8355505b6001600288020188555050505b505050505050565b600060408201905061265c6000830185611cd7565b6126696020830184611d6d565b9392505050565b7f4e487b7100000000000000000000000000000000000000000000000000000000600052601260045260246000fdfea26469706673582212202113c2521b4f67920a074185b9b8f75100abf0a97d5176534b186a39c28a5a8764736f6c63430008140033",
  "linkReferences": {},
  "deployedLinkReferences": {}
}