{
  "_format": "hh-sol-artifact-1",
  "contractName": "PropertyToken",
  "sourceName": "contracts/ERC-721/PropertyToken.sol",
  "abi": [
    {
      "inputs": [
        {
          "internalType": "address",
          "name": "initialOwner",
          "type": "address"
        }
      ],
      "stateMutability": "nonpayable",
      "type": "constructor"
    },
    {
      "inputs": [
        {
          "internalType": "address",
          "name": "sender",
          "type": "address"
        },
        {
          "internalType": "uint256",
          "name": "tokenId",
          "type": "uint256"
        },
        {
          "internalType": "address",
          "name": "owner",
          "type": "address"
        }
      ],
      "name": "ERC721IncorrectOwner",
      "type": "error"
    },
    {
      "inputs": [
        {
          "internalType": "address",
          "name": "operator",
          "type": "address"
        },
        {
          "internalType": "uint256",
          "name": "tokenId",
          "type": "uint256"
        }
      ],
      "name": "ERC721InsufficientApproval",
      "type": "error"
    },
    {
      "inputs": [
        {
          "internalType": "address",
          "name": "approver",
          "type": "address"
        }
      ],
      "name": "ERC721InvalidApprover",
      "type": "error"
    },
    {
      "inputs": [
        {
          "internalType": "address",
          "name": "operator",
          "type": "address"
        }
      ],
      "name": "ERC721InvalidOperator",
      "type": "error"
    },
    {
      "inputs": [
        {
          "internalType": "address",
          "name": "owner",
          "type": "address"
        }
      ],
      "name": "ERC721InvalidOwner",
      "type": "error"
    },
    {
      "inputs": [
        {
          "internalType": "address",
          "name": "receiver",
          "type": "address"
        }
      ],
      "name": "ERC721InvalidReceiver",
      "type": "error"
    },
    {
      "inputs": [
        {
          "internalType": "address",
          "name": "sender",
          "type": "address"
        }
      ],
      "name": "ERC721InvalidSender",
      "type": "error"
    },
    {
      "inputs": [
        {
          "internalType": "uint256",
          "name": "tokenId",
          "type": "uint256"
        }
      ],
      "name": "ERC721NonexistentToken",
      "type": "error"
    },
    {
      "inputs": [
        {
          "internalType": "address",
          "name": "owner",
          "type": "address"
        }
      ],
      "name": "OwnableInvalidOwner",
      "type": "error"
    },
    {
      "inputs": [
        {
          "internalType": "address",
          "name": "account",
          "type": "address"
        }
      ],
      "name": "OwnableUnauthorizedAccount",
      "type": "error"
    },
    {
      "anonymous": false,
      "inputs": [
        {
          "indexed": true,
          "internalType": "address",
          "name": "owner",
          "type": "address"
        },
        {
          "indexed": true,
          "internalType": "address",
          "name": "approved",
          "type": "address"
        },
        {
          "indexed": true,
          "internalType": "uint256",
          "name": "tokenId",
          "type": "uint256"
        }
      ],
      "name": "Approval",
      "type": "event"
    },
    {
      "anonymous": false,
      "inputs": [
        {
          "indexed": true,
          "internalType": "address",
          "name": "owner",
          "type": "address"
        },
        {
          "indexed": true,
          "internalType": "address",
          "name": "operator",
          "type": "address"
        },
        {
          "indexed": false,
          "internalType": "bool",
          "name": "approved",
          "type": "bool"
        }
      ],
      "name": "ApprovalForAll",
      "type": "event"
    },
    {
      "anonymous": false,
      "inputs": [
        {
          "indexed": false,
          "internalType": "uint256",
          "name": "_fromTokenId",
          "type": "uint256"
        },
        {
          "indexed": false,
          "internalType": "uint256",
          "name": "_toTokenId",
          "type": "uint256"
        }
      ],
      "name": "BatchMetadataUpdate",
      "type": "event"
    },
    {
      "anonymous": false,
      "inputs": [
        {
          "indexed": false,
          "internalType": "uint256",
          "name": "_tokenId",
          "type": "uint256"
        }
      ],
      "name": "MetadataUpdate",
      "type": "event"
    },
    {
      "anonymous": false,
      "inputs": [
        {
          "indexed": true,
          "internalType": "address",
          "name": "previousOwner",
          "type": "address"
        },
        {
          "indexed": true,
          "internalType": "address",
          "name": "newOwner",
          "type": "address"
        }
      ],
      "name": "OwnershipTransferred",
      "type": "event"
    },
    {
      "anonymous": false,
      "inputs": [
        {
          "indexed": true,
          "internalType": "address",
          "name": "from",
          "type": "address"
        },
        {
          "indexed": true,
          "internalType": "address",
          "name": "to",
          "type": "address"
        },
        {
          "indexed": true,
          "internalType": "uint256",
          "name": "tokenId",
          "type": "uint256"
        }
      ],
      "name": "Transfer",
      "type": "event"
    },
    {
      "inputs": [
        {
          "internalType": "address",
          "name": "to",
          "type": "address"
        },
        {
          "internalType": "uint256",
          "name": "tokenId",
          "type": "uint256"
        }
      ],
      "name": "approve",
      "outputs": [],
      "stateMutability": "nonpayable",
      "type": "function"
    },
    {
      "inputs": [
        {
          "internalType": "address",
          "name": "owner",
          "type": "address"
        }
      ],
      "name": "balanceOf",
      "outputs": [
        {
          "internalType": "uint256",
          "name": "",
          "type": "uint256"
        }
      ],
      "stateMutability": "view",
      "type": "function"
    },
    {
      "inputs": [
        {
          "internalType": "uint256",
          "name": "tokenId",
          "type": "uint256"
        }
      ],
      "name": "getApproved",
      "outputs": [
        {
          "internalType": "address",
          "name": "",
          "type": "address"
        }
      ],
      "stateMutability": "view",
      "type": "function"
    },
    {
      "inputs": [
        {
          "internalType": "address",
          "name": "owner",
          "type": "address"
        },
        {
          "internalType": "address",
          "name": "operator",
          "type": "address"
        }
      ],
      "name": "isApprovedForAll",
      "outputs": [
        {
          "internalType": "bool",
          "name": "",
          "type": "bool"
        }
      ],
      "stateMutability": "view",
      "type": "function"
    },
    {
      "inputs": [],
      "name": "name",
      "outputs": [
        {
          "internalType": "string",
          "name": "",
          "type": "string"
        }
      ],
      "stateMutability": "view",
      "type": "function"
    },
    {
      "inputs": [],
      "name": "owner",
      "outputs": [
        {
          "internalType": "address",
          "name": "",
          "type": "address"
        }
      ],
      "stateMutability": "view",
      "type": "function"
    },
    {
      "inputs": [
        {
          "internalType": "uint256",
          "name": "tokenId",
          "type": "uint256"
        }
      ],
      "name": "ownerOf",
      "outputs": [
        {
          "internalType": "address",
          "name": "",
          "type": "address"
        }
      ],
      "stateMutability": "view",
      "type": "function"
    },
    {
      "inputs": [],
      "name": "renounceOwnership",
      "outputs": [],
      "stateMutability": "nonpayable",
      "type": "function"
    },
    {
      "inputs": [
        {
          "internalType": "address",
          "name": "to",
          "type": "address"
        },
        {
          "internalType": "string",
          "name": "uri",
          "type": "string"
        }
      ],
      "name": "safeMint",
      "outputs": [],
      "stateMutability": "nonpayable",
      "type": "function"
    },
    {
      "inputs": [
        {
          "internalType": "address",
          "name": "from",
          "type": "address"
        },
        {
          "internalType": "address",
          "name": "to",
          "type": "address"
        },
        {
          "internalType": "uint256",
          "name": "tokenId",
          "type": "uint256"
        }
      ],
      "name": "safeTransferFrom",
      "outputs": [],
      "stateMutability": "nonpayable",
      "type": "function"
    },
    {
      "inputs": [
        {
          "internalType": "address",
          "name": "from",
          "type": "address"
        },
        {
          "internalType": "address",
          "name": "to",
          "type": "address"
        },
        {
          "internalType": "uint256",
          "name": "tokenId",
          "type": "uint256"
        },
        {
          "internalType": "bytes",
          "name": "data",
          "type": "bytes"
        }
      ],
      "name": "safeTransferFrom",
      "outputs": [],
      "stateMutability": "nonpayable",
      "type": "function"
    },
    {
      "inputs": [
        {
          "internalType": "address",
          "name": "operator",
          "type": "address"
        },
        {
          "internalType": "bool",
          "name": "approved",
          "type": "bool"
        }
      ],
      "name": "setApprovalForAll",
      "outputs": [],
      "stateMutability": "nonpayable",
      "type": "function"
    },
    {
      "inputs": [
        {
          "internalType": "bytes4",
          "name": "interfaceId",
          "type": "bytes4"
        }
      ],
      "name": "supportsInterface",
      "outputs": [
        {
          "internalType": "bool",
          "name": "",
          "type": "bool"
        }
      ],
      "stateMutability": "view",
      "type": "function"
    },
    {
      "inputs": [],
      "name": "symbol",
      "outputs": [
        {
          "internalType": "string",
          "name": "",
          "type": "string"
        }
      ],
      "stateMutability": "view",
      "type": "function"
    },
    {
      "inputs": [
        {
          "internalType": "uint256",
          "name": "tokenId",
          "type": "uint256"
        }
      ],
      "name": "tokenURI",
      "outputs": [
        {
          "internalType": "string",
          "name": "",
          "type": "string"
        }
      ],
      "stateMutability": "view",
      "type": "function"
    },
    {
      "inputs": [],
      "name": "totalSupply",
      "outputs": [
        {
          "internalType": "uint256",
          "name": "",
          "type": "uint256"
        }
      ],
      "stateMutability": "view",
      "type": "function"
    },
    {
      "inputs": [
        {
          "internalType": "address",
          "name": "from",
          "type": "address"
        },
        {
          "internalType": "address",
          "name": "to",
          "type": "address"
        },
        {
          "internalType": "uint256",
          "name": "tokenId",
          "type": "uint256"
        }
      ],
      "name": "transferFrom",
      "outputs": [],
      "stateMutability": "nonpayable",
      "type": "function"
    },
    {
      "inputs": [
        {
          "internalType": "address",
          "name": "newOwner",
          "type": "address"
        }
      ],
      "name": "transferOwnership",
      "outputs": [],
      "stateMutability": "nonpayable",
      "type": "function"
    }
  ],
  "bytecode": "0x60806040523480156200001157600080fd5b5060405162002d2e38038062002d2e833981810160405281019062000037919062000288565b806040518060400160405280600d81526020017f50726f7065727479546f6b656e000000000000000000000000000000000000008152506040518060400160405280600381526020017f50544b00000000000000000000000000000000000000000000000000000000008152508160009081620000b5919062000534565b508060019081620000c7919062000534565b505050600073ffffffffffffffffffffffffffffffffffffffff168173ffffffffffffffffffffffffffffffffffffffff16036200013f5760006040517f1e4fbdf70000000000000000000000000000000000000000000000000000000081526004016200013691906200062c565b60405180910390fd5b62000150816200015860201b60201c565b505062000649565b6000600760009054906101000a900473ffffffffffffffffffffffffffffffffffffffff16905081600760006101000a81548173ffffffffffffffffffffffffffffffffffffffff021916908373ffffffffffffffffffffffffffffffffffffffff1602179055508173ffffffffffffffffffffffffffffffffffffffff168173ffffffffffffffffffffffffffffffffffffffff167f8be0079c531659141344cd1fd0a4f28419497f9722a3daafe3b4186f6b6457e060405160405180910390a35050565b600080fd5b600073ffffffffffffffffffffffffffffffffffffffff82169050919050565b6000620002508262000223565b9050919050565b620002628162000243565b81146200026e57600080fd5b50565b600081519050620002828162000257565b92915050565b600060208284031215620002a157620002a06200021e565b5b6000620002b18482850162000271565b91505092915050565b600081519050919050565b7f4e487b7100000000000000000000000000000000000000000000000000000000600052604160045260246000fd5b7f4e487b7100000000000000000000000000000000000000000000000000000000600052602260045260246000fd5b600060028204905060018216806200033c57607f821691505b602082108103620003525762000351620002f4565b5b50919050565b60008190508160005260206000209050919050565b60006020601f8301049050919050565b600082821b905092915050565b600060088302620003bc7fffffffffffffffffffffffffffffffffffffffffffffffffffffffffffffffff826200037d565b620003c886836200037d565b95508019841693508086168417925050509392505050565b6000819050919050565b6000819050919050565b6000620004156200040f6200040984620003e0565b620003ea565b620003e0565b9050919050565b6000819050919050565b6200043183620003f4565b6200044962000440826200041c565b8484546200038a565b825550505050565b600090565b6200046062000451565b6200046d81848462000426565b505050565b5b8181101562000495576200048960008262000456565b60018101905062000473565b5050565b601f821115620004e457620004ae8162000358565b620004b9846200036d565b81016020851015620004c9578190505b620004e1620004d8856200036d565b83018262000472565b50505b505050565b600082821c905092915050565b60006200050960001984600802620004e9565b1980831691505092915050565b6000620005248383620004f6565b9150826002028217905092915050565b6200053f82620002ba565b67ffffffffffffffff8111156200055b576200055a620002c5565b5b62000567825462000323565b6200057482828562000499565b600060209050601f831160018114620005ac576000841562000597578287015190505b620005a3858262000516565b86555062000613565b601f198416620005bc8662000358565b60005b82811015620005e657848901518255600182019150602085019450602081019050620005bf565b8683101562000606578489015162000602601f891682620004f6565b8355505b6001600288020188555050505b505050505050565b620006268162000243565b82525050565b60006020820190506200064360008301846200061b565b92915050565b6126d580620006596000396000f3fe608060405234801561001057600080fd5b50600436106101165760003560e01c8063715018a6116100a2578063b88d4fde11610071578063b88d4fde146102cd578063c87b56dd146102e9578063d204c45e14610319578063e985e9c514610335578063f2fde38b1461036557610116565b8063715018a61461026b5780638da5cb5b1461027557806395d89b4114610293578063a22cb465146102b157610116565b806318160ddd116100e957806318160ddd146101b557806323b872dd146101d357806342842e0e146101ef5780636352211e1461020b57806370a082311461023b57610116565b806301ffc9a71461011b57806306fdde031461014b578063081812fc14610169578063095ea7b314610199575b600080fd5b61013560048036038101906101309190611b2d565b610381565b6040516101429190611b75565b60405180910390f35b610153610393565b6040516101609190611c20565b60405180910390f35b610183600480360381019061017e9190611c78565b610425565b6040516101909190611ce6565b60405180910390f35b6101b360048036038101906101ae9190611d2d565b610441565b005b6101bd610457565b6040516101ca9190611d7c565b60405180910390f35b6101ed60048036038101906101e89190611d97565b610461565b005b61020960048036038101906102049190611d97565b610563565b005b61022560048036038101906102209190611c78565b610583565b6040516102329190611ce6565b60405180910390f35b61025560048036038101906102509190611dea565b610595565b6040516102629190611d7c565b60405180910390f35b61027361064f565b005b61027d610663565b60405161028a9190611ce6565b60405180910390f35b61029b61068d565b6040516102a89190611c20565b60405180910390f35b6102cb60048036038101906102c69190611e43565b61071f565b005b6102e760048036038101906102e29190611fb8565b610735565b005b61030360048036038101906102fe9190611c78565b610752565b6040516103109190611c20565b60405180910390f35b610333600480360381019061032e91906120dc565b610764565b005b61034f600480360381019061034a9190612138565b61079e565b60405161035c9190611b75565b60405180910390f35b61037f600480360381019061037a9190611dea565b610832565b005b600061038c826108b8565b9050919050565b6060600080546103a2906121a7565b80601f01602080910402602001604051908101604052809291908181526020018280546103ce906121a7565b801561041b5780601f106103f05761010080835404028352916020019161041b565b820191906000526020600020905b8154815290600101906020018083116103fe57829003601f168201915b5050505050905090565b600061043082610919565b5061043a826109a1565b9050919050565b610453828261044e6109de565b6109e6565b5050565b6000600854905090565b600073ffffffffffffffffffffffffffffffffffffffff168273ffffffffffffffffffffffffffffffffffffffff16036104d35760006040517f64a0ae920000000000000000000000000000000000000000000000000000000081526004016104ca9190611ce6565b60405180910390fd5b60006104e783836104e26109de565b6109f8565b90508373ffffffffffffffffffffffffffffffffffffffff168173ffffffffffffffffffffffffffffffffffffffff161461055d578382826040517f64283d7b000000000000000000000000000000000000000000000000000000008152600401610554939291906121d8565b60405180910390fd5b50505050565b61057e83838360405180602001604052806000815250610735565b505050565b600061058e82610919565b9050919050565b60008073ffffffffffffffffffffffffffffffffffffffff168273ffffffffffffffffffffffffffffffffffffffff16036106085760006040517f89c62b640000000000000000000000000000000000000000000000000000000081526004016105ff9190611ce6565b60405180910390fd5b600360008373ffffffffffffffffffffffffffffffffffffffff1673ffffffffffffffffffffffffffffffffffffffff168152602001908152602001600020549050919050565b610657610c12565b6106616000610c99565b565b6000600760009054906101000a900473ffffffffffffffffffffffffffffffffffffffff16905090565b60606001805461069c906121a7565b80601f01602080910402602001604051908101604052809291908181526020018280546106c8906121a7565b80156107155780601f106106ea57610100808354040283529160200191610715565b820191906000526020600020905b8154815290600101906020018083116106f857829003601f168201915b5050505050905090565b61073161072a6109de565b8383610d5f565b5050565b610740848484610461565b61074c84848484610ece565b50505050565b606061075d82611085565b9050919050565b61076c610c12565b600060086000815461077d9061223e565b919050819055905061078f8382611198565b61079981836111b6565b505050565b6000600560008473ffffffffffffffffffffffffffffffffffffffff1673ffffffffffffffffffffffffffffffffffffffff16815260200190815260200160002060008373ffffffffffffffffffffffffffffffffffffffff1673ffffffffffffffffffffffffffffffffffffffff16815260200190815260200160002060009054906101000a900460ff16905092915050565b61083a610c12565b600073ffffffffffffffffffffffffffffffffffffffff168173ffffffffffffffffffffffffffffffffffffffff16036108ac5760006040517f1e4fbdf70000000000000000000000000000000000000000000000000000000081526004016108a39190611ce6565b60405180910390fd5b6108b581610c99565b50565b6000634906490660e01b7bffffffffffffffffffffffffffffffffffffffffffffffffffffffff1916827bffffffffffffffffffffffffffffffffffffffffffffffffffffffff19161480610912575061091182611212565b5b9050919050565b600080610925836112f4565b9050600073ffffffffffffffffffffffffffffffffffffffff168173ffffffffffffffffffffffffffffffffffffffff160361099857826040517f7e27328900000000000000000000000000000000000000000000000000000000815260040161098f9190611d7c565b60405180910390fd5b80915050919050565b60006004600083815260200190815260200160002060009054906101000a900473ffffffffffffffffffffffffffffffffffffffff169050919050565b600033905090565b6109f38383836001611331565b505050565b600080610a04846112f4565b9050600073ffffffffffffffffffffffffffffffffffffffff168373ffffffffffffffffffffffffffffffffffffffff1614610a4657610a458184866114f6565b5b600073ffffffffffffffffffffffffffffffffffffffff168173ffffffffffffffffffffffffffffffffffffffff1614610ad757610a88600085600080611331565b6001600360008373ffffffffffffffffffffffffffffffffffffffff1673ffffffffffffffffffffffffffffffffffffffff168152602001908152602001600020600082825403925050819055505b600073ffffffffffffffffffffffffffffffffffffffff168573ffffffffffffffffffffffffffffffffffffffff1614610b5a576001600360008773ffffffffffffffffffffffffffffffffffffffff1673ffffffffffffffffffffffffffffffffffffffff168152602001908152602001600020600082825401925050819055505b846002600086815260200190815260200160002060006101000a81548173ffffffffffffffffffffffffffffffffffffffff021916908373ffffffffffffffffffffffffffffffffffffffff160217905550838573ffffffffffffffffffffffffffffffffffffffff168273ffffffffffffffffffffffffffffffffffffffff167fddf252ad1be2c89b69c2b068fc378daa952ba7f163c4a11628f55a4df523b3ef60405160405180910390a4809150509392505050565b610c1a6109de565b73ffffffffffffffffffffffffffffffffffffffff16610c38610663565b73ffffffffffffffffffffffffffffffffffffffff1614610c9757610c5b6109de565b6040517f118cdaa7000000000000000000000000000000000000000000000000000000008152600401610c8e9190611ce6565b60405180910390fd5b565b6000600760009054906101000a900473ffffffffffffffffffffffffffffffffffffffff16905081600760006101000a81548173ffffffffffffffffffffffffffffffffffffffff021916908373ffffffffffffffffffffffffffffffffffffffff1602179055508173ffffffffffffffffffffffffffffffffffffffff168173ffffffffffffffffffffffffffffffffffffffff167f8be0079c531659141344cd1fd0a4f28419497f9722a3daafe3b4186f6b6457e060405160405180910390a35050565b600073ffffffffffffffffffffffffffffffffffffffff168273ffffffffffffffffffffffffffffffffffffffff1603610dd057816040517f5b08ba18000000000000000000000000000000000000000000000000000000008152600401610dc79190611ce6565b60405180910390fd5b80600560008573ffffffffffffffffffffffffffffffffffffffff1673ffffffffffffffffffffffffffffffffffffffff16815260200190815260200160002060008473ffffffffffffffffffffffffffffffffffffffff1673ffffffffffffffffffffffffffffffffffffffff16815260200190815260200160002060006101000a81548160ff0219169083151502179055508173ffffffffffffffffffffffffffffffffffffffff168373ffffffffffffffffffffffffffffffffffffffff167f17307eab39ab6107e8899845ad3d59bd9653f200f220920489ca2b5937696c3183604051610ec19190611b75565b60405180910390a3505050565b60008373ffffffffffffffffffffffffffffffffffffffff163b111561107f578273ffffffffffffffffffffffffffffffffffffffff1663150b7a02610f126109de565b8685856040518563ffffffff1660e01b8152600401610f3494939291906122db565b6020604051808303816000875af1925050508015610f7057506040513d601f19601f82011682018060405250810190610f6d919061233c565b60015b610ff4573d8060008114610fa0576040519150601f19603f3d011682016040523d82523d6000602084013e610fa5565b606091505b506000815103610fec57836040517f64a0ae92000000000000000000000000000000000000000000000000000000008152600401610fe39190611ce6565b60405180910390fd5b805181602001fd5b63150b7a0260e01b7bffffffffffffffffffffffffffffffffffffffffffffffffffffffff1916817bffffffffffffffffffffffffffffffffffffffffffffffffffffffff19161461107d57836040517f64a0ae920000000000000000000000000000000000000000000000000000000081526004016110749190611ce6565b60405180910390fd5b505b50505050565b606061109082610919565b5060006006600084815260200190815260200160002080546110b1906121a7565b80601f01602080910402602001604051908101604052809291908181526020018280546110dd906121a7565b801561112a5780601f106110ff5761010080835404028352916020019161112a565b820191906000526020600020905b81548152906001019060200180831161110d57829003601f168201915b50505050509050600061113b6115ba565b90506000815103611150578192505050611193565b60008251111561118557808260405160200161116d9291906123a5565b60405160208183030381529060405292505050611193565b61118e846115f7565b925050505b919050565b6111b2828260405180602001604052806000815250611660565b5050565b806006600084815260200190815260200160002090816111d69190612575565b507ff8e1a15aba9398e019f0b49df1a4fde98ee17ae345cb5f6b5e2c27f5033e8ce7826040516112069190611d7c565b60405180910390a15050565b60007f80ac58cd000000000000000000000000000000000000000000000000000000007bffffffffffffffffffffffffffffffffffffffffffffffffffffffff1916827bffffffffffffffffffffffffffffffffffffffffffffffffffffffff191614806112dd57507f5b5e139f000000000000000000000000000000000000000000000000000000007bffffffffffffffffffffffffffffffffffffffffffffffffffffffff1916827bffffffffffffffffffffffffffffffffffffffffffffffffffffffff1916145b806112ed57506112ec8261167c565b5b9050919050565b60006002600083815260200190815260200160002060009054906101000a900473ffffffffffffffffffffffffffffffffffffffff169050919050565b808061136a5750600073ffffffffffffffffffffffffffffffffffffffff168273ffffffffffffffffffffffffffffffffffffffff1614155b1561149e57600061137a84610919565b9050600073ffffffffffffffffffffffffffffffffffffffff168373ffffffffffffffffffffffffffffffffffffffff16141580156113e557508273ffffffffffffffffffffffffffffffffffffffff168173ffffffffffffffffffffffffffffffffffffffff1614155b80156113f857506113f6818461079e565b155b1561143a57826040517fa9fbf51f0000000000000000000000000000000000000000000000000000000081526004016114319190611ce6565b60405180910390fd5b811561149c57838573ffffffffffffffffffffffffffffffffffffffff168273ffffffffffffffffffffffffffffffffffffffff167f8c5be1e5ebec7d5bd14f71427d1e84f3dd0314c0f7b2291e5b200ac8c7c3b92560405160405180910390a45b505b836004600085815260200190815260200160002060006101000a81548173ffffffffffffffffffffffffffffffffffffffff021916908373ffffffffffffffffffffffffffffffffffffffff16021790555050505050565b6115018383836116e6565b6115b557600073ffffffffffffffffffffffffffffffffffffffff168373ffffffffffffffffffffffffffffffffffffffff160361157657806040517f7e27328900000000000000000000000000000000000000000000000000000000815260040161156d9190611d7c565b60405180910390fd5b81816040517f177e802f0000000000000000000000000000000000000000000000000000000081526004016115ac929190612647565b60405180910390fd5b505050565b60606040518060400160405280600481526020017f64656d6f00000000000000000000000000000000000000000000000000000000815250905090565b606061160282610919565b50600061160d6115ba565b9050600081511161162d5760405180602001604052806000815250611658565b80611637846117a7565b6040516020016116489291906123a5565b6040516020818303038152906040525b915050919050565b61166a8383611875565b6116776000848484610ece565b505050565b60007f01ffc9a7000000000000000000000000000000000000000000000000000000007bffffffffffffffffffffffffffffffffffffffffffffffffffffffff1916827bffffffffffffffffffffffffffffffffffffffffffffffffffffffff1916149050919050565b60008073ffffffffffffffffffffffffffffffffffffffff168373ffffffffffffffffffffffffffffffffffffffff161415801561179e57508273ffffffffffffffffffffffffffffffffffffffff168473ffffffffffffffffffffffffffffffffffffffff16148061175f575061175e848461079e565b5b8061179d57508273ffffffffffffffffffffffffffffffffffffffff16611785836109a1565b73ffffffffffffffffffffffffffffffffffffffff16145b5b90509392505050565b6060600060016117b68461196e565b01905060008167ffffffffffffffff8111156117d5576117d4611e8d565b5b6040519080825280601f01601f1916602001820160405280156118075781602001600182028036833780820191505090505b509050600082602001820190505b60011561186a578080600190039150507f3031323334353637383961626364656600000000000000000000000000000000600a86061a8153600a858161185e5761185d612670565b5b04945060008503611815575b819350505050919050565b600073ffffffffffffffffffffffffffffffffffffffff168273ffffffffffffffffffffffffffffffffffffffff16036118e75760006040517f64a0ae920000000000000000000000000000000000000000000000000000000081526004016118de9190611ce6565b60405180910390fd5b60006118f5838360006109f8565b9050600073ffffffffffffffffffffffffffffffffffffffff168173ffffffffffffffffffffffffffffffffffffffff16146119695760006040517f73c6ac6e0000000000000000000000000000000000000000000000000000000081526004016119609190611ce6565b60405180910390fd5b505050565b600080600090507a184f03e93ff9f4daa797ed6e38ed64bf6a1f01000000000000000083106119cc577a184f03e93ff9f4daa797ed6e38ed64bf6a1f01000000000000000083816119c2576119c1612670565b5b0492506040810190505b6d04ee2d6d415b85acef81000000008310611a09576d04ee2d6d415b85acef810000000083816119ff576119fe612670565b5b0492506020810190505b662386f26fc100008310611a3857662386f26fc100008381611a2e57611a2d612670565b5b0492506010810190505b6305f5e1008310611a61576305f5e1008381611a5757611a56612670565b5b0492506008810190505b6127108310611a86576127108381611a7c57611a7b612670565b5b0492506004810190505b60648310611aa95760648381611a9f57611a9e612670565b5b0492506002810190505b600a8310611ab8576001810190505b80915050919050565b6000604051905090565b600080fd5b600080fd5b60007fffffffff0000000000000000000000000000000000000000000000000000000082169050919050565b611b0a81611ad5565b8114611b1557600080fd5b50565b600081359050611b2781611b01565b92915050565b600060208284031215611b4357611b42611acb565b5b6000611b5184828501611b18565b91505092915050565b60008115159050919050565b611b6f81611b5a565b82525050565b6000602082019050611b8a6000830184611b66565b92915050565b600081519050919050565b600082825260208201905092915050565b60005b83811015611bca578082015181840152602081019050611baf565b60008484015250505050565b6000601f19601f8301169050919050565b6000611bf282611b90565b611bfc8185611b9b565b9350611c0c818560208601611bac565b611c1581611bd6565b840191505092915050565b60006020820190508181036000830152611c3a8184611be7565b905092915050565b6000819050919050565b611c5581611c42565b8114611c6057600080fd5b50565b600081359050611c7281611c4c565b92915050565b600060208284031215611c8e57611c8d611acb565b5b6000611c9c84828501611c63565b91505092915050565b600073ffffffffffffffffffffffffffffffffffffffff82169050919050565b6000611cd082611ca5565b9050919050565b611ce081611cc5565b82525050565b6000602082019050611cfb6000830184611cd7565b92915050565b611d0a81611cc5565b8114611d1557600080fd5b50565b600081359050611d2781611d01565b92915050565b60008060408385031215611d4457611d43611acb565b5b6000611d5285828601611d18565b9250506020611d6385828601611c63565b9150509250929050565b611d7681611c42565b82525050565b6000602082019050611d916000830184611d6d565b92915050565b600080600060608486031215611db057611daf611acb565b5b6000611dbe86828701611d18565b9350506020611dcf86828701611d18565b9250506040611de086828701611c63565b9150509250925092565b600060208284031215611e0057611dff611acb565b5b6000611e0e84828501611d18565b91505092915050565b611e2081611b5a565b8114611e2b57600080fd5b50565b600081359050611e3d81611e17565b92915050565b60008060408385031215611e5a57611e59611acb565b5b6000611e6885828601611d18565b9250506020611e7985828601611e2e565b9150509250929050565b600080fd5b600080fd5b7f4e487b7100000000000000000000000000000000000000000000000000000000600052604160045260246000fd5b611ec582611bd6565b810181811067ffffffffffffffff82111715611ee457611ee3611e8d565b5b80604052505050565b6000611ef7611ac1565b9050611f038282611ebc565b919050565b600067ffffffffffffffff821115611f2357611f22611e8d565b5b611f2c82611bd6565b9050602081019050919050565b82818337600083830152505050565b6000611f5b611f5684611f08565b611eed565b905082815260208101848484011115611f7757611f76611e88565b5b611f82848285611f39565b509392505050565b600082601f830112611f9f57611f9e611e83565b5b8135611faf848260208601611f48565b91505092915050565b60008060008060808587031215611fd257611fd1611acb565b5b6000611fe087828801611d18565b9450506020611ff187828801611d18565b935050604061200287828801611c63565b925050606085013567ffffffffffffffff81111561202357612022611ad0565b5b61202f87828801611f8a565b91505092959194509250565b600067ffffffffffffffff82111561205657612055611e8d565b5b61205f82611bd6565b9050602081019050919050565b600061207f61207a8461203b565b611eed565b90508281526020810184848401111561209b5761209a611e88565b5b6120a6848285611f39565b509392505050565b600082601f8301126120c3576120c2611e83565b5b81356120d384826020860161206c565b91505092915050565b600080604083850312156120f3576120f2611acb565b5b600061210185828601611d18565b925050602083013567ffffffffffffffff81111561212257612121611ad0565b5b61212e858286016120ae565b9150509250929050565b6000806040838503121561214f5761214e611acb565b5b600061215d85828601611d18565b925050602061216e85828601611d18565b9150509250929050565b7f4e487b7100000000000000000000000000000000000000000000000000000000600052602260045260246000fd5b600060028204905060018216806121bf57607f821691505b6020821081036121d2576121d1612178565b5b50919050565b60006060820190506121ed6000830186611cd7565b6121fa6020830185611d6d565b6122076040830184611cd7565b949350505050565b7f4e487b7100000000000000000000000000000000000000000000000000000000600052601160045260246000fd5b600061224982611c42565b91507fffffffffffffffffffffffffffffffffffffffffffffffffffffffffffffffff820361227b5761227a61220f565b5b600182019050919050565b600081519050919050565b600082825260208201905092915050565b60006122ad82612286565b6122b78185612291565b93506122c7818560208601611bac565b6122d081611bd6565b840191505092915050565b60006080820190506122f06000830187611cd7565b6122fd6020830186611cd7565b61230a6040830185611d6d565b818103606083015261231c81846122a2565b905095945050505050565b60008151905061233681611b01565b92915050565b60006020828403121561235257612351611acb565b5b600061236084828501612327565b91505092915050565b600081905092915050565b600061237f82611b90565b6123898185612369565b9350612399818560208601611bac565b80840191505092915050565b60006123b18285612374565b91506123bd8284612374565b91508190509392505050565b60008190508160005260206000209050919050565b60006020601f8301049050919050565b600082821b905092915050565b60006008830261242b7fffffffffffffffffffffffffffffffffffffffffffffffffffffffffffffffff826123ee565b61243586836123ee565b95508019841693508086168417925050509392505050565b6000819050919050565b600061247261246d61246884611c42565b61244d565b611c42565b9050919050565b6000819050919050565b61248c83612457565b6124a061249882612479565b8484546123fb565b825550505050565b600090565b6124b56124a8565b6124c0818484612483565b505050565b5b818110156124e4576124d96000826124ad565b6001810190506124c6565b5050565b601f821115612529576124fa816123c9565b612503846123de565b81016020851015612512578190505b61252661251e856123de565b8301826124c5565b50505b505050565b600082821c905092915050565b600061254c6000198460080261252e565b1980831691505092915050565b6000612565838361253b565b9150826002028217905092915050565b61257e82611b90565b67ffffffffffffffff81111561259757612596611e8d565b5b6125a182546121a7565b6125ac8282856124e8565b600060209050601f8311600181146125df57600084156125cd578287015190505b6125d78582612559565b86555061263f565b601f1984166125ed866123c9565b60005b82811015612615578489015182556001820191506020850194506020810190506125f0565b86831015612632578489015161262e601f89168261253b565b8355505b6001600288020188555050505b505050505050565b600060408201905061265c6000830185611cd7565b6126696020830184611d6d565b9392505050565b7f4e487b7100000000000000000000000000000000000000000000000000000000600052601260045260246000fdfea26469706673582212202113c2521b4f67920a074185b9b8f75100abf0a97d5176534b186a39c28a5a8764736f6c63430008140033",
  "linkReferences": {},
  "deployedLinkReferences": {}
}